:020000040800F2
:10500000A853002041F50008BDF20008BFF20008D7
:10501000C1F20008C3F20008C5F200080000000059
:10502000000000000000000000000000C7F20008BF
:10503000C9F2000800000000CBF20008CDF2000821
:10504000F1F50008F5F50008F9F50008FDF5000890
:1050500001F6000805F6000809F600080DF600083C
:1050600011F6000815F6000819F600081DF60008EC
:1050700021F6000825F6000829F600082DF600089C
:1050800031F6000835F6000839F600083DF600084C
:1050900041F6000845F6000849F600084DF60008FC
:1050A00051F6000855F6000859F600085DF60008AC
:1050B00061F6000865F6000869F600086DF600085C
:1050C00071F6000875F6000879F600087DF600080C
:1050D00081F60008FDE700088BE9000885F6000866
:1050E00089F600088DF6000891F6000895F600088C
:1050F00099F600089DF60008A1F60008A5F600083C
:10510000A9F60008ADF60008B1F60008B5F60008EB
:10511000B9F60008BDF60008C1F60008C5F600089B
:10512000C9F60008CDF60008D1F60008D5F600084B
:1051300003E00B780370491C401C13005A1E002B1F
:10514000F7D1704701E00170401C13005A1E002B7C
:10515000F9D1704710B400231400621E002C06D051
:1051600003780C781B1B491C401C002BF4D0180042
:1051700010BC704700E0401C0278002A02D0027880
:105180008A42F8D10078704730B400231A0001E059
:1051900001225B1C022B21D20C24794D04FB035409
:1051A0002468002CF4D00C24754D04FB03542468AF
:1051B000D0F80052AC42ECD10C24714D04FB0354E6
:1051C0006468D0F80852AC42E3D10C246C4D04FB67
:1051D00003542489B0F80652AC42DAD1022B08D12C
:1051E000002A01D1022901D1002000E01220C0B222
:1051F0000DE0002907D10C20614900FB0310408914
:10520000B0F5807F01D1102000E00020C0B230BC9A
:105210007047002000E0401C022806D20C21584AAA
:1052200001FB002109680029F5D1022801D10020E5
:1052300000E00120704730B4002200E0521C022A36
:105240001AD20C234E4C03FB02431B68D0F80042D9
:10525000A342F3D10C234A4C03FB02435B68D0F812
:105260000842A342EAD10C23454C03FB02431B89AD
:10527000B0F80642A342E1D1022A2AD1002200E07E
:10528000521C022A06D20C233D4C03FB02431B682E
:10529000002BF5D1022A01D1002036E0D0F80032EF
:1052A0000C24374D04FB02542360D0F808320C2440
:1052B000334D04FB02546360B0F806020C23304CFB
:1052C00003FB0243188100200C232D4C03FB0243F7
:1052D0005881002908D00C20294B00FB023040895E
:1052E000002801D0002010E0002902D04FF4807087
:1052F00005E00C20224900FB02104089401C0C21D3
:105300001F4B01FB02314881501C30BC7047401ECE
:1053100002281DD20C211A4A01FB0021498989B2B9
:10532000B1F5807F00D1002189B2002900D0491E4B
:105330000C22134B02FB0032518189B2002905D1A6
:1053400000210C220E4B02FB00300160002000E027
:105350000220C0B2704710B400210DE00C22084BAF
:1053600002FB01321268824205D100220C23044C58
:1053700003FB01431A60491C0229EFD310BC70479C
:1053800038430020F8B50500002495F804020028F1
:1053900026D0D5F82C6201233200290095F80102AD
:1053A00001F0C1FE002801D0012419E0002085F899
:1053B0000402D5F82002301AD5F8181288420FD20C
:1053C00095F803720AE0D5F8180286190123320015
:1053D000290095F8010201F0A6FE7F1E022FF2D2ED
:1053E0002000C0B2F2BD70B504000D000026D4F854
:1053F0002C02854214D02000FFF7C4FF0600F6B24D
:10540000002E0DD101232A00210094F8010201F0A1
:105410007BFE002802D05FF0FF350126C4F82C5235
:105420003000C0B270BD38B504002000FFF7AAFFFD
:105430000500EDB2002D68D194F8000203285BD17D
:1054400094F80502012857D14FF400720021200082
:10545000FFF778FE552084F8FE01AA2084F8FF01AA
:1054600052202070522060706120A0704120E070B6
:10547000722084F8E401722084F8E501412084F868
:10548000E601612084F8E701D4F8100284F8E8010D
:10549000D4F8100280B2000A84F8E901D4F81002AE
:1054A000000C84F8EA01D4F81002000E84F8EB0135
:1054B000D4F80C0284F8EC01D4F80C0280B2000A93
:1054C00084F8ED01D4F80C02000C84F8EE01D4F855
:1054D0000C02000E84F8EF01D4F81C02401CC4F842
:1054E0002C020123D4F82C22210094F8010201F0AF
:1054F0001AFE002084F805020022002194F801021F
:1055000001F020FE002800D001252800C0B232BDE5
:10551000891ED0F81422921E914201D3002005E08A
:1055200090F80222D0F8280202FB010070472DE912
:10553000F04104000D00022D03D3D4F8140285427B
:1055400001D3012670E05FF0FF3694F800020128D5
:1055500004D068D3032848D030D364E02F0017EB81
:105560005707D4F8200210EB57212000FFF73BFF2C
:10557000002859D14FF40070B7FBF0F101FB107116
:1055800011F804807F1CD4F8200210EB5721200072
:10559000FFF729FF002847D14FF40070B7FBF0F167
:1055A00001FB1071085D58EA0028E80702D55FEAA0
:1055B000181602E05FEA0856360D35E0D4F82002EE
:1055C00010EB15212000FFF70EFF00282CD16800FA
:1055D0004FF40071B0FBF1F202FB11021019417897
:1055E000007850EA0126B6B21EE0D4F8200210EB93
:1055F000D5112000FFF7F7FE002815D1A8004FF4C1
:105600000071B0FBF1F202FB11021019C17882782F
:10561000120452EA0161427851EA022100780843FB
:105620000601360900E001263000BDE8F081F8B53A
:1056300004000D001600022D03D3D4F81402854295
:1056400001D302208BE094F80002012805D0C0F0BD
:10565000858003285ED043D380E02F0017EB5707E7
:10566000D4F8200210EB57212000FFF7BCFEC0B297
:10567000002874D14FF40070B7FBF0F101FB1071FA
:1056800009197F1CE80705D5087810F00F0050EACB
:10569000061000E030000870012084F80402D4F8FD
:1056A000200210EB57212000FFF79DFEC0B200281A
:1056B00055D14FF40071B7FBF1F202FB11721119D1
:1056C000EA0701D5320906E00A7812F0F002330A3F
:1056D00013F00F031A430A70012184F804123EE00C
:1056E000D4F8200210EB15212000FFF77CFEC0B299
:1056F000002834D169004FF40072B1FBF2F303FBD0
:10570000121319190E70B6B2320A4A70012184F8C8
:10571000041224E0D4F8200210EBD5112000FFF78A
:1057200062FEC0B200281AD1A9004FF40072B1FB8A
:10573000F2F303FB12131919CA78120612F0704221
:1057400016430E70320092B2120A4A70320C8A70FE
:10575000320ECA70012184F8041200E00220C0B2A7
:10576000F2BDF8B504000F00022F03D3D4F81402E1
:10577000874201D302252FE0002510E0D4F8100263
:1057800010F1010F0AD0D4F81002401CC4F8100226
:1057900094F8050250F0010084F805023700D4F8AF
:1057A0001402874218D239002000FFF7C0FE06001D
:1057B000002E11D0012E01D102250DE016F1010FAE
:1057C00001D1012508E0002239002000FFF72FFF5A
:1057D0000500EDB2002DD1D02800C0B2F2BDF8B561
:1057E00004000E00002E09D1D4F80C72002F03D053
:1057F000D4F81402874211D301270FE031002000B2
:10580000FFF795FE022801D2012050E010F1010FB0
:105810004DD0D4F81412884249D337003D006D1C96
:10582000D4F81402854204D30225AF4201D20020ED
:105830003DE029002000FFF77AFE002825D17FF007
:10584000704229002000FFF7F2FEC0B2002806D106
:10585000002E04D02A0031002000FFF7E8FEC0B27D
:1058600000281CD1C4F80C52D4F8100210F1010F1A
:105870001CD0D4F81002401EC4F8100294F805029F
:1058800050F0010084F8050210E010F1010F01D082
:10589000012800D10BE0BD42C1D1002007E0C0B219
:1058A000012802D15FF0FF3500E001252800F2BD9C
:1058B000D0F82422121D490AD0F8000290F8020202
:1058C000B1FBF0F001E0401A121D1168121D002911
:1058D00001D1002003E08842F5D211680818704712
:1058E000F8B504000D00A4F80652D4F80862012EA1
:1058F00005D0D4F80002D0F81402864201D3022069
:1059000053E0002E09D1D4F8000290F800020328D9
:1059100003D1D4F80002D0F82462002E0CD1D4F8C0
:105920000002B0F80802854201D302203DE0D4F81D
:105930000002D0F8240222E0D4F8000290F802021B
:10594000070100E0ED1BBD4214D33100D4F8000282
:10595000FFF7EDFD060016F1010F01D1012024E053
:10596000022E05D3D4F80002D0F814028642E9D3FF
:1059700002201AE03100D4F80002FFF7C9FDC4F894
:105980000C62002801D102200FE010EB1510C4F8C2
:1059900010021020B5FBF0F101FB1051D4F8000209
:1059A00010EB4110C4F814020020F2BDF8B5040059
:1059B0000D00B4F80602461C300403D0D4F81002DF
:1059C000002801D10420A6E01020B6FBF0F101FB75
:1059D0001061002940F09180D4F81002401CC4F8F6
:1059E0001002D4F80C02002808D1D4F80002B0F854
:1059F00008028642C0F0818004208CE0D4F80002C6
:105A000090F80202401E10EA161F76D1D4F80C124C
:105A1000D4F80002FFF78BFD0700022F01D202200D
:105A200079E017F1010F01D1012074E0D4F80002F0
:105A3000D0F81402874257D3002D01D104206AE028
:105A4000D4F80C12D4F80002FFF7C9FE0700002FAB
:105A500001D107205FE0012F01D102205BE017F1A7
:105A6000010F01D1012056E0D4F80002FFF78AFCB3
:105A7000002801D001204EE04FF400720021D4F83C
:105A80000002FFF75FFB3900D4F80002FFF740FD8A
:105A9000D4F80012C1F82C02002509E0D4F8000265
:105AA000D0F82C02401CD4F80012C1F82C026D1C56
:105AB000D4F8000290F8020285420CD20120D4F8FA
:105AC000001281F80402D4F80002FFF75BFC002802
:105AD000E4D001201FE0D4F80002D0F82C02401BD3
:105AE000D4F80012C1F82C02C4F80C723900D4F8B2
:105AF0000002FFF70DFDC4F81002A4F806621020A2
:105B0000B6FBF0F101FB1061D4F8000210EB41107C
:105B1000C4F814020020F2BD70B504000D0000218D
:105B20002000FFF7DDFEC0B200281FD10026D4F808
:105B30001012D4F80002FFF756FCC0B2002815D1AD
:105B4000D4F814120978E52904D0D4F8141209788D
:105B5000002903D1761CAE4201D107E000260121C5
:105B60002000FFF723FFC0B20028E0D0C0B2042815
:105B700000D10720C0B270BDCA7E8B7E53EA0222DC
:105B800092B290F80002032806D1487D097D51EABF
:105B9000002080B252EA00421000704781760A006D
:105BA00092B2120AC2760A0C0275090C89B2090A6D
:105BB0004175704738B5040000212000FFF790FEC2
:105BC0000500EDB2002D02D02800C0B225E0D4F8C7
:105BD0001012D4F80002FFF706FC0500EDB2002D0C
:105BE00019D1D4F814020178C9B2002901D10425D1
:105BF00011E0C17A090706D40B22D4F81812FFF776
:105C0000A9FA002807D000212000FFF7CFFE0500E9
:105C1000EDB2002DDBD02800C0B232BD38B5040093
:105C20000D000420D4F8101200292ED0D4F8101240
:105C3000D4F80002FFF7D7FBC0B2002825D1D4F872
:105C400014120A78D2B2002A01D104201DE0C97AC8
:105C500011F03F01D2B2E52A10D0D2B22E2A0DD0D7
:105C6000C9B20F290AD0C9B231F02001082901D1E7
:105C7000012100E00021C9B2A94206D00021200084
:105C8000FFF794FEC0B20028CCD0C0B2002802D0EA
:105C90000021C4F81012C0B232BD38B50400012191
:105CA0002000FFF739FF0500EDB2002D1BD1D4F81D
:105CB0001012D4F80002FFF796FB0500EDB2002D9C
:105CC00011D120220021D4F81402FFF73BFA0B2255
:105CD000D4F81812D4F81402FFF72AFA0120D4F8E5
:105CE000001281F804022800C0B232BD38B50400A9
:105CF000B4F806122000FFF7F3FD0500EDB2002D09
:105D000018D1D4F81012D4F80002FFF76CFB05008C
:105D1000EDB2002D0ED120220021D4F81402FFF79D
:105D200011FAE520D4F8141208700120D4F80012FA
:105D300081F804022800C0B232BD2DE9F84F0C00F2
:105D4000256800E06D1C29782F29FBD029785C2973
:105D5000F8D0D0F818620B2220213000FFF7F2F9BA
:105D60005FF00009CB465FFA8BFB5F465FF00808E7
:105D700004E008275FF00B085FEA89091BF805A01B
:105D80001BF1010B5FFA8AFABAF1210F09DB5FFA06
:105D90008AFABAF12F0F04D05FFA8AFABAF15C0FCF
:105DA0000AD11BEB050020605FFA8AFABAF1210FD5
:105DB00044DA5FF0040A43E05FFA8AFABAF12E0F80
:105DC00001D0474509D3B8F1080F04D15FFA8AFA28
:105DD000BAF12E0FCDD0062053E05FFA8AFABAF15D
:105DE000800F09DB59F003095FFA8AFADFF82C0803
:105DF0001AEB000010F880AC5FFA8AFA5146DFF81F
:105E00002008FFF7B7F9002801D0062039E05FFA33
:105E10008AFABAF141001A2802D259F0020909E0BF
:105E20005FFA8AFABAF161001A2803D259F001091F
:105E3000BAF1200A07F806A07F1C9FE75FF0000A6E
:105E4000002F01D106201CE03078E52801D1052083
:105E50003070B8F1080F01D15FEA89095FFA89F95A
:105E600019F00300012801D15AF0100A5FFA89F9EC
:105E700019F00C00042801D15AF0080A86F80BA08A
:105E80000020BDE8F28F13B50400019800782F2898
:105E900003D0019800785C2802D10198401C019041
:105EA0000020C4F808020198007820280DD20021B3
:105EB0002000FFF715FD0021C4F8141224E0D4F8E7
:105EC0000002FFF759FEC4F8080201A92000FFF7FD
:105ED00034FFC0B2002817D12000FFF76BFED4F8C2
:105EE0001812C97AC0B2002806D0C0B2042802D164
:105EF000490700D4052007E0490705D4D4F8141257
:105F0000C87AC006DBD40520C0B216BD10B45FF05D
:105F1000FF310268002A1BD0036800E05B1C1A787E
:105F2000212A02D31A783A2AF8D11A783A2A0ED1BD
:105F300002681478303C521C0A2C06D29A4204D1D2
:105F4000002C02D121005B1C0360080001E000214D
:105F5000080010BC704710B50400002084F804024B
:105F60005FF0FF30C4F82C022000FFF73CFA002855
:105F700001D003202DE094F8FF0194F8FE1151EABE
:105F8000002080B24AF65521884201D0022020E04C
:105F900094F8380094F83710090251EA004094F858
:105FA00036100843DFF8201C884201D1002010E0A1
:105FB00094F8540094F85310090251EA004094F800
:105FC00052100843DFF8001C884201D1002000E095
:105FD000012010BDF0B585B00700080015000021B4
:105FE0003960FFF793FF0600002E01D50B20C7E1B3
:105FF000DFF8D80B50F82640002C01D10C20BFE16F
:106000003C6094F8000200280ED094F8010201F0E0
:1060100053F8C10708D4EDB2002D03D0400701D5D5
:106020000A20ADE10020ABE1002084F8000284F8F2
:10603000016294F8010201F04EF8C10701D5032076
:106040009EE1EDB2002D03D0400701D50A2097E173
:10605000002529002000FFF77EFF0600F6B2012E82
:1060600030D1002704E0002000A941F827007F1C60
:10607000042F11D214EB071000F2BE100179002991
:10608000F1D0C17A827A120452EA0161427A51EA6D
:106090000221007A0843E7E70027002F00D07F1E87
:1060A00000A850F82750002D05D029002000FFF748
:1060B00052FF060000E00226F6B2002E02D07F1C3E
:1060C000042FEDD3F6B2032E01D1012058E1F6B230
:1060D000002E01D00D2053E1207BE17A51EA00200F
:1060E00080B2B0F5007F01D00D2049E1E07DA17DB7
:1060F00051EA002080B200280DD194F8270094F8CE
:106100002610090451EA006094F8251050EA012095
:1061100094F824100843C4F81802217C84F8031270
:1061200094F80312012905D094F80312022901D032
:106130000D2025E194F803124843617B84F8021294
:1061400094F80212002906D094F8021294F8022260
:10615000521E114201D00D2012E1A17C627C52EA54
:106160000121A4F80812B4F808121022B1FBF2F3CE
:1061700003FB1213002B01D00D2001E1217DE27CF5
:1061800052EA012292B2002A0DD194F8231094F819
:106190002220120452EA016194F8212051EA0221DE
:1061A00094F820200A43E17BA37B53EA012189B2C2
:1061B000002901D10D20E3E089B24318B4F8086248
:1061C00013EB16139A4201D20D20D9E0D21A94F89B
:1061D0000262B2FBF6F2002A01D10D20D0E00126C6
:1061E00040F6F677BA4200D302264FF6F677BA4267
:1061F00000D30326921CC4F81422C4F81C5289B29E
:106200004919C4F820125919C4F82812F6B2032EFD
:1062100019D1B4F80802002801D00D20B0E094F89C
:106220002F0094F82E10090451EA006094F82D1004
:1062300050EA012094F82C100843C4F82402D4F842
:10624000140280001BE0B4F80812002901D10D20CF
:1062500096E0D4F820124018C4F82402F6B2022EB8
:1062600003D1D4F81402400009E0D4F81402032149
:10627000484394F8141211F0010111EB5000D4F8C6
:10628000181200F2FF10B1EB502F01D20D2077E071
:106290005FF0FF30C4F81002C4F80C02802084F8CC
:1062A0000502F6B2032E5CD194F8310094F8301058
:1062B00051EA002080B2012853D1691C2000FFF769
:1062C00092F800284DD1002084F8050294F8FF01CF
:1062D00094F8FE1151EA002080B24AF65521884216
:1062E0003FD1E078A178090451EA0060617850EA72
:1062F000012021780843DFF8D818884231D194F87A
:10630000E70194F8E611090451EA006094F8E511F8
:1063100050EA012094F8E4110843DFF8B8188842E5
:106320001FD194F8EB0194F8EA11090451EA0060D6
:1063300094F8E91150EA012094F8E8110843C4F8F0
:10634000100294F8EF0194F8EE11090451EA00608C
:1063500094F8ED1150EA012094F8EC110843C4F8C8
:106360000C0284F80062DFF870080088401CDFF837
:1063700068180880A4F806022000FEF7ECFF002051
:1063800005B0F0BD80B5002819D0D0F80012002962
:1063900015D0D0F8001291F8001200290FD0D0F8D3
:1063A0000012B1F80612B0F80422914207D1D0F8D9
:1063B000000290F8010200F07FFEC00701D509201D
:1063C00000E0002002BD73B582B014000398009075
:1063D00000A8FFF79BFD0500002D01D50B2025E04F
:1063E000DFF8E80750F82560002E05D03000FEF7F2
:1063F000B2FF002086F800020298002803D0002097
:10640000029981F800020298DFF8C01741F82500D0
:106410000298002802D0E4B2012C01D0002005E04F
:10642000002203A902A8FFF7D5FDC0B204B070BDD9
:106430002DE9F243ADF50C7D04001500002C01D1CF
:106440000920E5E00020C4F8000215F01F0515F052
:10645000FE028CA983A8FFF7BDFD0700FFB2002F45
:1064600040F0D48000A889908C9903A8FFF70BFD19
:106470000700889EFFB2002F0DD1002E01D1062704
:1064800009E0FE20054201D0012100E0002103A81F
:10649000FEF77AFE07001C2005425FD0FFB2002FF6
:1064A00010D0FFB2042F09D1FEF7B3FE002804D0AC
:1064B00003A8FFF7F2FB070000E0122755F00805DC
:1064C000889E08E0F07A1121084201D0072702E0F7
:1064D000680700D50827FFB2002F4DD128074BD5FC
:1064E000DFF8F88686F80E80404680B2000AF07326
:1064F0005FEA184030745FEA186070740020F07230
:1065000000203077002070770020B0770020F077EF
:1065100031008398FFF730FB814600213000FFF700
:106520003DFB0120839981F80402B9F1000F23D0CB
:106530008398D0F82C8249468398FFF712F9070018
:10654000FFB2002F18D1B9F101008399C1F80C02F4
:1065500041468398FEF747FF07000DE0FFB2002F8A
:106560000AD1F07AC00601D5042705E0A80703D5B3
:10657000F07AC00700D50727FFB2002F1AD12807ED
:1065800001D555F020058398D0F82C02C4F81C02E0
:10659000C4F82062FE20054201D0012100E0002164
:1065A00003A8FEF748FEC4F82802D4F82802002801
:1065B00000D10227FFB2002F28D184F80652002014
:1065C00084F8070231008398FFF7D6FAC4F8100266
:1065D000F07FB17F090451EA0060717F50EA012029
:1065E000317F0843C4F80C020020C4F808020020E0
:1065F000C4F818020020C4F824028398C4F80002EA
:10660000D4F80002B0F80602A4F804023800C0B2C0
:106610000DF50D7DBDE8F083000000003CF20008A0
:1066200010F500082DE9F047050016001F000C00CA
:10663000002038602800FFF7A5FEC0B2002801D076
:10664000C0B20BE195F80702002802D095F80702C6
:1066500004E195F80602C00701D40720FEE0D5F852
:106660000C02D5F80812401AB0422BD2060029E0DD
:10667000C5F81892D5F808024FF40071B0FBF1F29A
:1066800002FB1102D2F50078464500D2B0464246E0
:10669000D5F808024FF40071B0FBF1F303FB1103CE
:1066A00059192000FEF744FD18EB0404D5F8080240
:1066B00018EB0000C5F80802386818EB00003860D5
:1066C000B6EB0806002E00F0C880D5F808024FF49B
:1066D0000071B0FBF1F202FB1102002ACAD1D5F819
:1066E0000802400AD5F8001291F80212491E11EA78
:1066F00000085FFA88F8B8F1000F27D1D5F8080232
:10670000002802D1D5F810020FE0D5F824020028A5
:1067100005D0D5F808122800FFF7CAF805E0D5F82B
:106720001412D5F80002FEF702FF022804D202205C
:1067300085F80702022091E010F1010F04D1012039
:1067400085F80702012089E0C5F81402D5F8141273
:10675000D5F80002FEF7DCFE8146B9F1000F04D146
:10676000022085F80702022078E05FFA88F818EB2B
:1067700009095FEA562ABAF1000F3DD0D5F80002A8
:1067800090F802025FFA88F81AEB0801884207D2F3
:10679000D5F8000290F802025FFA88F8B0EB080A18
:1067A00053464A462100D5F8000290F8010200F055
:1067B000ABFC002804D0012085F8070201204DE041
:1067C00095F80602400612D5D5F81802B0EB09007C
:1067D00050450CD24FF400722900D5F81802B0EBE6
:1067E00009004FF4007303FB0040FEF7A1FC4FF4D7
:1067F000007000FB0AF857E7D5F8180248453FF447
:1068000037AF95F80602400616D50123D5F81822B1
:106810002900D5F8000290F8010200F084FC00285D
:1068200004D0012085F80702012017E095F8060240
:1068300010F0BF0085F8060201234A462900D5F86A
:10684000000290F8010200F05FFC00283FF410AF56
:10685000012085F80702012000E00020BDE8F08754
:106860002DE9F047050016001F000C0000203860DD
:106870002800FFF787FDC0B2002801D0C0B292E027
:1068800095F80702002802D095F807028BE095F8EA
:106890000602800701D4072085E0D5F808023018E9
:1068A000D5F80812884232D2002630E0C5F8189296
:1068B000D5F808024FF40071B0FBF1F202FB1102AF
:1068C000D2F50078464500D2B04642462100D5F8C0
:1068D00008024FF40073B0FBF3FC0CFB130C1CEB31
:1068E0000500FEF725FC95F8060250F0400085F8FB
:1068F000060218EB0404D5F8080218EB0000C5F8EE
:106900000802386818EB00003860B6EB0806002E65
:1069100038D0D5F808024FF40071B0FBF1F202FB59
:106920001102002AC4D1D5F80802400AD5F8001295
:1069300091F80212491E11EA00085FFA88F8B8F1CE
:10694000000F49D1D5F80802002809D1D5F8100266
:10695000002815D10021D5F80002FEF740FF0FE016
:10696000D5F82402002805D0D5F808122800FEF733
:106970009FFF05E0D5F81412D5F80002FEF72FFFAF
:10698000002812D1D5F80C02D5F80812884203D29B
:10699000D5F80802C5F80C0295F8060250F0200060
:1069A00085F806020020BDE8F087012804D1022006
:1069B00085F807020220F6E710F1010F04D101204B
:1069C00085F807020120EEE7C5F81402D5F8101289
:1069D000002901D1C5F8100295F80602400616D527
:1069E0000123D5F818222900D5F8000290F80102F9
:1069F00000F099FB002804D0012085F8070201204F
:106A0000D1E795F8060210F0BF0085F80602D5F828
:106A10001412D5F80002FEF77BFD8146B9F1000F94
:106A200004D1022085F807020220BCE75FFA88F84B
:106A300018EB09095FEA562ABAF1000F3FD0D5F8E2
:106A4000000290F802025FFA88F81AEB0801884207
:106A500007D2D5F8000290F802025FFA88F8B0EB8E
:106A6000080A53464A462100D5F8000290F8010270
:106A700000F059FB002804D0012085F8070201200E
:106A800091E7D5F81802B0EB0900504512D24FF447
:106A90000072D5F81802B0EB09004FF4007101FB49
:106AA00000412800FEF744FB95F8060210F0BF00F5
:106AB00085F806024FF4007000FB0AF819E7D5F8D4
:106AC000180248453FF4F2AED5F80802D5F80C128A
:106AD0008842BFF4EBAE01234A462900D5F80002F4
:106AE00090F8010200F010FB00283FF4DFAE012017
:106AF00085F80702012056E738B504002000FFF7AB
:106B000041FCC0B200285CD194F80612890658D521
:106B100094F80602400613D50123D4F81822210068
:106B2000D4F8000290F8010200F0FDFA002801D02C
:106B3000012047E094F8060210F0BF0084F8060236
:106B4000D4F81C12D4F80002FEF74DFCC0B20028A5
:106B500037D1D4F82052E87A50F02000E872D4F807
:106B60000C022877D4F80C0280B2000A6877D4F8B7
:106B70000C02000CA877D4F80C02000EE877D4F8C9
:106B800010122800FFF70AF81448A875010089B20E
:106B9000090AE975010C2976000E68760020A874B0
:106BA0000020E87494F8060210F0DF0084F8060272
:106BB0000120D4F8001281F80402D4F80002FEF794
:106BC00032FCC0B232BD0000464154008443002074
:106BD0005252614172724161964300200000A14609
:106BE00010B504002000FFF787FFC0B200280FD1C6
:106BF0002000FFF7C7FBC0B2002809D1D4F8280253
:106C0000FEF785FBC0B2002802D10021C4F80012B3
:106C1000C0B210BD2DE9F84F05000E002800FFF7A7
:106C2000B1FB0400E4B2002C02D02000C0B2A4E109
:106C300095F80702002802D095F807029DE1D5F8E3
:106C40002402002800F0AF8016F1010F45D1D5F8DD
:106C500024A2DAF800801AF1040A5FF00209D5F8DC
:106C6000100200282DD00700002619F102098346E2
:106C7000761C0100D5F80002FEF759FC022804D268
:106C8000022085F80702022077E110F1010F04D1FC
:106C9000012085F8070201206FE11BF10101884204
:106CA000E5D0C84507D3CAF800601AF1040ACAF84B
:106CB00000701AF1040AD5F80012D1F814128842B3
:106CC000D1D3D5F82402C0F80090C84503D30020E2
:106CD000CAF800004FE111244DE1D5F80C02B04292
:106CE00001D2D5F80C62C5F80862002E00F043818D
:106CF000711E2800FEF7DCFDC5F81402D5F8141249
:106D0000D5F80002FEF704FC0700002F04D1022092
:106D100085F80702022030E1701ED5F8001291F8C4
:106D20000212491E11EA5020C719D5F808024FF483
:106D30000071B0FBF1F202FB1102002A00F01B818E
:106D4000D5F81802874200F0168195F80602400631
:106D500016D50123D5F818222900D5F8000290F89D
:106D6000010200F0E0F9002804D0012085F80702B4
:106D7000012002E195F8060210F0BF0085F8060236
:106D800001233A002900D5F8000290F8010200F032
:106D9000BBF9002804D0012085F807020120ECE0AF
:106DA000C5F81872E7E0D5F80C02B04205D295F8A4
:106DB0000602800701D4D5F80C62D5F80802002736
:106DC000C5F80872002E00F08B80D5F8001291F8FB
:106DD00002124FF4007202FB01F8002813D0411E8A
:106DE000B1FBF8F1721EB2FBF8F28A420BD3401EDF
:106DF000B8F101018843C5F80802D5F80802361A2F
:106E0000D5F814121CE0D5F81012002916D1002173
:106E1000D5F80002FEF7E3FC0100012904D10220AD
:106E200085F807020220A8E011F1010F04D101202A
:106E300085F807020120A0E0C5F81012C5F8141269
:106E400000290AD14CE0C5F81412D5F8080218EB55
:106E50000000C5F80802B6EB0806B0450BD295F85D
:106E60000602800720D5D5F80002FEF7B8FC010025
:106E700000291ED14646D5F808023018C5F8080288
:106E80004FF40070B6FBF0F202FB1062002A27D02C
:106E9000D5F80002FEF73CFB0700002F1ED10220B0
:106EA00085F80702022068E0D5F80002FEF73FFBF4
:106EB000010011F1010F04D1012085F80702012022
:106EC0005BE0022905D3D5F80002D0F81402814214
:106ED000B9D3022085F8070202204EE017EB5627AF
:106EE000D5F808024FF40071B0FBF1F202FB110279
:106EF000002A30D0D5F8180287422CD095F8060227
:106F0000400616D50123D5F818222900D5F800022D
:106F100090F8010200F007F9002804D0012085F85C
:106F20000702012029E095F8060210F0BF0085F85D
:106F3000060201233A002900D5F8000290F8010268
:106F400000F0E2F8002804D0012085F807020120B3
:106F500013E0C5F81872D5F80C02D5F8081288426B
:106F600009D2D5F80802C5F80C0295F8060250F0CF
:106F7000200085F806022000C0B2BDE8F28F71B58E
:106F8000ADF24C4D00240122FFA95031FFA8303052
:106F9000FFF720F80500EDB2002D61D100A8CDF873
:106FA0004404DDF84C148BA8FEF76DFF0500EDB22C
:106FB000002D04D102218BA8FEF7E6F80500EDB202
:106FC000002D4DD1DDF84064002E01D1062503E0EF
:106FD000F07AC00700D50725EDB2002D26D131008B
:106FE000DDF82C04FEF7C8FD0400002C1ED0F07A5A
:106FF000C0061BD54FF408728BA903A8FEF798F8BA
:107000008594022103A8FEF76BFC0500EDB2002D6C
:107010000CD1002103A8FEF701FE0500EDB2002D02
:1070200000D10725EDB2042D00D10025EDB2002DD1
:1070300016D18BA8FEF75AFE0500EDB2002D07D140
:10704000002C05D02100DDF82C04FEF78AFB05009A
:10705000EDB2002D04D1DDF82C04FEF7E4F90500B3
:107060002800C0B20DF58A6D70BD2DE9FC41040009
:107070000F00904600262500FFE7781E864213DAAF
:1070800000AB012201A94046FFF7CCFA0098012885
:107090000AD19DF80400C0B20D28EED028706D1CF6
:1070A000761CC0B20A28E8D100202870002E00D13A
:1070B00000242000BDE8F68180B50100C9B229484E
:1070C0000818007AC9B2274A12EB81014968496859
:1070D0008847C0B202BD80B501000020C9B2214A74
:1070E0008A5C002A0ED10120C9B21E4A8854C9B256
:1070F0001C480818007AC9B21A4A12EB8101496883
:1071000009688847C0B202BD38B50400E4B215482A
:107110002018007AE4B2134D15EB84046468A46867
:10712000A047C0B232BD38B50400E4B20D48201803
:10713000007AE4B20B4D15EB84046468E468A04760
:10714000C0B232BD10B50300C9B2DBB20548181891
:10715000007ADBB2034C14EB83035B681B6998472E
:10716000C0B210BD604300202DE9F04F82460FF2FF
:107170007C60A5B017461D46D0E90023CDE9122357
:1071800004AE0020049170620DF1500800E04F44FD
:107190000020ADF8020012AB4FF0FF3239460DF17E
:1071A000020001F064F88146B9F1010F08DA38787D
:1071B000B0F1010969EB09096FEA09004FEAD079DA
:1071C000BDF8020025280CBFA9F1010BCB46BBF18D
:1071D000010F0EDB3C4614F8011B0498D0470490C5
:1071E000002800F0FD82706A401C7062BBF1010B48
:1071F000F1D1BDF80200252807D10020F0603061F0
:107200007061B061F061306205E00028BFD1706A42
:10721000E8E240F0010017F8011F2029F9D02329E6
:107220000DD02B2904D02D2906D030290AD00CE00E
:1072300040F0020080B2EEE740F00400FAE740F0D0
:107240000800F7E740F01000F4E72A290DD129687B
:107250000A1D2A600968F162002904D5494240F0FC
:107260000400F16280B27F1C13E00021F1620BE0A8
:10727000F16A6FF00043994205D001EB810302EB04
:1072800043013039F1627F1C3A78A2F130010A29BA
:10729000EED339782E2903D04FF0FF31B1621EE0D2
:1072A00017F8011F2A2906D129680A1D2A607F1CA8
:1072B0000968B16213E00021B1620BE0B16A6FF0BE
:1072C0000043994205D001EB810302EB43013039C1
:1072D000B1627F1C3A78A2F130010A29EED33086E0
:1072E0000FF21050397800F0E3FF08B117F8010BE6
:1072F0008DF842009DF84200682802BF397868295D
:10730000622005D06C2804BF38786C2803D1712026
:107310008DF842007F1C14A8B0603978B1F12500C7
:107320002AD01C3800F0C680001F022840F2C2801C
:10733000133800F0EA80093800F0BC80801E00F0AD
:107340007D81401E00F02681401E022840F2B2805E
:10735000001F00F01F81401F00F08180401E00F0E0
:10736000D480401E2AD0C01E0BD0801E00F0CD80DD
:10737000C01E00F0CA8081E1F068411CF160252147
:1073800086E19DF842006C28286813D0011D296011
:107390000068B26A7060002A02D500F0A3FF07E01F
:1073A000002100F0BFFF00281ABF7168401AB06AC0
:1073B00030616FE1011D2960026858E12868011DF4
:1073C000296000210068CDE902014FF03C0E14A8AD
:1073D0007060DDE9020111B908B9B26ACAB10206EA
:1073E000120FA0EB02123032AEF10103D2B29E4670
:1073F0003A2AA8BF2732000903F8082040EA0170A2
:10740000090908BF002804D0726814AB73449A427B
:10741000E5D314A971447160CEF13C00B16A3061CA
:10742000884207DA081AB0614FF6EF71308E0840D3
:1074300030862FE1002940F12D8196F8301001F0BF
:107440001401102940F02681F16AF268891AB269A4
:10745000891A081A0128C0F21D81B0611AE19DF84D
:107460004200622818D0682806D06A280BD06C2801
:1074700019D0712807D016E02868011D296000681E
:10748000716A018006E12A68101D28601268706A1E
:10749000C117C2E90001FDE02868011D29600068EC
:1074A000716A0170F6E02868011D29600068716A40
:1074B0000160EFE02868C01D20F00700286000F19F
:1074C00008022A60D0E90023CDE90223002B04D56D
:1074D000F068421CF2602D220DE0308E820704D548
:1074E000F068421CF2602B2205E0C00705D5F06869
:1074F000421CF260202200F80820F06814AA8018CC
:10750000706002A800F0A4FBC4E09DF842006C2863
:1075100008BF2A6811D0712808BF2A6802D02A68DB
:107520006A280AD1D21D22F007022A60144604F10B
:1075300008022A60D4E9002303E0131D2B60002316
:107540001268CDE90223682808BF92B207D06228EA
:1075500008BFD2B203D0742818BF7A2802D1002302
:10756000CDE9022396F8300000075FD5DDE902235C
:10757000002B08BF002A59D041F02000782855D1AF
:10758000F068302200F80820401C421CF26000F82D
:1075900008104BE09DF8420062280CD0682810D0FB
:1075A0006A281AD06C2823D0712816D074281FD0CE
:1075B0007A280CD01CE02868021D2A6090F900206F
:1075C0001AE02868021D2A60B0F9002014E028683B
:1075D000021D2A60002302680FE02868C01D20F009
:1075E0000700286000F108022A60D0E9002304E0C7
:1075F0002868021D2A600268D317CDE90223002BF8
:1076000004DAF068421CF2602D220DE0308E820711
:1076100004D5F068421CF2602B2205E0C00705D5B6
:10762000F068421CF260202200F80820F06814AADA
:107630008018706002A800F062FA2BE09DF842000A
:107640006C2807D0F068411CF16029680A1D2A6087
:1076500009681DE02868011D296001AA0068ADF8CD
:1076600004000020ADF806004FF0FF30B06202A920
:10767000504600F0C3F800280CD5B1E0F068421C79
:10768000F260252200F8082021B1F068421CF26067
:1076900000F80810F06AF168401AB169401A3169BF
:1076A000401AF169401A7169401A316AA0EB010968
:1076B00096F830007F1C400710D420208DF8000081
:1076C000002409E0012300AA02A9504600F0ABFD06
:1076D000002840F08580641C4C45F3DBF4680DF114
:1076E000500B0AE01BF8011B0498D04704900028B7
:1076F00076D0706A401C7062641E002CF2D130207B
:107700008DF800004FF0000BB46909E0012300AAD6
:1077100002A9504600F087FD002861D10BF1010B52
:10772000A345F3DB3469D6F804B00AE01BF8011B6B
:107730000498D0470490002852D0706A401C7062B0
:10774000641E002CF2D130208DF800004FF0000BA9
:10775000F46909E0012300AA02A9504600F063FD84
:1077600000283DD10BF1010BA345F3DB30697168B3
:10777000746900EB010B09E01BF8011B0498D0476A
:10778000049068B3706A401C7062641E002CF3D1D0
:1077900030208DF800004FF0000B346A08E0012320
:1077A00000AA02A9504600F03EFDC8B90BF1010B3A
:1077B000A345F4DB96F8300040077FF5E9AC2020C4
:1077C0008DF80000002400E0641C4C45BFF6E0ACDE
:1077D000012300AA02A9504600F025FD0028F3D09D
:1077E0004FF0FF3025B0BDE8F08F00000000000032
:1077F00000000000686A6C747A4C00002DE9F44FB8
:107800000D4694B0D5F830B08046BBF1000F48BFAC
:107810006FF0004B00F0B2FD696B401801900FF65D
:107820003420D0E90023CDE9022395F83800400741
:1078300002D40198412806D240200DF1100A01908F
:107840004FF0000909E000F09FFD5FEA000AF7D160
:107850004FF0FF3050E1ABEB040BBBF1010FC0F276
:10786000C5801498018802AA0DF1010000F0E6FD20
:107870000446002800F1CD801498008810B9641ED9
:1078800000F1C780A345C0F2B18068690199221850
:10789000914280F09980C5F834904042296A401A9C
:1078A000A969401A696A401AE969401AA96AA0EBF5
:1078B000010995F83800400710D420208DF8000009
:1078C000002609E0012300AA2946404600F0ABFC4F
:1078D000002840F09E80761C4E45F3DB6B695246D3
:1078E0002946404600F09FFC002840F0928030205E
:1078F0008DF8000000272E6A09E0012300AA29461E
:10790000404600F090FC002840F083807F1CB74286
:10791000F3DBAE69EF680AE017F8011BA868C047FF
:10792000A860002875D0E86A401CE862761E002E28
:10793000F2D130208DF8000000276E6A08E00123A4
:1079400000AA2946404600F06EFC002861D17F1C49
:10795000B742F4DBA869E968EE6947180AE017F84E
:10796000011BA868C047A860002852D0E86A401CE4
:10797000E862761E002EF2D130208DF8000000273C
:10798000AE6A08E0012300AA2946404600F04BFCFD
:1079900000283ED17F1CB742F4DB95F83800400741
:1079A0000ED520208DF80000002607E0012300AA54
:1079B0002946404600F037FC58BB761C4E45F5DBA7
:1079C0004FF00009C5F81490224668690DF10101D5
:1079D000504400F041FD6869201868611498801CCB
:1079E0001490801E008800287FF435AF686B6969A9
:1079F000401A296A401AA969401A696A401AE96955
:107A0000401AA96A471A95F83800400710D4002494
:107A10000CE04FF0FF3968E0A8682021C047A8605B
:107A20000028F6D0E86A401CE862641CBC42F3DB24
:107A30006B6952462946404600F0F5FB0028E8D124
:107A40002C6A002609E0A8683021C047A8600028F9
:107A5000DFD0E86A401CE862761CA642F3DBAB6923
:107A6000EA682946404600F0DEFB0028D1D16C6A66
:107A7000002609E0A8683021C047A8600028C8D0C7
:107A8000E86A401CE862761CA642F3DBA869E96854
:107A9000EB6942182946404600F0C5FB0028B8D1E2
:107AA000AC6A002609E0A8683021C047A860002819
:107AB000AFD0E86A401CE862761CA642F3DB95F87A
:107AC000380040070DD5002409E0A8682021C047F0
:107AD000A86000289DD0E86A401CE862641CBC4293
:107AE000F3DBC5F81490C5F8349004A882451CBF98
:107AF000504600F0EDFC484615B0BDE8F08F2DE98A
:107B0000FA4E05460A462F696F2A08BF082405D099
:107B100041F02000782814BF0A241024D5E9000180
:107B20003C2681468B46642A18BF692A05D1002964
:107B300003DAD9F100096BEB4B0BBBF1000F08BF67
:107B4000B9F1000F0CD1286B50B9082C36D195F83B
:107B50003800000732D530203B2687F83B002DE067
:107B6000E31748465946224600F0F2FCA4FB0023E6
:107B7000A9EB02023032A6F1010AD2B256463A2AE5
:107B800003DB9DF80030513B9A180AF80720814624
:107B90005FEA010B08BFB9F1000F03D0E868F119E3
:107BA0008842DDD3082C09D195F83800000705D5A7
:107BB000F05D302802D0761E3020F055C6F13C0032
:107BC000A861F119E960296B884208DA081A28626D
:107BD0004FF6EF71288F08402887BDE8F38E002903
:107BE0000ED595F8381001F01401102908D1696BF1
:107BF0006A69891A2A6A891A081A0128A8BF28629C
:107C0000BDE8F38E2DE9D04306460F4614464FF0EB
:107C10000008DFF8389012E0E00707D542464B46EF
:107C20003046394600F00CFD06460F4664104046CB
:107C3000494642464B4600F003FD80468946002CEB
:107C4000EAD130463946BDE8D08300000000244028
:107C50002DE9F04F04468FB08846D4E90001CDE904
:107C6000020148F0200904ADB9F1610F0AD0206B80
:107C7000002848BF062004D408BFB9F1670F01D11E
:107C8000012020636168C1F30A5040F2FF72904204
:107C90001AD1080304BF2068002808D10320A0617E
:107CA000A8F161001A2834D30FF2BC5107E0032079
:107CB000A061A8F161001A2828D30FF2A451E0684E
:107CC000032200F0C9FB86E1012815DA204600F006
:107CD00088FD012810DB00270020B9F1610F1FD1BA
:107CE000E168302201F8012B4A1CE260B8F1610F13
:107CF0000CBF782258220FE0626840F2FE3161F337
:107D00001E52471A62604FF0FF30E6E70FF24C5107
:107D1000D5E70FF25051D2E70A706169891C6161A1
:107D200010B9002600274EE1B9F1610F40F09880AC
:107D3000206B00284CBF2126461CDDE90201D4E956
:107D400000590022002336B200F06CFD06F1010A52
:107D50003ABF89F00040CDE90250CDE902593F1FFA
:107D60008DF810200DF1110501E000F20705BAF1C0
:107D7000010F34DBDDE902010022002300F06AFD7F
:107D80002DD21C2102A800F07DFDDDE9020100F0EA
:107D9000FFFDAAF1070A8146BAF1010F09DB00F0E5
:107DA00023FE02460B46DDE9020100F035FECDE977
:107DB000020105F20700072105E009F00F0200F8B3
:107DC000012D4FEA2919B9F1010F01DB491EF4D544
:107DD000491E5CBF002200F8012DF9D5C5E70DF161
:107DE0001100291A0DF11105B142B8BF0E4636B285
:107DF00030002ED4884206DA04A9411849780829AF
:107E0000A8BF0F2100DA002104AA821800E0761E24
:107E100012F80139401E8B42F9D00F2904D104A970
:107E200041184A78521C4A70002802D504AD761CCD
:107E30003F1D36B2701E0CD44119A8F13A030A78DE
:107E40003032D2B23A2AA8BF9A1801F80129401E4E
:107E5000F5D5206B002840F1B680701E2063B2E09B
:107E6000DDE902010022002300F0DCFC3CBF81F0D0
:107E70000041CDE902013FB247F2975078433149C2
:107E800090FBF1F73FB2C7F10702012A04DBDDE9FD
:107E90000201FFF7B7FE0AE0524200202A49FFF72D
:107EA000B1FE02460B46DDE9020100F075FECDE9A8
:107EB0000201B9F1660F0CBF07F10A000620216B21
:107EC0004618142EA8BF132630208DF810000DF18F
:107ED0001105DFF878B0012E3ADBDDE9020100F090
:107EE0006DFD05F1080104220A23B0FBF3F303EB57
:107EF0008305A0EB4500303001F8010D0A20B3FBEB
:107F0000F0F000EB8005A3EB4503303301F8013DB1
:107F1000521EE9D1083E01F10805012EDBDBDDE947
:107F2000020100F04BFD00F069FD02460B46DDE961
:107F3000020100F071FD00225B4600F081FBCDE9FB
:107F40000201CAE7A08601000000F03F84D79741F4
:107F50000DF11100281A0DF1110502E0401E7F1EDF
:107F60006D1C29783029F9D0B9F1660F02D13FB2E2
:107F7000791C04E0B9F1650F0CBF01210021226BCF
:107F80008E1836B2B042B8BF064636B231001AD4A7
:107F9000814204DA485D3528A8BF392000DA302054
:107FA0004A19521E00E0761E12F80139491E83421A
:107FB000F9D0392802D1485D401C4855002902D526
:107FC0006D1E761C7F1C3FB2009733B22A46414695
:107FD000204600F003F80FB0BDE8F08F2DE9F04720
:107FE00086B006468A4690461D4600F016FF406A57
:107FF000376B90F80090012D02DA01250FF26C2802
:108000004AF02000BDF93840662808BF641C12D031
:10801000672875D114F1040F78DBBC4276DA96F844
:108020003800641C000702D4BD42B8BF2F4624B2FA
:108030003F1B48BF0027F068B16924B2012C21DA48
:1080400030234A1C0B54012F03DA96F83810090725
:1080500002D502F80090521CB261E742B8BF7C42E0
:1080600024B26142E7197162AF42B8BF3D462DB2FA
:10807000F5612A46B3694146181800F0EDF9781BFE
:10808000B062B9E00818A54216DA2A46414600F067
:10809000E3F9B1696918B161601B7062012F03DAFD
:1080A00096F83800000705D5F06801F80090F069EF
:1080B000401CF061B7629FE02246414600F0CCF9D7
:1080C000B06920182D1B012F03DA96F83810090724
:1080D00003D5F16800F80190401C2DB2B061AF42A9
:1080E000B8BF3D46F3682DB22A4604EB0801C0181C
:1080F00000F0B2F9B0692818B061781B70627BE0BB
:10810000BAF1610F14D14FF0700A16E0BD4204DAE3
:1081100096F83810090758BF2F467F1E48BF002722
:10812000BAF1670F14BF4FF0450A4FF0650A04E03B
:10813000BAF1410F08BF4FF0500AB169F06818F862
:10814000013B0B544A1C012F05DA96F83810090739
:1081500058BFB26115D502F80090531CB361012FCE
:108160000FDB6D1E2DB2AF42B8BF3D462DB22A4681
:108170004146181800F070F9B0692818B061781BF2
:108180007062B069F16800EB0108200008F801ABEB
:1081900003D42B2008F8010B03E02D2108F8011B64
:1081A0006442002502AF08E00A2200A800F04EFE5B
:1081B000019807F8010B6D1C009C21B20129F3DA2C
:1081C000022D06DA4AF02000652804BF302008F8A6
:1081D000010B4DB9302008F8010B07E06D1E02A815
:1081E000285C303008F8010B012DF7DAB069F1682E
:1081F0004018A8EB0000F06196F8380000F0140079
:1082000010280DD17069B1690818716A0818F169F0
:108210000818B16A0818716B8842BCBF081A30622E
:1082200006B0BDE8F087F8B504460D4616461F4671
:10823000002004E0E86A401CE8627F1E002047B18D
:1082400016F8011BA868A047A8600028F2D14FF0DB
:10825000FF30F2BD00000000000000006E616E0003
:108260004E414E00696E6600494E46003000F8B53A
:1082700004460D4616461F4600F0F9FD3B463246C1
:108280002946204601B0BDE8F04000F006BE50F897
:10829000041B61B150F8042BD30744BFA9F10103BB
:1082A0009A18002342F8043B091FFAD1EFE7704700
:1082B0000278C9B28A421AB11CBF10F8012FF9E73F
:1082C00018BF0020704703681AB95A1E026008469A
:1082D0007047197811B94FF0FF307047591C016091
:1082E0001878704700F10103810704D010F8011BD2
:1082F00089B18107FAD10268B2F10131914311F0DD
:10830000803F04BF50F8042FF6E710F8011B11B1AD
:1083100010F8011BFBE7C01A70470268531C03608A
:1083200011707047C9B2830706D0521E22D310F8CD
:10833000013B9942F7D11FE0083A13D302F104023E
:1083400041EA012141EA014150F8043B121F21BFDB
:108350004B40A3F1013C2CEA030C1CF0803FF3D00E
:10836000C9B2001F083210F8013B521E28BF91EA23
:10837000030FF8D818BF0120401E704780B500F0E9
:1083800076FD012002BD010270B5054605F10F0022
:10839000C408E400C046C046A54232D2082C04D22C
:1083A000082402E0083000F093F823480268110026
:1083B0000CD1011D0A6802B31368A34238BF111D16
:1083C000F8D310E01D68A5420DD2191D0B68002BD3
:1083D000F8D11268011D00E0191D0B6893420CD002
:1083E0001D68A542F8D361B10D682A68A2F108039F
:1083F000A3420AD26A680A6010E000F071FD00280A
:10840000D0D1C046C046002070BD63190B60121B5E
:108410000E686B6873600B681A602C60096800292D
:108420001DBF4A68002A091D00210160C046C046E0
:1084300005F1080070BD00007843002070B50446C7
:108440000D46164600F013FD324629462046BDE88B
:10845000704000F015BD000062B38B0708D0521EBB
:1084600011F8013B00F8013B00F024808B07F6D1A6
:10847000830740F0208000BF103A07D330B4B1E842
:108480003810103AA0E83810F9D230BC530724BF96
:10849000B1E80810A0E8081044BF51F8043B40F8C8
:1084A000043BD20724BF31F8022B20F8022B44BF33
:1084B0000B7803707047083A07D3B1E80810083A00
:1084C00040F8043B40F804CBF7D25307E4E7000040
:1084D00000B9704710B5A0F108042068082833D30C
:1084E00010F0070F30D1C046C0461848416809B1A6
:1084F0008C4203D26160446017E019464B680BB1AF
:10850000A342FAD30A6853189C421BD3A34204D156
:1085100023689A180A600C4607E04A681AB1236873
:108520001B199A420ED362604C60616851B1226897
:1085300013198B4206D1002303600868801820605D
:1085400048686060C046C04610BD00007843002007
:108550001B4213D1094236D12AB18446B0FBF2F056
:1085600002FB10C2704700F0D1BCFCD300220023F4
:1085700070470B000200002100207047904271EB11
:10858000030CF6D370B5B1FA81F4B3FA83F52C1B62
:10859000A340C4F1200532FA05F63343A2405FF050
:1085A0000046E64002E05B085FEA3202841A71EBA3
:1085B000030524BF204629467641F4D302000B0070
:1085C0003000002170BD012ACFD970B5140C20D025
:1085D000B1FA81F4B2FA82F5C4F120046419B4F15D
:1085E0002006D6D3B2405FF00044F440002502E0FC
:1085F00052085FEA3303C61A71EB020E24BF3046FD
:10860000714664416D41F3D302000B002000290044
:1086100070BD0C46B1FBF2F102FB11452D0445EA99
:108620001045B5FBF2F402FB145580B240EA054553
:10863000B5FBF2F002FB105240EA044070BD0000AE
:10864000B0B581EA030C0CF0004C40F2FF7515EA5E
:1086500011541DBF15EA1357AC42AF4239E0E4197B
:1086600023EA455343F48013C90241F0004141EA33
:10867000505EC7021100A7FB020200284FF0000065
:10868000EEFB01204FF00001E3FB072118BF42F091
:108690000102401800214941E3FB0E01A4F580646A
:1086A0000F0302D252004041494154F101046CDDF4
:1086B000470872F1004250F1000051EB0451A1F55E
:1086C00080115CBF41EA0C01B0BD4CEA05510020AD
:1086D000B0BD05EA1357AC4214BFAF4241E050EAC7
:1086E000410E1CBF52EA430E02E061460020B0BDBD
:1086F00024423C441BD15FEA070EF6D0090302BFB7
:1087000001460020AEF1140EB1FA81F7AEEB07047A
:1087100001FA07FE0C37C7F1200100FA07F7C8403D
:108720004EEA000E23EA455343F48013A2E733F0E8
:108730000043B3FA83F704BFB2FA82FE77440B3FDB
:10874000E41BB7F1200E2FBF02FA0EF3BB40C7F1B6
:10875000200E22FA0EFE38BF43EA0E03BA40641C14
:1087600082E750EA410E14BF52EA430E6FF0000157
:108770004FF4001717EB430F8ABF194617EB410F51
:10878000B5E74CEA05510020B0BDD4F10104B4F1C5
:1087900020070FDAC4F12007520828BF42F0010277
:1087A00010FA07F501FA07F7E1BF2A43E040384322
:1087B000E1400FE0352C98DCC7F1200452EA40027A
:1087C00020FA07F218BF42F0010231FA07F0A14087
:1087D0000A43002172F1004250F1000051EB0C01FC
:1087E000B0BD30B4436803F0004201211B031B0BF2
:1087F000436004BF0368002B08D10DE00368DD0F60
:1088000045EA440444605B000360491E4468E30297
:10881000F4D523031B0B436043681A4342600846A8
:1088200030BC70474FF4001C1CEB410F94BF1CEB95
:10883000430F09E041EA030C50EA4C0C52EA0C0CDD
:1088400003D2994208BF9042704714BF8B428242C4
:10885000704700004FF4001C1CEB410F94BF1CEB51
:10886000430F09E041EA030C50EA4C0C52EA0C0CAD
:1088700003D28B4208BF8242704714BF9942904294
:108880007047000070B504460D466068C0F30A509A
:1088900040F2FF71884207D16068000304BF20687E
:1088A000002817D0022070BD20B92046FFF799FF9D
:1088B000012867DA012D0FDB40F2FF71091A8D42A2
:1088C0000AD36068002847BF00202F4900202F49A5
:1088D000C4E90001012070BD4142A942616806DA85
:1088E0006FF31E51401941EA0050606041E0401EA4
:1088F00063680122451962F31F5305F1350001F049
:1089000000416360352803D361600020206070BDA2
:10891000002215F11F0F04DA2268236000202035A1
:108920006060684213D0521E25689241C0F1200356
:10893000D2439D4045EAD27225686668C54006FA72
:1089400003F32B432360636823FA00F060606068E0
:1089500008436060B2F1004F03D80DD12078C00702
:108960000AD52068401C2060206828B96068401C37
:1089700060604FF0FF3070BD6068884204BF2068BF
:108980000028F6D1002070BD0000F0FF0000F07F4D
:10899000F446400D40EAC120490006D200F014F828
:1089A000004248BF6FF00040604700F00DF84FF004
:1089B000004188428CBF084640426047400D40EA73
:1089C000C120490080F00D8040F00040490DA1F524
:1089D0008061491C05D4D1F11F0154BFC840C017A4
:1089E00070474FF000007047010040F10980F446E5
:1089F000404200F005F851F000416047010000BF1F
:108A000009D0B0FA80F18840C91CC1F5846109051C
:108A100001EBD0214005704770B44FF0004591EA5A
:108A2000030F44BF6B4000F07DBA00BF841A71EBA6
:108A3000030604D26E40001BB141121973414FF47A
:108A4000001C1CEB410F34BF7CEB430684E00C0D93
:108A5000A4EB1356362E7DDC012E43DC45EAC323FE
:108A600043EA525312BFD20292025B08240545EA40
:108A7000C12141EA5051D2EBC020994125D407D100
:108A8000B0FA80F610FA06F164D00020203608E033
:108A9000B1FA81F6B140C6F1200220FA02F2114388
:108AA000B0404FEAF474B4EB465434F001064FEA98
:108AB00074040AD8D6F50016760D04F00044F04090
:108AC00061FA06F25040F1404840C00A40EA415085
:108AD00021F0004128BF5FEA500550F1000044EB4F
:108AE000D12137E045EAC323DB0A45EAC121C90A9F
:108AF000B6F120050EDD42EA0242120CC5F1200655
:108B000003FA06F6EB4042EA06056D42984161F130
:108B100000010DE062FA06F5F240554063FA06FCEA
:108B200082EA0C02F3405A406D42904161EB03012E
:108B300011F4801F05D1641E620502D06D00404112
:108B4000494121F48011430875F1004350F10000C0
:108B500041EB045170BC70471CEB410F15D223F060
:108B6000004352EA43060BD04FEA4C0CBCEB410FDA
:108B700004D80C0D661E342EB7DDEBE7801A994140
:108B800050EA410608BF0021E4E708BF1CEB430F91
:108B900028BF6FF00001DDE7F0B540F2FF7581EA14
:108BA000030C0CF0004C15EA11541DBF15EA1357C5
:108BB000AC42AF42E5E0BC41C1F31301C3F3130380
:108BC000801A994143F4801304D2641E4000494145
:108BD00080185941C90241EA5051B1FBF3F603FB39
:108BE0001611A2FB0675D7EBC020A94102D2761E52
:108BF00080185941C90241EA5051B1FBF3FE03FB11
:108C00001E11A2FB0E75D7EBC020A94103D2AEF115
:108C1000010E80185941890241EA9051760546EAD1
:108C20008E2EB1FBF3F603FB1611A2FB0675D7EBF4
:108C30008020A94102D2761E80185941C90241EA1A
:108C400050514EEA060EB1FBF3F603FB1611A2FBE0
:108C50000675D7EBC020A94102D2761E8018594173
:108C6000C90241EA5051B1FBF3F703FB1711A2FB14
:108C70000735D3EBC020A94167F100070CBF0042C4
:108C800047F0010766F3D5274FEA1E31B80814F5FF
:108C9000806412DDBD0775F1004250EB0E5051EBC0
:108CA000045111F5801F5CBF41EA0C01F0BD4CF08E
:108CB0007F6141F0E0410020F0BDBD076D0840EA52
:108CC0000E5041F48011D4F10104B4F120060ADA07
:108CD000C4F120060200E04001FA06F3E140184327
:108CE000B24015430EE0342C13DCC6F1200445EAF3
:108CF00040056D0820FA06F2154321FA06F0A1405E
:108D00000D43002175F1004250F1000051EB0C01C0
:108D1000F0BD00205FEA0C01F0BDCFB992185B41B5
:108D2000B3FA83F704BFB2FA82F6BF190B3FB7F16B
:108D300020062FBF02FA06F3BB40C7F1200622FA35
:108D400006F638BF3343BA401CB1E419641E33E75A
:108D50007F4231F00041B1FA81F404BFB0FA80F6ED
:108D6000A4190B3CB4F120062FBF00FA06F1A14074
:108D7000C4F1200620FA06F638BF3143A0403C1B60
:108D80001AE7AC421ABF05EA1357AF4212E050EAA5
:108D900041061CBF52EA4306BFE750EA410730468E
:108DA00061461CBF41EA0551F0BD52EA430C08BFC1
:108DB000C143F0BD00204FF4001616EB410F98BFE1
:108DC00016EB430F08BF16EB410F24BFC14305E06C
:108DD00016EB430F0CBF61464CEA0551F0BD000095
:108DE00080B5134800F008F90FF2480101604160B6
:108DF0008160C1600161416181610FF23C024262A8
:108E00008162C162016341630FF2300282630FF23B
:108E10003402C2630164416401BD10B5044800F02E
:108E2000EBF80446206808B9FFF7DAFF204610BDCA
:108E300000000020000000002E00000066616C733E
:108E400065000000747275650000000091FBF2F38C
:108E500003FB1211C0E900317047000010B5044651
:108E6000DFF8180000F0C8F850F8240010BD80B5F5
:108E7000DFF8080000F0C0F8806902BD9000002013
:108E800030B430B90FF24800D0E90045C2E90045DE
:108E90001BE00170012030BC704730B431B90FF2D3
:108EA0003800D0E90045C3E900450EE01AB930BCEE
:108EB0006FF00100704708B10A7802800978481EF7
:108EC000804130BCC043C00F7047002030BC7047A9
:108ED0000000000000000000000000000000000092
:108EE0000749086808B1002070470648C008C0005C
:108EF00008600549C908C900091A0160704700BF28
:108F00008C430020AF530020A85B00207047000076
:108F100070B44FF0004591EA030C44BF6B40FFF77B
:108F200085BD00BF841A71EB030603D2001BB1415B
:108F3000121973414FF4001C1CEB410F34BF7CEB42
:108F4000430443E00C0DA4EB1356352E50DC45EAE8
:108F5000C323DB0A45EAC121C912B6F120050DDDA4
:108F600063FA05F6EB4086EA0305124218BF45F0A6
:108F70000105C01851F100010CD213E062FA06F5A8
:108F8000F2405540F3415A40B340F3405A408018F4
:108F9000594107D349085FEA30005FEA350528BF29
:108FA00045F0010501F58011420875F1004250F1CC
:108FB000000041EB045170BC4FF4001C1CEB410F4E
:108FC00038BF70470020090D090570471CEB410FA1
:108FD00010D252EA43060BD0BCEB410F05D80C0D62
:108FE000AB43661E342EB5DD02E0AB438018594119
:108FF00070BC704770BC70477047000010B504002B
:10900000002C01D1012016E094F83400002804D18E
:1090100000202077200000F056F8032084F8340068
:10902000200000F009F80020A06300202063012048
:1090300084F83400002010BD30B589B0050000244C
:10904000002003900020049000200590002006904E
:1090500000200790C320089003A983B06846182217
:10906000FFF70AFA0EBC286800F00CFE0020DFF8BB
:10907000D0140860286800F024FE0120DFF8C01436
:109080000860022001F0DFF9280000F06AFC04000B
:10909000002C07D0012085F83400A86B2043A8637A
:1090A00001200EE0280000F0DBFB0400002C07D0BC
:1090B000012085F83400A86B2043A863012000E05C
:1090C000002009B030BD70472DE9F04786B004009C
:1090D000884615001E005FF0000901F0B1F9070095
:1090E0005FF0000AB8F1000F05D1A06B50F00060EE
:1090F000A063012006E194F83400012840F0FD80CF
:109100000020A063E06D7119884205D2A06B50F079
:109110000070A0630120F5E0032084F834000020F3
:109120002168C862606C012802D04FF4007045438A
:109130004FF40071206800F003FE8146B9F1000F82
:109140000CD040F2FF5021688863A06B59EA000000
:10915000A063012084F834000120D3E05FF0FF30E9
:1091600000904FF4007000FB06F0019090200290F8
:1091700002200390002004900120059000A920689F
:1091800000F0C8FD022E07D30220206329002068CA
:1091900000F00EFE814606E00120206329002068D1
:1091A00000F0EAFD8146B9F1000F00F0AE8040F218
:1091B000FF5021688863A06B59EA0000A06301207A
:1091C00084F8340001209DE0206800F072FD48F82A
:1091D0002A001AF1010ABAF1080FF5D318F1200894
:1091E000002D05D001F02CF9C01BA842C0F08E80E4
:1091F00040F2FF5021688863A06B50F00040A063EC
:10920000012084F8340003207CE02068406BC00516
:1092100018D5022E16D3606C032813D0206800F0F6
:109220001BFE8146B9F1000F0CD040F2FF502168BF
:109230008863A06B59EA0000A063012084F8340021
:1092400001205FE02068406B00070CD540F2FF5022
:1092500021688863A06B50F00800A063012084F8A7
:10926000340001204EE02068406B80070CD540F2AE
:10927000FF5021688863A06B50F00200A0630120BA
:1092800084F8340001203DE02068406B80060CD556
:1092900040F2FF5021688863A06B50F02000A0636B
:1092A000012084F8340001202CE02068406B80020B
:1092B0001AD5206800F0FDFCC8F8000018F1040879
:1092C000002D04D001F0BCF8C01BA842EDD340F241
:1092D000FF5021688863A06B50F00040A06301201C
:1092E00084F8340001200DE040F2FF5021688863CB
:1092F000012084F83400002004E0A06B50F00050FE
:10930000A063012006B0BDE8F0870E9D2068406B89
:1093100040F22A3108427FF478AF2068406B0004A5
:109320007FF55EAF5FF0000A55E72DE9F04786B0A4
:109330000400884691461D00002601F081F80700D0
:109340005FF0000AB8F1000F05D1A06B50F000608B
:10935000A0630120F0E094F83400012840F0E78099
:109360000020A063E06D15EB0901884205D2A06BD7
:1093700050F00070A0630120DEE0032084F8340088
:1093800000202168C862606C012803D04FF400708F
:1093900000FB09F94FF40071206800F0D1FC0600D1
:1093A000002E0BD040F2FF5021688863A06B304341
:1093B000A063012084F834000120BDE0022D07D312
:1093C000202020634946206800F02AFD060006E0C0
:1093D000102020634946206800F006FD0600002E9C
:1093E0000BD040F2FF5021688863A06B3043A0632C
:1093F000012084F8340001209EE05FF0FF300090EF
:109400004FF4007000FB05F00190902002900020C6
:109410000390002004900120059000A9206800F02E
:1094200079FCDDF838902068406B40F21A31084230
:1094300026D12068406B40040ED55FF0000A06E09C
:1094400018EB8A01206800F037FC1AF1010ABAF122
:10945000080FF5D318F12008B9F1000F04D000F07F
:10946000EFFFC01B4845DED340F2FF502168886300
:10947000A06B3043A063012084F8340003205BE03C
:109480002068406BC00516D5022D14D3606C0328EC
:1094900011D0206800F0E0FC0600002E0BD040F256
:1094A000FF5021688863A06B3043A063012084F8DB
:1094B0003400012040E02068406B00070CD540F2EA
:1094C000FF5021688863A06B50F00800A063012062
:1094D00084F8340001202FE02068406B80070CD511
:1094E00040F2FF5021688863A06B50F00200A06337
:1094F000012084F8340001201EE02068406BC00683
:109500000CD540F2FF5021688863A06B50F010002A
:10951000A063012084F8340001200DE040F2FF50E8
:1095200021688863012084F83400002004E0A06BE7
:1095300050F00050A063012006B0BDE8F0870000A5
:10954000A000304230B40022436E1B0E1A00C2F35A
:1095500081130B70C2F383034B7012F003028A7005
:10956000426EC2F30742CA70426EC2F307220A710A
:1095700090F86420D2B24A71826E120E1201CA8033
:10958000826EC2F30742CB88C2F303142343CB801D
:1095900012F00F020A72826EC2F30722C2F3C013E6
:1095A0004B72C2F380138B72C2F34013CB72C2F3BF
:1095B00000130B7300234B73436C002B40F09E8011
:1095C00012F0030292020A6190F868200B6953EAD4
:1095D00082020A61C26E120ED2B20B69C2F381140A
:1095E00023430B61C2F3C2030B7512F007024A75E5
:1095F000C26E120CD2B2C2F342138B75C2F3820355
:10960000CB7512F0030252000A76C26E120AD2B271
:109610000B7EC2F3C01423430B760B695B1C4365BE
:10962000436D01240D7EAD1CAC40634343650123B3
:109630000C7AA3408365436D846D640A6343C365FC
:109640004FF400730366C2F380134B7612F03F02AF
:1096500052008A7690F86C208B7EC2F3C0142343AC
:109660008B7612F07F02CA76026F120ED2B2C2F36C
:10967000C0130B77C2F341134B77C2F382038B778E
:1096800012F003029200CA77026F120CD2B2CB7FA3
:10969000C2F381142343CB77C2F3401381F8203007
:1096A000002381F8213012F0010281F82220026F9C
:1096B000120AD2B2C2F3C01381F82330C2F380136E
:1096C00081F82430C2F3401381F82530C2F300132F
:1096D00081F82630C2F3810381F8273012F00302AB
:1096E00081F8282090F87020C2F3460081F8290004
:1096F000012081F82A00002030BC7047426C012A0A
:1097000021D190F8682012F03F0212040A61C26E63
:10971000120ED2B20B6953EA02220A61C26E120C17
:10972000D2B20B691A430A61C26E120AD2B20B6935
:109730005B1C4FF4806463434365C3654FF400735F
:10974000836503667FE740F2FF5102689163816B96
:1097500051F080518163012180F834100120CBE762
:10976000426C0A60826C4A60C26C8A60026DCA6098
:10977000426D0A61826D4A61C26D8A61006EC86184
:109780000020704730B589B004000D00002003218F
:1097900084F83410616C03291FD0B5F5805F04D1C3
:1097A000A06B50F08050A0631BE0B5F5006F06D1B0
:1097B000200000F05FF9A16B0843A06311E0002DC9
:1097C00006D1200000F08CF9A16B0843A06308E0EB
:1097D000A06B50F00060A06303E0A06B50F08050DD
:1097E000A063A06B002808D040F2FF502168886376
:1097F000012084F83400012018E060680390A0681C
:109800000490E0680590069560690790A06908904B
:1098100003A983B068461822FEF72EFE0EBC20680E
:1098200000F030FA012084F83400002009B030BD87
:1098300070B582B00400042500260020009000A925
:10984000200000F000F90600002E02D0A06B30438B
:10985000A0630098400A10F00F052800C0B276BD42
:1098600030B58FB0040000250120ADF80C00206851
:1098700000F02BFA002802D15FF080606FE0606C8E
:1098800003281CD0206800F0C6FB0500002D01D085
:10989000280064E00021206800F032FA60670421AB
:1098A000206800F02DFAA0670821206800F028FA4F
:1098B000E0670C21206800F023FAC4F88000606C97
:1098C000032808D003A9206800F0D8FB0500002D6C
:1098D00001D0280043E0606C032820D0BDF80C00C4
:1098E0002065206D0104206800F0AFFB0500002D0D
:1098F00001D0280033E00021206800F001FA606602
:109900000421206800F0FCF9A0660821206800F01E
:10991000F7F9E0660C21206800F0F2F920670421D5
:10992000206800F0EDF9000DE06404A92000FFF7C5
:1099300009FE206D02040023206800F0AAFA050049
:10994000002D01D028000AE0211D83B068461822AE
:10995000FEF792FD0EBC206800F094F900200FB0D5
:1099600030BDF8B504000020009000250026002737
:10997000206800F0AAFA0700002F01D0380061E04B
:10998000206800F0BCFA0700002F2BD00020A06454
:1099900005E00021206800F0B3F90500EE0F002E6D
:1099A0001DD10098411C00914FF6FF71884202D1F1
:1099B0005FF0807046E00021206800F0BBFA0700ED
:1099C000002F02D05FF080503CE00021206800F0C2
:1099D000CDFA0700002FDCD05FF0805032E000208D
:1099E00060642EE00120A06405E00021206800F002
:1099F00087F90500EE0F002E1CD10098411C009144
:109A00004FF6FF71884202D15FF080701AE00021AA
:109A1000206800F08FFA0700002F01D0380011E015
:109A20005FF08041206800F0A1FA0700002FDCD031
:109A3000380007E0680002D50120606401E00020E2
:109A400060640020F2BD38B504000D000020002D38
:109A500002D15FF000600CE0206D0104206800F08E
:109A60002AFB002805D10021206800F049F9286070
:109A7000002032BD30B583B0040000A800210022D0
:109A800006C0083800250021206800F039F980015F
:109A900002D54FF4006022E000A9200000F056F843
:109AA0000500002D01D0280019E00198400314D5CD
:109AB000206D0104206800F03DFA0500002D01D062
:109AC00028000CE00221206800F06CFA0500002D4F
:109AD00001D0280003E0002001E05FF080603EBD7F
:109AE00030B583B0040000A80021002206C0083869
:109AF00000250021206800F003F9800102D54FF411
:109B0000006022E000A9200000F020F80500002DF0
:109B100001D0280019E00198C00314D5206D01047C
:109B2000206800F007FA0500002D01D028000CE0A5
:109B30000021206800F036FA0500002D01D0280031
:109B400003E0002001E05FF080603EBD2DE9F041C0
:109B500088B004000D005FF0000800F071FC060002
:109B6000002700A80021002206C00838082120682C
:109B700000F0E6F88046B8F1000F01D040467EE0E4
:109B8000206D0104206800F0D5F98046B8F1000F7F
:109B900001D0404673E05FF0FF3002900820039050
:109BA00030200490022005900020069001200790AC
:109BB00002A9206800F0AEF8206800F00FFA804695
:109BC000B8F1000F01D0404659E02068406B40F2E8
:109BD0002A41084213D12068406B800206D52068D4
:109BE00000F067F800A941F827007F1C00F028FC6E
:109BF000801B10F1010FE8D15FF000403FE02068CA
:109C0000406B000704D5082021688863082036E0EF
:109C10002068406B800704D50220216888630220F9
:109C20002DE02068406B800604D5202021688863E1
:109C3000202024E040F2FF502168886300980099BA
:109C400011F47F41090251EA00600099090A11F4F8
:109C50007F410843009950EA1160686001980199BA
:109C600011F47F41090251EA00600199090A11F4D7
:109C70007F410843019950EA11602860002008B034
:109C8000BDE8F0810EB40021009A019B1A43029BAB
:109C90001A43039B1A43049B1A43059B1A4311431F
:109CA0004268DFF814371A4011434160002003B0C6
:109CB0007047D0F8800070470968C0F88010002015
:109CC00070470321016000207047006810F0030016
:109CD000704710B400220B6883604B688C68234384
:109CE000CC682343096919430A43C168090B090376
:109CF0001143C160002010BC70470069C0B27047BA
:109D000081B000220092143008180090009800687A
:109D100001B0704710B400220B6843624B68836245
:109D20008B68CC6823430C692343496919430A4370
:109D3000C16A31F0F7011143C162002010BC7047C5
:109D400030B585B00400002500911020019040201E
:109D50000290002003904FF48060049000A920003E
:109D6000FFF7B7FF41F288321021200000F0D8F948
:109D70000500280005B030BD30B585B004000025D1
:109D800000911120019040200290002003904FF498
:109D90008060049000A92000FFF79BFF41F2883209
:109DA0001121200000F0BCF90500280005B030BDED
:109DB00030B585B0040000250091122001904020AC
:109DC0000290002003904FF48060049000A92000CE
:109DD000FFF77FFF41F288321221200000F0A0F946
:109DE0000500280005B030BD30B585B00400002561
:109DF00000911820019040200290002003904FF421
:109E00008060049000A92000FFF763FF41F28832D0
:109E10001821200000F084F90500280005B030BDAD
:109E200030B585B004000025009119200190402034
:109E30000290002003904FF48060049000A920005D
:109E4000FFF747FF41F288321921200000F068F93E
:109E50000500280005B030BD30B585B004000025F0
:109E6000002000900C2001904020029000200390E0
:109E70004FF48060049000A92000FFF72AFFDFF86C
:109E80003C250C21200000F04BF90500280005B00E
:109E900030BD30B585B00400002500920720019048
:109EA00040200290002003904FF48060049000A9AD
:109EB0002000FFF70EFF41F288320721200000F05A
:109EC0002FF90500280005B030BD30B585B004007D
:109ED000002500200090002001900020029000202A
:109EE00003904FF48060049000A92000FFF7F1FE7A
:109EF000200000F0FCF80500280005B030BD30B5AA
:109F000085B0040000254FF4D57000900820019022
:109F100040200290002003904FF48060049000A93C
:109F20002000FFF7D6FE200000F021FA05002800EF
:109F300005B030BD30B585B0040000250091372054
:109F4000019040200290002003904FF48060049024
:109F500000A92000FFF7BDFE41F288323721200022
:109F600000F0DEF80500280005B030BD30B585B042
:109F700004000025DFF848040843009029200190E0
:109F800040200290002003904FF48060049000A9CC
:109F90002000FFF79EFE200000F07EF9050028005B
:109FA00005B030BD30B585B0040000250091062015
:109FB000019040200290002003904FF480600490B4
:109FC00000A92000FFF785FE41F28832062120001B
:109FD00000F0A6F80500280005B030BD30B585B00A
:109FE00004000025002000903320019040200290C2
:109FF000002003904FF48060049000A92000FFF738
:10A0000068FE41F288323321200000F089F8050013
:10A01000280005B030BD30B585B004000025002013
:10A02000009002200190C0200290002003904FF485
:10A030008060049000A92000FFF74BFE200000F094
:10A0400003F90500280005B030BD30B585B0040027
:10A050000025009109200190C0200290002003906B
:10A060004FF48060049000A92000FFF732FE20002A
:10A0700000F0EAF80500280005B030BD70B586B0E4
:10A0800004000D00002600200090032001904020D5
:10A090000290002003904FF48060049000A92000FB
:10A0A000FFF717FE2A000321200000F016F9060032
:10A0B000300006B070BD30B585B0040000250091B9
:10A0C0000D20019040200290002003904FF480600A
:10A0D000049000A92000FFF7FCFD41F288320D2119
:10A0E000200000F01DF80500280005B030BDB5497E
:10A0F0000968C9084FF47A72B1FBF2F141F2883273
:10A1000051430A00511E002A02D15FF0004006E0D0
:10A11000426B1206F5D540F2FF5181630020704773
:10A1200038B504000D00A7480068C0084FF47A71E4
:10A13000B0FBF1F000FB02F00100481E002902D143
:10A140005FF000407FE0616B11F0450FF4D0606B71
:10A15000400703D50420A063042074E0606BC007AF
:10A1600003D50120A06301206DE02000FFF7C5FDAD
:10A17000EDB2A84201D0012065E040F2FF50A0639B
:10A1800000212000FFF7BCFD8F49084201D10020CB
:10A1900059E0002802D55FF0007054E0410001D57D
:10A1A000402050E0810001D580204CE0C10002D564
:10A1B0004FF4807047E0010102D54FF4007042E097
:10A1C000410102D54FF480603DE0C10102D54FF45A
:10A1D000006038E0010202D54FF4805033E04102C4
:10A1E00002D54FF400502EE0810202D54FF480409A
:10A1F00029E0C10202D54FF4004024E0410302D51A
:10A200005FF400301FE0810302D55FF480201AE084
:10A21000C10302D55FF4002015E0010402D55FF40C
:10A22000801010E0410402D55FF400100BE08104BF
:10A2300002D55FF4800006E0000702D55FF400005D
:10A2400001E05FF4803032BD5E490968C9084FF40F
:10A250007A72B1FBF2F141F2883251430A00511E89
:10A26000002A02D15FF0004015E0426B12F0450F6A
:10A27000F4D0416B490703D50421816304200AE02F
:10A28000416BC90703D501218163012003E040F23E
:10A29000FF518163002070474A490968C9084FF49B
:10A2A0007A72B1FBF2F141F2883251430A00511E39
:10A2B000002A02D15FF000400EE0426B12F0450F21
:10A2C000F4D0416B490703D504218163042003E0E6
:10A2D00040F2FF5181630020704770B504000D000B
:10A2E000160038480068C0084FF47A71B0FBF1F0EE
:10A2F00041F2883148430100481E002902D15FF035
:10A30000004033E0616B11F0450FF4D0606B400703
:10A3100003D50420A063042028E0606BC00703D5A8
:10A320000120A063012021E02000FFF7E6FCEDB250
:10A33000A84201D0012019E040F2FF50A0630021A3
:10A340002000FFF7DDFC10F4604F03D1000C3080DB
:10A3500000200BE0410402D54FF4005006E0000459
:10A3600002D54FF4805001E05FF4803070BD154994
:10A370000968C9084FF47A72B1FBF2F141F28832F0
:10A3800051430A00511E002A02D15FF0004010E044
:10A39000426B12F0450FF4D0416B490703D54021C1
:10A3A0008163042005E0416B490601D540218163AA
:10A3B00000207047000000000081FFFF00E1F5056C
:10A3C000000010800001002008E0FFFD80B5264855
:10A3D000006850F0100024490860032000F0B2F833
:10A3E0000F2000F005F800F002F8002002BD7047D1
:10A3F00010B504004FF47A701C490978B0FBF1F0F5
:10A400001B490968B1FBF0F000F0B8F8002801D052
:10A4100001200CE0102C09D2002221005FF0FF3057
:10A4200000F094F813480460002000E0012010BD03
:10A43000114800680D49097808180F4908607047ED
:10A440000D480068704738B50400FFF7F9FF0500B4
:10A4500014F1010F02D0054800780419FFF7F0FF4E
:10A46000401BA042FAD331BD002002400901002068
:10A4700000010020FC0000208843002010F00701AC
:10A48000404800684FF6FF0210403F4A52EA01215F
:10A4900008433C49086070473A480068C0F302200E
:10A4A0007047012110F01F02914040B24009374A25
:10A4B00042F82010704740B2002808D5090140B288
:10A4C00010F00F00324A801800F8041C03E0090164
:10A4D00040B2304A8154704710B410F00700D0F1F8
:10A4E0000703052B01D3042301E0D0F10703041D6A
:10A4F000072C01D2002000E0C01E012414FA03F34F
:10A500005B1E19408140012313FA00F0401E1040E9
:10A51000084310BC704780B5411EB1F1807F01D364
:10A5200001200EE0401E1C4908600F215FF0FF3043
:10A53000FFF7C1FF0020194908600720184908608B
:10A54000002002BD80B5FFF799FF01BDF8B50400FA
:10A550000D0016000027FFF79FFF070032002900BB
:10A560003800FFF7B9FF0100200040B2FFF7A3FF5A
:10A57000F1BD80B540B2FFF794FF01BD80B5FFF794
:10A58000CAFF02BD0CED00E00000FA0500E100E0AA
:10A5900018ED00E000E400E014E000E018E000E066
:10A5A00010E000E0034608460169491E0161C268E7
:10A5B000521C0029C26003D4012200680021184700
:10A5C0004FF0FF307047034608461146C268521EDE
:10A5D00011F1010FC26002D00022006818477047D5
:10A5E0002DE9F04F05460FF614408BB0D0E90089F5
:10A5F000CDE9098901914FF0FF3618680290344681
:10A600000020049003920FF6FC376FF0004809E039
:10A61000002C48BF00249DF8220000B1641C039860
:10A62000401C03900020ADF8000009AB03993246AE
:10A6300000A8FDF71CFE8146012809DA039800787E
:10A64000B0F1010969EB09096FEA09004FEAD07915
:10A65000BDF8000000F0E2FD00F00AFE40B30498EF
:10A66000401C0490012201980021A847824600F076
:10A67000FFFD0028F3D10498401E1AF1010F049049
:10A6800011D0002201985146A8470398BDF8001048
:10A690004844039025292BD101782A2906BF401C64
:10A6A000039000212CE0002C40F18880304686E0A9
:10A6B000BDF8000025280CBFA9F1010BCB46DDF841
:10A6C0000CA0BBF1010BE0D40498401C04900122C3
:10A6D00001980021A8471AF8011B8842F1D00246D0
:10A6E00001A92846FFF76FFF002C67DA002465E018
:10A6F000BDF80000002895D1002C5FDA00245DE051
:10A7000000208DF8201006900AE00698404505D0FC
:10A7100000EB800301EB430030380690501C03909F
:10A72000039A1178A1F130000A28EED30796384633
:10A730001178FDF7BDFD00281DBF039810F8011B1F
:10A74000039000218DF821109DF82100682801BF99
:10A7500003990A78682A622006D06C2802BF039900
:10A7600008786C2804D171208DF82100481C0390D2
:10A77000039801780FF69420FDF79AFDA8B9049884
:10A78000401C0490012201980021A847814600F056
:10A790006FFD0028F3D10498401E19F1010F0490B9
:10A7A00003D0002201984946A84701A9284600F095
:10A7B00009F80128BFF62CAF002C00D420460BB0BE
:10A7C000BDE8F08F70B505460C460020A077A06864
:10A7D0000078253858D01C3823D0001F022820D9F3
:10A7E00013381AD0C01E66D0801F1AD0801E12D017
:10A7F000401E12D0401E022813D9001F0DD0401F4A
:10A8000013D0401E012808D9001F3BD0801E04D061
:10A81000C01E02D055E000224FE02846BDE870403F
:10A82000B6E12846BDE87040ABE2207F002835D174
:10A83000607F622808D0682816D06A280BD06C2860
:10A8400019D0712807D016E06068011D61600068AA
:10A85000E168017022E06268101D60601268E068C3
:10A86000C117C2E9000119E06068011D616000685C
:10A87000E168018012E06068011D61600068E168C4
:10A8800001600BE0012218E00122E068401CE0605A
:10A8900000212068A8470646252E01D1012070BD61
:10A8A000324621462846FFF78EFE16F1010F08D1E9
:10A8B0004FF0FF3070BD4FF0FF322846BDE87040CA
:10A8C00022E0002070BDC9B207E003789942A4BF1E
:10A8D00083788B4213DAC01CD21E032A0AD3437832
:10A8E0002D2BF2D010F8013B8B4218BF521EF4D131
:10A8F00005E0521E2AB110F8013B8B42F9D101202C
:10A9000070470020704700002DE9F04F89B0824663
:10A9100000200D4605900027687F16466C280CBF66
:10A920004FF00108B8460FF6EC02002ED2E9000104
:10A93000CDE9060129D5A868401CA86000785E28EA
:10A9400006D1A868401CA860401E0078039000E073
:10A950000397A86801785D2908BF401C5D21FDF7B9
:10A96000A7FC002800F00481A9680291421A019214
:10A97000A8600198032808DB821E02982D21401C44
:10A98000FDF7D0FC08B1012005906869012804DAC0
:10A99000002E14BF6FF0004001202861287F60B9AD
:10A9A0006868B8F1000F04D0011D6960D0F800900C
:10A9B00003E0011D69600068049000240AE0049827
:10A9C000401C049000F801BD0120A877A869401E32
:10A9D000A86102272869401E2861E968491C0028EF
:10A9E000E9601BD4012228680021D04783461BF16F
:10A9F000010F16D15A4629465046FFF7E4FD16B11D
:10AA0000022F00F0B180022F00F0BE80F80700F1A5
:10AA10007B801BF1010F40F0AB8075E04FF0FF3BF6
:10AA2000E8E7012E02DB00F023FC11E0002E3AD50E
:10AA30000598002803980ED1019A002802985946DB
:10AA400004D1FDF76FFC0028D4D02CE0FDF76AFCA0
:10AA50000028CFD127E0019A002805D10298594655
:10AA6000FFF731FFF8B9C5E702995FFA8BF007E00D
:10AA70000B789842A4BF8B788342BBDAC91CD21EE4
:10AA8000032A0ED34B782D2BF2D011F8013B8342D1
:10AA900018BF521EF4D1ADE711F8013B8342A9D093
:10AAA000521E002AF8D1B8F1000F07D1287F0028E4
:10AAB0008FD1A869002882D101279BE700A806ABA7
:10AAC00004F800B0641C224600A90DF10200FDF755
:10AAD000CEFB8346801C022821D8DFE800F0020765
