:020000040800F2
:1050000010410020415E0108C54F0108C74F01084B
:10501000C94F0108CB4F0108CD4F01080000000027
:10502000000000000000000000000000D14F010857
:10503000CF4F010800000000D34F0108D54F0108F1
:105040002F51010831510108335101083551010830
:105050003751010839510108355201083B51010807
:105060003D5101083F5101084151010843510108D8
:105070004551010847510108495101084B510108A8
:105080004D5101084F510108515101085351010878
:105090005551010857510108595101085B51010848
:1050A0005D5101085F510108615101086351010818
:1050B000713B0108655101086751010869510108F8
:1050C0006B5101086D5101086F51010871510108C0
:1050D0007351010875510108B5510108F5510108D6
:1050E0003752010801530108035301080553010811
:1050F00007530108095301080B5301080D53010818
:105100000F530108115301081353010815530108E7
:1051100017530108195301081B5301081D530108B7
:105120001F53010821530108235301082553010887
:1051300038B50020DFF8A81C087000214FF4A0400B
:1051400003F034FE00214FF4A04003F02FFE0021B5
:10515000012010F5A04003F029FE0021012010F5E8
:10516000A04003F023FE00214FF4864003F01EFE12
:1051700000250EE00021E4B2EDB2A80000F5C04029
:105180004030201803F012FE641CE4B2032CF1DB63
:105190006D1CEDB2102D01DA0024F6E7002507E0C2
:1051A0000021EDB2A80010F5C04003F0FFFD6D1C1A
:1051B000EDB20C2DF4DB002507E00021EDB2A800D4
:1051C00010F5C14003F0F2FD6D1CEDB2082DF4DBCB
:1051D000002508E00021EDB2A80000F5C040C03075
:1051E00003F0E4FD6D1CEDB2042DF3DB002507E0B8
:1051F0000021EDB2A80010F5C44003F0D7FD6D1CEE
:10520000EDB2142DF4DB002407E00021E4B204F534
:10521000C040E03003F0CAFD641CE4B2042CF4DBAF
:10522000002518E00021E4B2EDB2A80000F5C0406E
:10523000D030201803F0BAFD0021E4B2EDB2A8008E
:1052400000F5C040E430201803F0B0FD641CE4B267
:10525000042CE7DB6D1CEDB2042D01DA0024F6E727
:10526000002144F2653003F0A1FD002144F2043036
:1052700003F09CFD00214FF4884003F097FD0020CF
:10528000DFF8701C08700020DFF86C1C087000202C
:10529000DFF8681C08700020DFF8641C087000202C
:1052A000DFF8601C08700020DFF85C1C087000202C
:1052B000DFF8581C08700020DFF8541C087000202C
:1052C000DFF8501C08600020DFF84C1C087000203C
:1052D000DFF8801D0860002032BD38B504000025CD
:1052E0000020C9B2002904D145F4804555F040059D
:1052F00002E04BF6BF700540290089B244F2060077
:1053000003F054FDE4B22000000210F47F40E4B248
:105310002018010089B244F2050003F047FD45F46E
:10532000004555F08005290089B244F2060003F0DB
:105330003DFD31BD70B50C001D0000260021002888
:1053400003D14BF6FF70064001E056F48046002A78
:1053500003D14FF6BF70064001E056F04006310021
:1053600089B244F2060003F021FDE4B221000902F3
:1053700011F47F41EDB2691889B244F2050003F0DF
:1053800015FD46F4004656F08006310089B244F21D
:10539000060003F00BFD70BD10B586B0040002A836
:1053A000019004A8009003AB05AADFF8AC1CDFF85D
:1053B000AC0C03F03FFD029B049A03990598FFF79C
:1053C000B9FF00212000C0B203F0C7FD002006B0E5
:1053D00010BD1CB5040000AB01AADFF8841CDFF887
:1053E0007C0C03F027FD0199C9B20098C0B2FFF709
:1053F00074FF00212000C0B203F0AFFD002016BDF5
:105400002DE9F84F04000D0016005FF00009370089
:1054100036B2B000D0F10500042190FBF1F85FF046
:10542000000A14E000210FFA8AFA5FEA4A0010F538
:105430000050401C03F0BAFC00210FFA8AFA5FEA20
:105440004A0010F5005003F0B1FC1AF1010A0FFAFE
:105450008AFA24B236B2A01B8245E3DB301910F180
:10546000010A14E000210FFA8AFA5FEA4A0010F5F7
:105470000050401C03F09AFC00210FFA8AFA5FEA00
:105480004A0010F5005003F091FC1AF1010A0FFADE
:105490008AFABAF5006FE5DB484606E00FFA89F9AB
:1054A0005FEA4901491C11EB08080FFA89F93FB27C
:1054B000B94580F2B28019F101090FFA88F8B8F104
:1054C000000FEBD4B9EB0000ADF80000B5EB090A12
:1054D00024B23FB2E01B002815D4BDF8001089B2F9
:1054E00024B23FB2E01B400010F50050401C03F016
:1054F0005DFC514689B224B23FB2E01B400010F57A
:10550000005003F053FC24B23FB23819B0F5006FDD
:1055100015DABDF8001089B224B23FB23819400044
:1055200010F50050401C03F041FC514689B224B2F2
:105530003FB23819400010F5005003F037FC5FF01F
:10554000000B5AE0B5EB070A24B20FFA89F9B4EB65
:1055500009000FFA8BFB1BEB000000281FD4012170
:1055600024B20FFA89F9B4EB09000FFA8BFB1BEB9D
:105570000000400010F50050401C03F017FC51469D
:1055800089B224B20FFA89F9B4EB09000FFA8BFB48
:105590001BEB0000400010F5005003F007FC24B2A4
:1055A0000FFA89F919EB04000FFA8BFBB0EB0B0033
:1055B000B0F5006F1FDA012124B20FFA89F919EB57
:1055C00004000FFA8BFBB0EB0B00400010F500500D
:1055D000401C03F0EBFB514689B224B20FFA89F963
:1055E00019EB04000FFA8BFBB0EB0B00400010F539
:1055F000005003F0DBFB1BF1010BBDF900000FFABB
:105600008BFB83459EDB48467F1EB9EB070109B241
:105610004900491C11EB080847E7B5EB060A0121D0
:1056200024B2600010F50050401C03F0BFFB51464F
:1056300089B224B2600010F5005003F0B7FB24B229
:1056400036B23019B0F5006F01DB200001E04FF4F5
:10565000006000B2BDE8F28F2DE9F047DFF8D01D01
:105660000968082904D0DFF8C81D0968102906D187
:10567000DFF8C00D0578DFF8BC0D007808E0DFF832
:10568000B41D0D78EDB2DFF8A81D0968B5FBF1F582
:10569000DFF8A41D0978890701D5002600E001265E
:1056A000DFF8E81D097800295DD1002744E05FFAA2
:1056B00088F8BFB2DFF8280E10EB071018F800408A
:1056C00018F10108E4B2E4B254EA042189B21FFAE5
:1056D00089F9BFB2B6B2802000FB06F010F5E040B9
:1056E00010EB471019EB000003F060FB19F1010902
:1056F000E4B2200950EA041A5FFA8AFA5046C0B2AE
:1057000050EA0A2189B21FFA89F9BFB2B6B28020E5
:1057100000FB06F010F5E04010EB471019EB00001D
:1057200003F044FB19F101092800C0B280B21FFA4E
:1057300089F94845BBD27F1CBFB2042F80F24D834C
:10574000EDB2290089B2BFB2B6B2802000FB06F0EC
:1057500010F5E04010EB471003F028FB5FF0000865
:105760005FF00109E0E7DFF8241D0978012943D142
:1057700000272AE05FFA88F8BFB2DFF8640D10EB6B
:10578000071018F8004018F10108A2465FFA8AFADB
:10579000E4B254EA0A2189B21FFA89F9BFB2B6B25B
:1057A000802000FB06F010F5E04010EB471019EBED
:1057B000000003F0FBFA19F101092800C0B280B221
:1057C0001FFA89F94845D5D27F1CBFB2042F80F259
:1057D0000483EDB2290089B2BFB2B6B2802000FBCB
:1057E00006F010F5E04010EB471003F0DFFA5FF031
:1057F00000085FF00109E0E7DFF8901C0978022952
:105800004DD1002734E05FFA88F8BFB2DFF8D00C42
:1058100010EB071018F8004018F101085FFA88F83B
:10582000BFB2DFF8BC0C10EB071018F800A018F19D
:105830000108E4B25FFA8AFA5AEA042189B21FFA2F
:1058400089F9BFB2B6B2802000FB06F010F5E04047
:1058500010EB471019EB000003F0A8FA19F1010949
:105860002800C0B280B21FFA89F94845CBD27F1C0C
:10587000BFB2042F80F2B182EDB2290089B2BFB26B
:10588000B6B2802000FB06F010F5E04010EB4710A8
:1058900003F08CFA5FF000085FF00109E0E7DFF841
:1058A000EC1B0978032940F0E980C0B2042190FB89
:1058B000F1F500275DE0EDB2022D59D15FF001094D
:1058C0005FFA88F8BFB2DFF8180C10EB071018F871
:1058D000004018F101085FFA88F8BFB2DFF8000C49
:1058E00010EB071018F800A018F10108E4B25FFAF5
:1058F0008AFA5AEA042189B21FFA89F9BFB2B6B20C
:10590000802000FB06F010F5E04010EB471019EB8B
:10591000000003F04BFA5FFA88F8BFB2DFF8C00B63
:1059200010EB071018F8004018F101085FFA88F82A
:10593000BFB2DFF8AC0B10EB071018F800A018F19D
:105940000108E4B25FFA8AFA5AEA042189B21FFA1E
:1059500089F9BFB2B6B2802000FB06F010F5E04036
:1059600010EB471019EB000010F5807003F01EFAE1
:105970007F1CBFB2042F80F230820121BFB2B6B2C9
:10598000802000FB06F010F5E04010EB471003F01C
:105990000DFA0121BFB2B6B2802000FB06F010F56F
:1059A000E04010EB471010F5807003F0FFF9002184
:1059B000BFB2B6B2802000FB06F010F5E04010EB5D
:1059C000471010F5007003F0F1F90021BFB2B6B234
:1059D000802000FB06F010F5E04010EB471010F5BA
:1059E000407003F0E3F95FF00008EDB2012D7FF4A1
:1059F00062AF5FF001095FFA88F8BFB2DFF8E00A32
:105A000010EB071018F8004018F101085FFA88F849
:105A1000BFB2DFF8CC0A10EB071018F800A018F19D
:105A20000108E4B25FFA8AFA5AEA042189B21FFA3D
:105A300089F9BFB2B6B2802000FB06F010F5E04055
:105A400010EB471019EB000003F0B0F9E4B25FFA75
:105A50008AFA5AEA042189B21FFA89F9BFB2B6B2AA
:105A6000802000FB06F010F5E04010EB471019EB2A
:105A7000000010F5807003F099F979E7DFF80C1A4F
:105A80000978042940F04681C0B2042190FBF1F569
:105A900000278CE0EDB2022D40F088805FF0010914
:105AA0005FFA88F8BFB2DFF8380A10EB071018F871
:105AB000004018F101085FFA88F8BFB2DFF8200A49
:105AC00010EB071018F800A018F10108E4B25FFA13
:105AD0008AFA5AEA042189B21FFA89F9BFB2B6B22A
:105AE000802000FB06F010F5E04010EB471019EBAA
:105AF000000003F05BF9E4B25FFA8AFA5AEA042183
:105B000089B21FFA89F9BFB2B6B2802000FB06F055
:105B100010F5E04010EB471019EB000010F5007095
:105B200003F044F95FFA88F8BFB2DFF8B40910EB6C
:105B3000071018F8004018F101085FFA88F8BFB2A2
:105B4000DFF89C0910EB071018F800A018F1010805
:105B5000E4B25FFA8AFA5AEA042189B21FFA89F993
:105B6000BFB2B6B2802000FB06F010F5E04010EBAB
:105B7000471019EB000010F5807003F017F9E4B23C
:105B80005FFA8AFA5AEA042189B21FFA89F9BFB288
:105B9000B6B2802000FB06F010F5E04010EB471095
:105BA00019EB000010F5407003F000F97F1CBFB244
:105BB000042F80F212810121BFB2B6B2802000FB17
:105BC00006F010F5E04010EB471003F0EFF801216C
:105BD000BFB2B6B2802000FB06F010F5E04010EB3B
:105BE000471010F5807003F0E1F80121BFB2B6B2A2
:105BF000802000FB06F010F5E04010EB471010F598
:105C0000007003F0D3F80121BFB2B6B2802000FBD0
:105C100006F010F5E04010EB471010F5407003F06F
:105C2000C5F85FF00008EDB2012D7FF433AF5FF0EF
:105C300001095FFA88F8BFB2DFF8A40810EB07107B
:105C400018F8004018F101085FFA88F8BFB2DFF8D1
:105C5000900810EB071018F800A018F10108E4B242
:105C60005FFA8AFA5AEA042189B21FFA89F9BFB2A7
:105C7000B6B2802000FB06F010F5E04010EB4710B4
:105C800019EB000003F092F8E4B25FFA8AFA5AEADC
:105C9000042189B21FFA89F9BFB2B6B2802000FB95
:105CA00006F010F5E04010EB471019EB000010F57E
:105CB000807003F07BF8E4B25FFA8AFA5AEA0421B2
:105CC00089B21FFA89F9BFB2B6B2802000FB06F094
:105CD00010F5E04010EB471019EB000010F50070D4
:105CE00003F064F8E4B25FFA8AFA5AEA042189B24E
:105CF0001FFA89F9BFB2B6B2802000FB06F010F59A
:105D0000E04010EB471019EB000010F5407003F075
:105D10004DF84BE700274AE05FFA88F8BFB2DFF89A
:105D2000C00710EB071018F8004018F1010814F034
:105D3000F000E4B250EA141A5FFA8AFA5046C0B290
:105D400050EA0A2189B21FFA89F9BFB2B6B280209F
:105D500000FB06F010F5E04010EB471019EB0000D7
:105D600003F024F819F1010914F00F0050EA0414AB
:105D7000E4B22000C0B250EA042189B21FFA89F9C6
:105D8000BFB2B6B2802000FB06F010F5E04010EB89
:105D9000471019EB000003F009F819F10109280078
:105DA000C0B280B21FFA89F94845B5D27F1CBFB294
:105DB000042F12DAEDB2290089B2BFB2B6B2802048
:105DC00000FB06F010F5E04010EB471002F0EEFF8C
:105DD0005FF000085FF00109E1E7BDE8F08700002F
:105DE000F63000202DE9F04387B003A8019004A805
:105DF000009002AB05AADFF8F417DFF8F40700689B
:105E0000DFF8F0470019401C03F014F80498000371
:105E10000490039800030390DFF8DC0700680599FD
:105E2000B0FBF1F4DFF8D00700680599B0FBF1F2A0
:105E300001FB1200002800D0641CDFF8C0070068D6
:105E40000299B0FBF1F5DFF8B40700680299B0FBE6
:105E5000F1F201FB1200002800D06D1C0027002683
:105E600000E0761C0598864241D2E719390089B2D4
:105E7000700110F5A04002F099FF5FF000085FF09C
:105E8000010921E0039810EB080189B2700110F5B7
:105E9000A04019EB000002F089FF4FF6FF7170017E
:105EA00010F5A04019EB000010F5007002F07EFF25
:105EB0000021700110F5A04019EB000010F5806082
:105EC00002F074FF19F1010902984845C9D30298FC
:105ED000814502D15FF0000801E015EB080819EBDD
:105EE0000600C007CED5049810EB0801CDE707B037
:105EF000BDE8F083F9300020FA300020FB300020AC
:105F0000FC300020FF300020FD300020F730002062
:105F1000F4300020C8300020F33000202DE9F04795
:105F200088B003A8019004A8009002AB05AADFF88E
:105F3000BC16DFF8BC060068DFF8B8460019401C44
:105F400002F078FF04980003049003980003039084
:105F5000DFF8A40600680599B0FBF1F4DFF89806B5
:105F600000680599B0FBF1F201FB1200002800D097
:105F7000641CDFF8880600680299B0FBF1F5DFF8D1
:105F80007C0600680299B0FBF1F201FB12000028C8
:105F900000D06D1C0026DFF85806006810F10708D5
:105FA000002702E07F1C18F10408059887424ED2B2
:105FB000A619310089B2780110F5A04002F0F6FE72
:105FC0005FF0000906AADFF83816DFF8280618EB9C
:105FD000000002F02FFF5FF0010A21E0049810EBAF
:105FE000090189B2780110F5A0401AEB000002F017
:105FF000DDFE4FF6FF71780110F5A0401AEB0000AE
:1060000010F5007002F0D2FE0021780110F5A040DA
:106010001AEB000010F5806002F0C8FE1AF1010AC8
:1060200002985045BED30298824502D15FF0000924
:1060300001E015EB090906984FF400415246521E43
:1060400011410842CAD0039810EB0901C9E708B012
:10605000BDE8F087C0300020A45B010815000020D7
:10606000EC5D0108F0B58BB004A8019005A8009084
:1060700002AB07AADFF87415DFF874050068DFF8D3
:1060800074450019401C02F0D5FE08A8019006A82E
:10609000009009AB03AADFF86C15DFF8540500681F
:1060A000DFF850450019C01D02F0C4FE0398E04916
:1060B0000968B0FBF1F0039005980003059004987F
:1060C000000304900698000306900025002400E0D9
:1060D000641C0798844280F0928009984519290031
:1060E00089B2600110F5A04002F060FE0026012791
:1060F0001CE00498811989B2600110F5A04038189D
:1061000002F054FE4FF6FF71600110F5A040381800
:1061100010F5007002F04AFE0021600110F5A04069
:10612000381810F5806002F041FE7F1C0298B842DA
:1061300007D3039886193819C007DAD5059881194D
:10614000D9E7DFF8B804006880190399029A51432F
:10615000B0EB41063005000D0699091889B26001BF
:1061600010F5A040381802F021FE089989B26001AC
:1061700010F5A040381810F5007002F017FE00214D
:10618000600110F5A040381810F5806002F00EFE96
:106190007F1C1CE00498811989B2600110F5A040B1
:1061A000381802F003FE4FF6FF71600110F5A040B1
:1061B000381810F5007002F0F9FD0021600110F5AB
:1061C000A040381810F5806002F0F0FD7F1C0298A6
:1061D0004000401CB842FFF47BAF02984000401CD6
:1061E000874201D1002601E00398861938190299E7
:1061F000401A401CC007CDD505988119CCE7DFF8BF
:10620000F803006840190999079A5143B0EB41051A
:10621000290089B2600110F5A04002F0C7FD06997F
:1062200089B2600110F5A040401C02F0BFFD089942
:1062300089B2600110F5A04000F2012002F0B6FD25
:106240000021600110F5A04000F2014002F0AEFD17
:10625000641C00E0641C07984000A042C0F09780D6
:1062600009984519290089B2600110F5A04002F093
:106270009DFD002601271CE00498811989B2600168
:1062800010F5A040381802F091FD4FF6FF71600143
:1062900010F5A040381810F5007002F087FD0021BD
:1062A000600110F5A040381810F5806002F07EFD06
:1062B0007F1C0298B8420AD3039886190798201ABF
:1062C000401C3818C007D7D505988119D6E7CB48A8
:1062D000006880190399029A5143B0EB41063005DA
:1062E000000D0699091889B2600110F5A040381810
:1062F00002F05CFD089989B2600110F5A0403818E1
:1063000010F5007002F052FD0021600110F5A04070
:10631000381810F5806002F049FD7F1C1CE00498DD
:10632000811989B2600110F5A040381802F03EFDD5
:106330004FF6FF71600110F5A040381810F500709D
:1063400002F034FD0021600110F5A040381810F56E
:10635000806002F02BFD7F1C02984000401CB84278
:10636000FFF478AF02984000401C874201D100261C
:1063700001E0039886190798201A401C38180299E2
:10638000401A401EC007CAD505988119C9E70BB04D
:10639000F0BD1FB501A8009002AB03AADFF8841C72
:1063A00093480068934C0019C01C02F043FD039908
:1063B00089B244F20A0002F0F9FC029989B244F26F
:1063C000090002F0F3FC019989B244F2080002F0DE
:1063D000EDFC874800680F30DFF8201E08601FBD05
:1063E0001FB501A8009002AB03AADFF8381C804853
:1063F0000068804C0019C01C02F01CFD039989B292
:1064000044F20E0002F0D2FC029989B244F20D006F
:1064100002F0CCFC019989B244F20C0002F0C6FCF7
:10642000734800680F30DFF8D41D08601FBD0000FE
:10643000B030002002310020013100201FB501A83A
:10644000009002AB03AADFF8DC1B69480068694CC6
:106450000019C01C02F0EEFC039989B244F222003C
:1064600002F0A4FC029989B244F2210002F09EFCE1
:10647000019989B244F2200002F098FC5C4800685F
:106480000F30DFF8781D08601FBD0000F8300020D5
:106490001FB501A8009002AB03AADFF8881B54487F
:1064A0000068544C0019C01C02F0C4FC039989B266
:1064B00044F2120002F07AFC029989B244F211000F
:1064C00002F074FC019989B244F2100002F06EFCF3
:1064D000474800680F30DFF8241D08601FBD00002A
:1064E000F02D00201FB501A8009002AB03AADFF831
:1064F000341B3F4800683F4C0019801C02F09AFC96
:10650000039989B244F20A0002F050FC029989B260
:1065100044F2090002F04AFC019989B244F20800F1
:1065200002F044FC01A8009002AB03AADFF8F41AC1
:106530002F4800682F4C00190E3002F07BFC0399A5
:1065400089B244F20E0002F031FC029989B244F2A1
:106550000D0002F02BFC019989B244F20C0002F00C
:1065600025FC01A8009002AB03AADFF8B81A204866
:106570000068204C00191A3002F05CFC039989B2C3
:1065800044F2220002F012FC029989B244F2210086
:1065900002F00CFC019989B244F2200002F006FCE2
:1065A00001A8009002AB03AADFF8781A104800682F
:1065B000104C0019263002F03DFC039989B244F2D8
:1065C000120002F0F3FB029989B244F2110002F0CA
:1065D000EDFB019989B244F2100002F0E7FB044898
:1065E00000683230DFF8901E08601FBDB85B0108FC
:1065F000AC30002008000020BC300020B830002063
:10660000D45E0108CC5B01082DE9F04383B0012082
:10661000DFF8EC1B087090E00098DFF8E81B0968D1
:10662000461A0098DFF8DC1B0860009989B2E4B2D2
:10663000600110F5A04002F0B9FB0027DFF8C80B9D
:106640000068001DDFF8C01B08606D1C01AB00AACC
:10665000DFF8B81BDFF8B00B0068DFF8B4CB10EB45
:106660000C00C01C02F0E6FB00980005000D00289D
:1066700008D0DFF8A01B0968DFF89C2B1268514393
:10668000884215D3009810F470400090DFF8840B16
:106690000068DFF8841B09684843B0EB0708DFF89F
:1066A000740B0068DFF8701B096801FB00F702E05B
:1066B000B0EB0708070000980005000DDFF8581B35
:1066C0000968B0FBF1F0009911F4704108180090CE
:1066D000009989B2EDB2E4B2600110F5A04028182B
:1066E00002F064FB019989B2EDB2E4B2600110F5E9
:1066F000A040281810F5007002F058FB02229AA161
:10670000DFF8040B0068DFF8083BC0180B3003F01B
:1067100083F8002856D10021EDB2E4B2600110F5F3
:10672000A040281810F5806002F040FBDFF8D80A7E
:1067300000680E30DFF8D01A0860DFF8CC0A006875
:10674000DFF8B81A0968884280F0AA8303F0ACF831
:1067500001AB00AADFF8241DDFF8AC0A0068DFF8FF
:10676000B04A001902F066FB009810F00F04019D7A
:10677000EDB2002D7FF469AF00AADFF8041DDFF849
:10678000880A0068DFF8883AC018C01C02F052FB83
:106790000098002806D00098DFF8401D096888425C
:1067A000FFF43AAF00200090DFF8300D0068DFF80A
:1067B000541A0968461ADFF8240D0068DFF8441AF5
:1067C000086032E7022269A1DFF83C0A0068DFF8BE
:1067D000403AC0180B3003F01FF8002827D15FF0B3
:1067E0008070B0FBF8F0DFF8081E0968B0FBF1F02C
:1067F00010F101095FEA1940C0B250F4805189B22A
:10680000EDB2E4B2600110F5A040281810F58060E8
:1068100002F0CCFA494689B2EDB2E4B2600110F55B
:10682000A040281810F5C06002F0C0FA7EE70222EE
:106830004FA1DFF8D4090068DFF8D439C0180B3055
:1068400002F0EAFF002827D15FF08070B0FBF8F07B
:10685000DFF89C1D0968B0FBF1F97FEA09095FEADE
:106860001940C0B250F4805189B2EDB2E4B2600177
:1068700010F5A040281810F5806002F097FA4946FC
:1068800089B2EDB2E4B2600110F5A040281810F50D
:10689000C06002F08BFA49E7022236A1DFF86809EE
:1068A0000068DFF86C39C0180B3002F0B5FF002823
:1068B00025D15FF08070B0FBF6F94FF47041EDB276
:1068C000E4B2600110F5A040281810F5806002F0D5
:1068D0006DFA5FEA1940C1B2E4B2600110F5A04060
:1068E00010F5806002F062FA494689B2E4B26001B4
:1068F00010F5A04010F5C06002F058FA16E7022229
:106900001DA1DFF804090068DFF80439C0180B3056
:1069100002F082FF002831D15FF08070B0FBF6F00A
:1069200010F101094FF45041EDB2E4B2600110F5ED
:10693000A040281810F5806002F038FA5FEA19408C
:10694000C1B2E4B2600110F5A04010F5806002F021
:106950002DFA494689B2E4B2600110F5A04010F565
:10696000C06002F023FAE1E64E4F0000482B000021
:10697000482D0000562B0000562D00000222CBA10E
:10698000DFF884080068DFF88838C0180B3002F0A0
:1069900043FF002843D15FF08070B0FBF6F010F1A8
:1069A00001095FEA1941C9B289B2E4B2600110F588
:1069B000A04010F5806002F0F9F9494689B2E4B2CE
:1069C000600110F5A04010F5C06002F0EFF95FF033
:1069D0008070B0FBF8F0DFF8181C0968B0FBF1F02C
:1069E00010F101095FEA1940C0B250F4304189B298
:1069F000EDB2E4B2600110F5A040281810F58060F7
:106A000002F0D4F9494689B2EDB2E4B2600110F562
:106A1000A040281810F5C06002F0C8F986E60222EE
:106A2000CCA1DFF8E4070068DFF8E437C0180B30CA
:106A300002F0F2FE002843D15FF08070B0FBF6F068
:106A400010F101095FEA1941C9B289B2E4B26001EB
:106A500010F5A04010F5806002F0A8F9494689B20F
:106A6000E4B2600110F5A04010F5C06002F09EF99C
:106A70005FF08070B0FBF8F0DFF8741B0968B0FBC2
:106A8000F1F97FEA09095FEA1940C0B250F43041D8
:106A900089B2EDB2E4B2600110F5A040281810F5FB
:106AA000806002F083F9494689B2EDB2E4B2600138
:106AB00010F5A040281810F5C06002F077F935E60F
:106AC0000222D1A1DFF840070068DFF84437C01880
:106AD0000B3002F0A1FE002843D15FF08070B0FBC4
:106AE000F6F010F101095FEA1941C9B289B2E4B2C6
:106AF000600110F5A04010F5806002F057F949469A
:106B000089B2E4B2600110F5A04010F5C06002F057
:106B10004DF95FF08070B0FBF8F0DFF8D41A096827
:106B2000B0FBF1F010F101095FEA1940C0B250F476
:106B3000104189B2EDB2E4B2600110F5A04028180E
:106B400010F5806002F032F9494689B2EDB2E4B244
:106B5000600110F5A040281810F5C06002F026F979
:106B6000E4E50222CFA1DFF8A0060068DFF8A03636
:106B7000C0180B3002F050FE002843D15FF0807047
:106B8000B0FBF6F010F101095FEA1941C9B289B210
:106B9000E4B2600110F5A04010F5806002F006F943
:106BA000494689B2E4B2600110F5A04010F5C0601A
:106BB00002F0FCF85FF08070B0FBF8F0DFF8301AFC
:106BC0000968B0FBF1F97FEA09095FEA1940C0B230
:106BD00050F4104189B2EDB2E4B2600110F5A0406A
:106BE000281810F5806002F0E1F8494689B2EDB24C
:106BF000E4B2600110F5A040281810F5C06002F062
:106C0000D5F893E50222BBA1DFF8FC050068DFF8A8
:106C10000036C0180B3002F0FFFD002843D15FF0B2
:106C20008070B0FBF6F010F101095FEA1941C9B2BA
:106C300089B2E4B2600110F5A04010F5806002F066
:106C4000B5F8494689B2E4B2600110F5A04010F5EC
:106C5000C06002F0ABF85FF08070B0FBF8F0DFF8D6
:106C600090190968B0FBF1F97FEA09095FEA194058
:106C7000C0B250F4A04189B2EDB2E4B2600110F5A7
:106C8000A040281810F5806002F090F8494689B2BB
:106C9000EDB2E4B2600110F5A040281810F5C06014
:106CA00002F084F842E5022293A101E044310000A1
:106CB000DFF854050068DFF85835C0180B3002F0D3
:106CC000ABFD002843D15FF08070B0FBF6F010F10F
:106CD00001095FEA1941C9B289B2E4B2600110F555
:106CE000A04010F5806002F061F8494689B2E4B234
:106CF000600110F5A04010F5C06002F057F85FF099
:106D00008070B0FBF8F0DFF8E8180968B0FBF1F02C
:106D100010F101095FEA1940C0B250F4A04189B2F4
:106D2000EDB2E4B2600110F5A040281810F58060C3
:106D300002F03CF8494689B2EDB2E4B2600110F5C8
:106D4000A040281810F5C06002F030F8EEE40222EE
:106D5000B2A101E044320000DFF8AC040068DFF8C3
:106D6000B034C0180B3002F057FD002843D15FF05B
:106D70008070B0FBF6F010F101095FEA1941C9B269
:106D800089B2E4B2600110F5A04010F5806002F015
:106D90000DF8494689B2E4B2600110F5A04010F543
:106DA000C06002F003F85FF08070B0FBF8F0DFF82D
:106DB00040180968B0FBF1F97FEA09095FEA194058
:106DC000C0B250F4E04189B2EDB2E4B2600110F516
:106DD000A040281810F5806001F0E8FF494689B20C
:106DE000EDB2E4B2600110F5A040281810F5C060C3
:106DF00001F0DCFF9AE4022289A1DFF80C040068AC
:106E0000DFF80C3402E000BF44330000C0180B3040
:106E100002F002FD002843D15FF08070B0FBF6F075
:106E200010F101095FEA1941C9B289B2E4B2600107
:106E300010F5A04010F5806001F0B8FF494689B216
:106E4000E4B2600110F5A04010F5C06001F0AEFFA3
:106E50005FF08070B0FBF8F0DFF894170968B0FBC2
:106E6000F1F010F101095FEA1940C0B250F4E041BD
:106E700089B2EDB2E4B2600110F5A040281810F517
:106E8000806001F093FF494689B2EDB2E4B260013F
:106E900010F5A040281810F5C06001F087FF45E408
:106EA000BDE8F7834434000010B582B00400E4B2BA
:106EB00020000028022807D8E4B2210089B244F259
:106EC000600001F073FF04E0002144F2600001F073
:106ED0006DFFE4B20094E4B2230044F26002DFF8F4
:106EE000A01BDFF8B80D02F0E7FCDFF8B00D02F0F0
:106EF00080FD13BD443500004436000010B588B055
:106F00000120BF49087000214FF4A04001F04EFF5E
:106F10000021012010F5A04001F048FF002140F2BF
:106F2000012010F5A04001F041FF002140F2014096
:106F300010F5A04001F03AFF0120DFF8481B08706F
:106F400002AADFF8441BB0480068B14BC01801F03A
:106F500071FF0020FFF7A8FF0298FF2802D1FEF77B
:106F60007BFB0CE00298FE2803D10120FFF79CFF79
:106F700005E00298FD2802D10220FFF795FF03A843
:106F8000019004A8009005AB06AADFF8001B9E48FC
:106F900000689F4C0019801C01F04CFF069989B2D3
:106FA00044F2094001F002FF059989B244F20A4017
:106FB00001F0FCFE049989B244F20B4001F0F6FEA8
:106FC000039989B244F20C4001F0F0FE8E4800684B
:106FD0008F494018807C312801D1042400E000242E
:106FE000DFF8BC0C0078002801D0012000E0002070
:106FF000C0B24FF6FB71084090F00200E4B22043AB
:1070000050F0010189B244F2084001F0CFFE54F083
:107010000100DFF88C1C087008B010BD4437000078
:1070200044380000E45C010810B586B001207449C2
:10703000087002AB03AADFF86C1C73480068744C3C
:107040000019103001F0F6FE00214FF4A04001F0CD
:10705000ADFE03980001C0B2010289B2012010F513
:10706000A04001F0A3FE029989B240F2012010F580
:10707000A04001F09BFE002140F2014010F5A0402D
:1070800001F094FE05A8019004A8009002AB03AAA9
:10709000DFF8F8195C4800685D4C001901F0CAFE81
:1070A000DFF8040C007803283BDA039989B2DFF893
:1070B000F80B0078800000F5C040C030401C01F0A3
:1070C00075FE059989B2DFF8E00B0078800000F5C5
:1070D000C040C030801C01F069FE049989B2DFF81D
:1070E000C80B0078800000F5C040C030C01C01F023
:1070F0005DFE0298000AC0B20299C9B251EA0021AD
:1071000089B2DFF8A40B0078800000F5C040C030E1
:1071100001F04CFEDFF8900B0078401CDFF8881B74
:10712000087004A8009002AB03AADFF8801B364861
:107130000068374C0019153001F07CFE0398DFF829
:10714000701B08800298DFF8681B48800498DFF8FD
:10715000601B8880039989B244F20A0001F026FE80
:10716000029989B244F2090001F020FE049989B223
:1071700044F2080001F01AFE05A8019004A800904E
:1071800002AB03AADFF8601C1F480068204C0019FE
:10719000213001F04FFE0398DFF8501C0880029860
:1071A000DFF8481C48800498DFF8401C8880059868
:1071B00064214843DFF8641D086006B010BD80B547
:1071C000114800681249405C312802D1FEF70AFEDE
:1071D00010E00D4800680E49405C322802D1FEF7ED
:1071E0009DFE07E0084800680949405C332801D14A
:1071F000FEF738FF01200249087001BDA8300020C9
:10720000F5300020C0300020AC300020F85D0108CF
:1072100008000020B8300020B0300020F0B587B062
:1072200003A8019002A8009005AB04AADFF85C183F
:10723000DFF8BC0B0068DFF8BC4B001901F0FAFD69
:10724000049989B244F2064001F0B0FD059989B273
:1072500044F2074001F0AAFD0498DFF8C41C096855
:10726000B0FBF1F201FB1200C0B2800010F180040B
:10727000DFF8B00C0068082827D204980830049082
:107280000598103005900298C008C000029003983D
:107290000009000103900298C0080821B0FBF1F238
:1072A00002FB1102002A08D00298C0080821B0FB96
:1072B000F1F202FB1102042A03D102981038029065
:1072C0002AE002980838029026E0049840300490A2
:1072D0000598103005900298C008C00002900398ED
:1072E0000009000103900298C0080821B0FBF1F2E8
:1072F00002FB1102002A08D00298C0080821B0FB46
:10730000F1F202FB1102042A03D1029850380290D4
:1073100002E0029820380290039800090821B0FB8F
:10732000F1F202FB1102002A08D00398000908219B
:10733000B0FBF1F202FB1102042A03D103982038BA
:10734000039002E0039810380390049989B244F244
:10735000014001F02BFD059989B244F2024001F091
:1073600025FD029989B244F2034001F01FFD039903
:1073700089B244F2044001F019FDDFF8AC0B00685B
:10738000DFF8A01B09684843C508DFF89C0B0068BC
:10739000DFF8901B096848430821B0FBF1F202FBBB
:1073A0001102002A00D06D1C00270EE00021FFB260
:1073B0004FF4007000FB07F010F50040301801F0AA
:1073C000F5FC761CB542F1D27F1CFFB2082F01DA22
:1073D0000026F7E7002645E0E4B2210089B216F561
:1073E000004001F0E3FCE4B2611C89B216F50040F4
:1073F000C01D01F0DBFCE4B2A11C89B216F500400F
:1074000000F2036001F0D2FCE4B2E11C89B216F58F
:10741000004000F2046001F0C9FCE4B2611C89B2D2
:1074200016F5004000F6030001F0C0FCE4B22100B4
:1074300089B216F5004000F6040001F0B7FCE4B292
:10744000E11C89B216F5004010F5606001F0AEFC59
:10745000E4B2A11C89B216F5004000F6076001F005
:10746000A5FC0836B542B7D201214FF4884001F09F
:107470009DFC07B0F0BD0000A8300020DC5E0108D4
:10748000E45E010838B5DFF8900C02F0B2FA00248F
:1074900019E002F009FAE4B2EDB2DFF8800C10EB6B
:1074A0000510215C89B2EDB2E4B24FF4807000FBAC
:1074B00004F010F51040281801F078FC6D1CEDB2B6
:1074C000902DE6DB641CE4B2102C01DA0025F6E70F
:1074D000DFF85C0D02F08DFA31BD0000BC300020F9
:1074E0007CB501AADFF8381CDFF804090068DFF872
:1074F0000439C01801F09EFC0198DFF8381D0870AF
:10750000DFF8EC080068861C002418E000AADFF809
:107510007815DFF8E008301801F08CFC0098DFF8EF
:10752000901C11EB041168546D1CB61CDFF8040D9F
:107530000078022190FBF1F08542E7D3641C042C13
:1075400001D20025F2E773BD70B5040015001E00DE
:10755000DFF8E40C0078082849DAADB2A4B2A542FD
:1075600005D220002C00050008003100060089B279
:10757000DFF8C40C0078800010F5C140401C01F019
:1075800015FC290089B2DFF8B00C0078800010F5F6
:10759000C140801C01F00AFC310089B2DFF8980C70
:1075A0000078800010F5C140C01C01F0FFFB04987A
:1075B00080B2012802D154F4404407E080B202288E
:1075C00002D154F4204401E054F40044210089B273
:1075D000DFF8640C0078800010F5C14001F0E6FB94
:1075E000DFF8540C0078401CDFF84C1C087070BDAC
:1075F000B430002038B504001500DFF8400C0078E6
:107600000F2838DAADB289B28D4202D208002900C3
:10761000050089B2DFF8240C0078800010F5C04026
:10762000401C01F0C3FB290089B2DFF8100C007880
:10763000800010F5C040801C01F0B8FB0021DFF88D
:10764000FC0B0078800010F5C040C01C01F0AEFBC0
:1076500054F40044210089B2DFF8E00B0078800088
:1076600010F5C04001F0A2FBDFF8D00B0078401C01
:10767000DFF8C81B087031BD70B506000C001100A2
:107680001D00DFF8BC0B00780F2848DA89B2B6B2CB
:10769000B14202D230000E00010089B2DFF8A00B27
:1076A0000078800000F5C0404030401C01F07EFBB7
:1076B000210089B2DFF8880B0078800000F5C04017
:1076C0004030801C01F072FB0021DFF8740B007861
:1076D000800000F5C0404030C01C01F067FBADB237
:1076E000012D02D156F4404607E0ADB2022D02D181
:1076F00056F4204601E056F40046310089B2DFF826
:10770000400B0078800000F5C040403001F04EFB97
:10771000DFF82C0B0078401CDFF8241B087070BDCC
:1077200010B588B005A8029003A8019006A80090A3
:1077300004AB07AADFF80C1BDFF8B4060068DFF81B
:10774000B446001901F076FB049840F6FF718842B8
:1077500003D340F6FE70049007E0039840F6FF71F3
:10776000884202D340F6FE700390059880B20090E4
:10777000039B9BB2069A92B2049989B2079880B291
:10778000FFF7E2FE08B010BD1FB501A8009002ABE4
:1077900003AADFF8B41ADFF858060068DFF8544689
:1077A000001901F047FB019A92B2029989B203983D
:1077B00080B2FFF71FFF1FBD10B586B002A8019071
:1077C00003A8009004AB05AADFF8801ADFF82006B2
:1077D0000068DFF82046001901F02CFB029B9BB2E9
:1077E000039A92B2049989B2059880B2FFF744FFD8
:1077F00006B010BD1FB502A8009001AB03AADFF8C8
:10780000481ADFF8EC050068DFF8E845001901F0D8
:1078100011FB029A12B2019909B2039800B2FDF766
:10782000EFFD0400019989B244F2053001F0BEFA7F
:10783000210089B244F2063001F0B8FA1FBD80B5CC
:1078400000AA8EA1DFF8A8050068DFF8A835C018E7
:1078500001F0F0FA0098012801D1032105E0009819
:10786000022801D1052100E0012189B244F204304F
:1078700001F09CFA01BD30B587B006AADFF8981C6C
:10788000DFF86C050068DFF86C35C01801F0D2FA3B
:10789000DFF8880C0068DFF85C15401810F8014C20
:1078A000DFF84C050068001DDFF84415086012E0A1
:1078B00002200090059B9BB2049A92B2029989B271
:1078C000039880B2FFF740FEDFF824050068083017
:1078D000DFF81C150860DFF8440C00681138DFF889
:1078E00010150968884269D305A8019004A8009082
:1078F00002AB03AA6549DFF8F8040068DFF8F45426
:10790000401901F097FA03980499884208D1059A22
:1079100092B2029989B2039880B2FFF76BFED3E767
:1079200002980599884224D1E4B2322C09D0002370
:10793000049A92B2029989B2039880B2FFF79CFE32
:10794000C2E706980299884209D30123049A92B2A9
:10795000029989B2039880B2FFF78EFEB4E7022342
:10796000049A92B2029989B2039880B2FFF784FE1A
:10797000AAE7E4B2322C0CD000200090059B9BB209
:10798000049A92B2029989B2039880B2FFF7DCFDA3
:107990009AE70698029988428AD306980599884200
:1079A00086D301200090059B9BB2049A92B2029963
:1079B00089B2039880B2FFF7C7FD85E707B030BDF5
:1079C00010B588B004A8029005A8019006A8009000
:1079D00007AB03AADFF86C18DFF814040068DFF8BF
:1079E0001444001901F026FAAF480078042843DA5D
:1079F000079989B2AC480078800000F5C040C030DB
:107A0000401C01F0D3F9069989B2A748007880009C
:107A100000F5C040C030801C01F0C8F9059989B25A
:107A2000A1480078800000F5C040C030C01C01F0C3
:107A3000BDF90498012804D1039850F44040039004
:107A40000BE00498022804D1039850F420400390DE
:107A500003E0039850F400400390039989B29248E0
:107A60000078800000F5C040C03001F09FF98E48DA
:107A70000078401C8C49087008B010BD25316400A6
:107A8000E4560108F4300020EC5E0108E05B0108D8
:107A900010B590B008A8069009A805900AA804900F
:107AA0000BA803900CA802900DA801900EA80090BE
:107AB0000FAB07AADFF8681ACD480068CD4C001953
:107AC00001F0B8F90798002805D0022829D015D36D
:107AD000032839D04AE00A9989B244F2260001F01D
:107AE00065F9099989B244F2250001F05FF9089916
:107AF00089B244F2240001F059F937E00A9989B2B9
:107B000044F22A0001F052F9099989B244F229009D
:107B100001F04CF9089989B244F2280001F046F9C5
:107B200024E00A9989B244F22E0001F03FF9099944
:107B300089B244F22D0001F039F9089989B244F272
:107B40002C0001F033F911E00A9989B244F23200B5
:107B500001F02CF9099989B244F2310001F026F9BB
:107B6000089989B244F2300001F020F90021079809
:107B7000800000F5C040E430401C01F017F90021FE
:107B80000798800000F5C040E430801C01F00EF939
:107B90000C9810F47F400B99C1F30721014389B27F
:107BA0000798800000F5C040E430C01C01F0FEF8EA
:107BB00000210798800000F5C040E43001F0F6F89D
:107BC0000E9989B20798800000F5C040D030401C63
:107BD00001F0ECF80D9989B20798800000F5C040DB
:107BE000D030801C01F0E2F80C980B99C9B251EA30
:107BF000002189B20798800000F5C040D030C01C39
:107C000001F0D4F80F9850F4004189B20798800031
:107C100000F5C040D03001F0C9F80120DFF8B41CF5
:107C2000087010B010BD10B586B002A8019003A86E
:107C3000009004AB05AADFF8EC186D4800686D4CA5
:107C4000001901F0F7F8B848016889B244F20D3024
:107C500001F0ACF8039989B246F240003D3001F0E2
:107C6000A5F8049989B246F240003E3001F09EF832
:107C7000029989B246F240003F3001F097F805982A
:107C800050F4004189B246F240003C3001F08EF8D9
:107C90000120DFF8401C087006B010BD1C2C00202D
:107CA00001310020045E0108FC300020E45C010882
:107CB0003C30002070B586B004A8019005A8009063
:107CC00002AB03AADFF8D01BDFF8000D0068494CB7
:107CD000001901F0AFF8039989B244F2064001F0AF
:107CE00065F8029989B244F2074001F05FF8039900
:107CF00089B244F2014001F059F8029989B244F284
:107D0000024001F053F8059989B244F2034001F0B2
:107D10004DF8049989B244F2044001F047F88248D2
:107D20000068804909684843C4087F4800687D4965
:107D3000096848430821B0FBF1F202FB1102002A56
:107D400000D0641C00250EE00021EDB24FF400705D
:107D500000FB05F010F50040301801F027F8761C04
:107D6000A642F1D36D1CEDB2082D01DA0026F7E72B
:107D7000DFF8580C006810F11004002527E01D48BA
:107D8000215C89B2EDB24FF4007000FB05F010F5F4
:107D90000040301801F00AF8641C761C1548205C7D
:107DA0000A2804D0DFF8740700688442E7D311483A
:107DB000205C0A2800D1641CDFF860070068844258
:107DC00004D3DFF8080C006810F110046D1CEDB24C
:107DD000082D01DA0026E1E701214FF4884000F088
:107DE000E5FF06B070BD0000F45B010844300020E0
:107DF000AC3000200800002010B58EB008A8059017
:107E000009A804900AA8039007A802900BA8019063
:107E10000CA800900DAB06AADFF8B41BDFF8AC0B82
:107E20000068DFF8B04B001901F004F8DFF8A80B88
:107E30000078142870DA0D9989B2DFF89C0B00786D
:107E4000800010F5C440401C00F0B0FF0C9989B2CE
:107E5000DFF8840B0078800010F5C440801C00F02F
:107E6000A5FF0B9989B2DFF8700B0078800010F540
:107E7000C440C01C00F09AFF0798012804D106985E
:107E800050F4404006900BE00798022804D1069871
:107E900050F42040069003E0069850F4004006900D
:107EA000069989B2DFF8300B0078800010F5C440E5
:107EB00000F07CFF0A9989B2DFF81C0B00780322DE
:107EC00044F2293302FB003000F070FF099989B2B7
:107ED000DFF8040B0078032244F2293302FB003060
:107EE000401C00F063FF089989B2DFF8EC0A0078C3
:107EF000032244F2293302FB0030801C00F056FFBD
:107F0000012144F2653000F051FFDFF8CC0A00781F
:107F1000401CDFF8C41A08700EB010BDC830002035
:107F2000C4300020B0300020B83000202DE9F84FD8
:107F300004002000DFF8A41A01F090FE05D3200011
:107F4000DFF89C1A01F09CFE00D8BEE02000DFF8AC
:107F5000941A01F083FE0DD25FF02209200001F097
:107F6000A1FE0022DFF8803A01F0D4FE01F0B2FF5A
:107F7000040001E05FF02109DFF8708A03260EE0BB
:107F80001000210001F0EEFF414601F067FE05D22E
:107F90008046B7F10805B01EADF80000761CB6B2F9
:107FA000492E44DA200001F07DFEDFF8442ADFF894
:107FB000443A02F04FF882468B46B6B2300002F0E7
:107FC00077F901F06FFE52465B4601F0A3FE02F026
:107FD0007FF90700BFB2B7F10C00B0F5FE7FDDD22C
:107FE000BFB2380002F064F901F05CFEDFF8002A4D
:107FF000DFF8003A01F08EFE82468B46B6B23000C2
:1080000002F056F901F04EFE02000B0050465946B0
:1080100002F020F801F05EFF02001000210001F0E4
:108020001DFEADD22000110001F09CFFACE7ADB207
:1080300015F1080002F032F901F034FEDFF8B02942
:10804000DFF88C3B01F066FE06000F00BDF8000073
:10805000801C02F023F901F025FE02000B00300025
:10806000390001F0F7FF01F035FF02005FFA89F9EE
:10807000B9F1210F0BD1100001F014FE00225FF0C6
:10808000804301F0E7FF01F025FF02000AE0100045
:1080900001F008FE0022DFF8783C01F0DBFF01F080
:1080A00019FF0200ED01BDF800000543290089B267
:1080B00044F2020000F07AFE5FFA89F959F40041B7
:1080C00089B244F2030000F071FEBDE8F18F70B593
:1080D000002400250026DFF8FC1A02F025F902F042
:1080E0008FF9B0F516700600DFF8280C50F826005E
:1080F0000400DFF8200C50F82600000C05002100D9
:1081000089B244F2020000F051FE290089B244F223
:10811000030000F04BFE70BDBC590108D8420108B5
:10812000F45E010810B584B0062280B2DFF8A4180E
:10813000411800A802F086F900208DF8060000A87A
:1081400002F086F901F0C6FE0400200001F0AAFD4D
:1081500002000B00DFF8C01BDFF8C00B01F0ACFB26
:10816000DFF8B80B01F045FC2000DFF8B41B01F08C
:1081700087FD09D82000DFF8AC1B01F06FFD03D2AA
:108180002000FFF7A4FF02E02000FFF7CFFE1FBD95
:1081900080B5DFF838080068001D80B2FFF7C2FF25
:1081A000DFF8280800680A30DFF87C1B086001BD92
:1081B000F02D002070B582B0040000A8DFF86C1B21
:1081C0000A680260E4B2042C00DB0024E4B221005F
:1081D00089B244F2400000F0E9FD002607E00021EA
:1081E000F6B206F58040413000F0E0FD761CF6B2B4
:1081F000072EF4DBDFF8380B0068E4B200A9615CFD
:10820000B0FBF1F501260BE0F6B206FB05F189B2F1
:10821000F6B206F580404130401E00F0C7FD761CE6
:10822000E4B200A8205CF6B28642EDD373BD000034
:108230000C5B010802310020FB300020F9300020E7
:10824000FA300020085C0108F45C0108045D0108B4
:1082500030B587B002AADFF8DC1ADFF870070068D3
:10826000DFF87037C018001D00F0E4FD029810F030
:108270000F0F04D10120DFF8C01A086026E0029831
:1082800010F00F00012804D10220DFF8AC1A0860BA
:108290001CE0029810F00F00022804D10420DFF83F
:1082A000981A086012E0029810F00F00032804D119
:1082B0000820DFF8841A086008E0029810F00F0028
:1082C000042803D11020DFF8701A08600298DFF844
:1082D0006C1A0870DFF8640A0078010289B24FF462
:1082E000804000F063FD029810F00F00DFF8501A94
:1082F0000870DFF84C0A0078002808D10120DFF868
:10830000441A08600120DFF8D015086036E0DFF875
:10831000300A0078012808D10120DFF8281A086007
:108320000220DFF8B415086028E0DFF8140A0078AE
:10833000022808D10120DFF80C1A08600420DFF8B9
:10834000981508601AE0DFF8F8090078032808D1CA
:108350000120DFF8F01908600820DFF87C150860BC
:108360000CE0DFF8DC090078042807D10120DFF8F1
:10837000D41908601020DFF86015086002AADFF841
:10838000C819DFF848060068DFF84836C018801DB5
:1083900000F050FD02984400E4B2210089B24FF48D
:1083A000824000F003FD03AB02AADFF8A019DFF85A
:1083B0001C060068DFF81C564019C01D00F03AFD8D
:1083C0000298DFF814150968B0FBF1F002900298EA
:1083D000DFF85C1908600398DFF8741908600299E7
:1083E00089B244F2031000F0E1FC039989B244F22F
:1083F000061000F0DBFCDFF8D40500680F3080B217
:10840000FFF790FE04A8009003AB02AADFF844191E
:10841000DFF8B8050068DFF8BC554019153000F0EA
:1084200009FD0298DFF8B0140968B0FBF1F0029082
:108430000398DFF8A4140968B0FBF1F003900498E6
:10844000DFF894140968B0FBF1F0049002980399E6
:10845000081804990818DFF8D8180968091889B2AB
:1084600044F2021000F0A2FC049989B244F2041014
:1084700000F09CFC06A8019005A8009004AB03AA9C
:10848000DFF8D418DFF844050068DFF848554019D4
:10849000203000F0CFFC03980299C9B251EA0021C4
:1084A00089B244F2011000F081FC03980499081885
:1084B00005990818DFF898180968091889B244F274
:1084C000051000F073FC059989B244F2071000F022
:1084D0006DFC0698C0B2FFF76DFE012001F0CBFFE6
:1084E000E4B254F0010189B24FF4824000F05EFC26
:1084F000DFF848080178090251F0EA0189B24FF427
:10850000804000F053FCDFF8C40400682930DFF835
:108510001818086007B030BDE45E0108A8300020DC
:10852000845801081C5C010880B5DFF83018086029
:108530000120DFF82C1808700020DFF828180870D8
:108540000420DFF88814086007E0FFF781FEDFF8F9
:10855000D8070068DFF874140860DFF8700400685A
:10856000DFF8F8170968884280F0488101F09CF92B
:108570000422DFF8F417DFF854040068DFF85434FD
:10858000C01801F049F90028DFD00422DFF8DC1719
:10859000DFF838040068DFF83C34C01801F03CF91B
:1085A000002802D1FFF7F4FDD1E70222B5A1DFF8E0
:1085B0001C040068DFF81C34C01801F02DF90028F5
:1085C00002D1FDF78FFFC2E70322AFA1DFF8FC0362
:1085D0000068DFF80034C01801F01EF9002802D14D
:1085E000FDF7D7FEB3E70322A8A1DFF8E003006898
:1085F000DFF8E033C01801F00FF9002802D1FDF7D1
:10860000EFFEA4E70322A2A1DFF8C0030068DFF8B1
:10861000C433C01801F000F9002802D1FDF70EFFA5
:1086200095E703229BA1DFF8A4030068DFF8A433D9
:10863000C01801F0F1F8002802D1FDF729FF86E704
:1086400000AADFF82C17DFF884030068DFF8843312
:10865000C018801C00F0EEFB0098002800F0CE80CF
:10866000DFF86803006800990818DFF8BC16086096
:10867000DFF858030068401DDFF850130860DFF88A
:10868000E0060078002801D0FCF752FDDFF83C033B
:108690000068DFF84013401810F8050C54281BD16F
:1086A000CA480068CB49401810F8040C412806D08D
:1086B00011D3432809D005D3442809D00BE0FDF796
:1086C000A3FF44E7FEF71AFC41E7FEF7ADFC3EE7E7
:1086D000FEF775FD3BE73AE7BC480068BD49401826
:1086E00010F8050C4C2825D1B8480068B949401845
:1086F00010F8040C43280AD048280BD050280CD07E
:1087000052280DD054280ED056280FD011E0FFF774
:1087100096F81CE7FFF738F819E7FFF7ACF816E70B
:10872000FFF74EF913E7FEF7FBFF10E7FFF744F8FA
:108730000DE70CE7A5480068A649401810F8050C9D
:10874000522811D1A1480068A249401810F8040C21
:10875000482802D0562803D005E0FFF799F9F6E63D
:10876000FFF761FAF3E6F2E6984800689949401885
:1087700010F8050C422813D1FEF784FE93480068D8
:108780009449401810F8040C4D2802D0532803D007
:1087900005E0FEF743FDDAE6FFF78CFAD7E6D6E60A
:1087A0008A4800688B49401810F8050C442811D1FC
:1087B000864800688749401810F8040C422802D007
:1087C000432803D005E0FEF78BFEC0E6FFF712F862
:1087D000BDE6BCE67D4800687E49401810F8050CEF
:1087E00045280BD1794800687A49401810F8040CE4
:1087F000522802D1FFF700FBA9E6A8E6DFF86405DE
:108800000078002816D0DFF86C05007890F00200A0
:1088100050F0010080B20090009989B24FF484407A
:1088200000F0C4FADFF84C05007890F00200DFF8A1
:1088300044150870DFF840050078DFF84015097826
:108840000843DFF83C1509780843DFF83815097844
:1088500008436149097808431E49097808430028FC
:1088600004D001214FF4864000F0A0FADFF818058B
:108870000078002804D1002144F2084000F096FA64
:10888000002002BD43440000434C4E0043425400CC
:108890004346470043424700E05B010810B582B001
:1088A000040000AADFF8E414DFF8E40400F0C2FAE0
:1088B0004FF48052DFF8D814464801F0C3FD009809
:1088C000FFF732FE00212000C0B200F046FB00207E
:1088D00016BD0000F7300020B030002070B586B023
:1088E000040002A8019003A8009004AB05AADFF8D9
:1088F000A414DFF8A40400F09DFA0020DFF89C1413
:108900000880DFF89804018844F2103000F04EFA35
:1089100000250DE00021F6B2EDB2E80010F5C240EE
:10892000301800F043FA761CF6B2082EF2DB6D1C0C
:10893000EDB2082D01DA0026F6E7002510E04FF62B
:10894000FF71F6B2EDB2032044F2113200FB0520B4
:10895000301800F02BFA761CF6B2032EEFDB6D1CFC
:10896000EDB2082D01DA0026F6E70398032148430B
:10897000042190FBF1F000251CE001005A39EDB212
:10898000DFF81C2422F8351001003C39EDB2DFF885
:10899000102412EBC5025180EDB2DFF8041411EB84
:1089A000C50188800299EDB2DFF8F42312EBC5020D
:1089B000D1806D1CEDB2082DDFDB00212000C0B29C
:1089C00000F0CBFA002006B070BD0000AC300020F3
:1089D0006059010808000020FF3000200000E0403E
:1089E000010048430000DC410000104020BCBE4CA8
:1089F000897B2C7DE8A22C407CB5040001AB00AA49
:108A0000DFF8A013DFF8900300F014FA002510E05F
:108A10004FF6FF71F6B2EDB2032044F2113200FBC3
:108A20000520301800F0C2F9761CF6B2032EEFDBF9
:108A30006D1CEDB2082D01DA0026F6E70021019841
:108A4000032244F2113302FB003000F0AFF94FF67D
:108A5000FF710198032244F2113302FB0030401CE5
:108A600000F0A4F900210198032244F2113302FB23
:108A70000030801C00F09AF9019800280CD00228E0
:108A80002ED01BD304284FD03CD3062870D05DD302
:108A9000072800F07F808EE00098012806D1BF48AB
:108AA000008850F00100BD49088006E0BB480088FE
:108AB0004FF6FE710840B94908807CE00098012813
:108AC00006D1B648008850F00200B449088006E09C
:108AD000B24800884FF6FD710840B04908806AE04E
:108AE0000098012806D1AD48008850F00400AB4939
:108AF000088006E0A94800884FF6FB710840A749A6
:108B0000088058E00098012806D1A448008850F059
:108B10000800A249088006E0A04800884FF6F771D7
:108B200008409E49088046E00098012806D19B48ED
:108B3000008850F010009949088006E097480088A6
:108B40004FF6EF7108409549088034E000980128FD
:108B500006D19248008850F020009049088006E035
:108B60008E4800884FF6DF7108408C49088022E06B
:108B70000098012806D18948008850F040008749B4
:108B8000088006E0854800884FF6BF710840834999
:108B9000088010E00098012806D18048008850F035
:108BA00080007E49088006E07C4800884FF67F718F
:108BB00008407A4908807948018844F2103000F072
:108BC000F5F800212000C0B200F0C7F9002076BD02
:108BD000E8A23C400000204170B588B0040004A821
:108BE000029005A8019006A8009007AB03AA6E4961
:108BF000694800F01FF900250DE04FF6FF710320D2
:108C000044F2113200FB0520301800F0CFF8761C3A
:108C1000032EF2DB6D1C082D01DA0026F8E7002197
:108C20000398032244F2113302FB003000F0BEF837
:108C30004FF6FF710398032244F2113302FB003018
:108C4000401C00F0B3F800210398032244F21133D2
:108C500002FB0030801C00F0A9F8069989B2039845
:108C6000C00010F5C240401C00F0A0F803984C4929
:108C700031F830100398C00010F5C240801C00F09D
:108C800095F80398464911EBC00041880398C0004D
:108C900010F5C240C01C00F089F8059989B203980C
:108CA000C00010F5C240001D00F080F8049989B2A0
:108CB0000398C00010F5C240401D00F077F80398FB
:108CC000374911EBC00081880398C00010F5C240FD
:108CD000801D00F06BF80398314911EBC000C1888A
:108CE0000398C00010F5C240C01D00F05FF807995E
:108CF00089B20398C00010F5C24000F057F8002177
:108D00002000C0B200F029F9002008B070BD0000BA
:108D100000002040D84B0108245B01081C2C0020D7
:108D2000000070420100AA42A8300020585F0108EC
:108D3000B8300020EC5E0108C4300020FE30002076
:108D4000F8300020B4300020FC5E0108105E0108FD
:108D5000BC300020145D0108305C0108A430002004
:108D6000F6300020F5300020045F01080C5F010898
:108D7000145F010800310020F9300020FA30002093
:108D8000FB300020FC300020F43000201C5F010884
:108D900011000020445C010815000020E030002094
:108DA000302E00201C5E01083C5B010838B5040031
:108DB0000D004FF6FF70ADF8000010208DF8030095
:108DC00003208DF8020000A9164801F067FB00227D
:108DD0004FF48071144801F0D3FB210089B213488D
:108DE00001F0D7FB290089B20E4801F0D2FB012027
:108DF00001F032FB002240210D4801F0C1FB0120AF
:108E000001F02AFB01224021094801F0B9FB0120B1
:108E100001F022FB01224FF48071034801F0B0FB06
:108E200031BD00000018014000080140001C014055
:108E3000001001400DB400B582B004A800900A46AD
:108E400000AB03A9034878440A3001F0EDFB06BCEF
:108E50005DF810FB6310000010B40022002302E054
:108E60001C5CA2185B1C8B42FADB1000C0B210BC69
:108E7000704770B582B0050000240C31002604E074
:108E800070194078C0B20419761C8E42F8D300AA3B
:108E9000DFF83C197019401CFFF7CCFF761C7019E5
:108EA0008078E4B200998C4206D1C0B2032801D187
:108EB000002002E0FF2000E0FF2076BD2DE9FF4109
:108EC0001C0000275FF000080A9D0B9E0396C0B2AD
:108ED000029000200190D2B20092C9B20B0002228F
:108EE000DFF8F018280000F0E7FC280002F0FEF898
:108EF000070032002100781901F0A4FAF719791E51
:108F0000681CFFF7A9FF804603235FFA88F84246F2
:108F1000DFF8C418781900F0CFFCFF1C380004B04B
:108F2000BDE8F08170B504000D00002608E0DFF810
:108F3000AC080078032802D1305D00F05FFE761C9B
:108F4000AE4208DADFF8940800780128EFD1305DEE
:108F500000F03DFDF3E7002070BD3EB5040002A81F
:108F600000220260C9B20A00DFF8741802A800F0FB
:108F7000A3FC02A802F0BAF80190DFF8680800909C
:108F800002ABA122A2212000C0B2FFF797FF04008C
:108F900000250AE0DFF844080078032804D1DFF850
:108FA0004408285C00F02AFE6D1CA5420ADADFF8AE
:108FB0002C0800780128EDD1DFF82808285C00F0A3
:108FC00006FDF1E700203EBD38B50400002501F0A4
:108FD0005CFAE4B22000102800F0D980112800F0DB
:108FE000DC80122800F0DF80132800F0E2801528D2
:108FF00000F0E580162800F0E880172800F0EB80EC
:10900000212800F0EE80242800F0F180252800F0CF
:10901000F480292800F0F7802A2800F0FA802B2815
:1090200000F0FD802C2800F000812D2800F0038145
:10903000342800F00681352800F00981372800F037
:109040000D813A2800F010813B2800F0F4803D2883
:1090500000F010813E2800F01381412800F01681B5
:10906000422800F01981502800F01C81512800F09E
:109070001F81522800F02281532800F025815428B6
:1090800000F02881552800F02B81562800F02E8111
:10909000572800F03181582800F03481592800F019
:1090A00037815A2800F03A81A02800F03D81A42899
:1090B00000F03A81A52800F03781A62800F034811D
:1090C000A82800F03781A92800F03A81AA2800F0EA
:1090D0003D81AB2800F04081AC2800F04381AD28F1
:1090E00000F04681AE2800F04981AF2800F04C81A5
:1090F000B02800F04F81B12800F05281B22800F072
:109100005581B32800F05881B52800F05B81B6285E
:1091100000F05E81B72800F06181B82800F064811A
:10912000BA2800F06781BB2800F06A81BC2800F0F3
:109130006D81BD2800F07081BE2800F07381BF28CA
:1091400000F07681C02800F07981C12800F07D818F
:10915000C32800F08081C52800F08381C72800F073
:109160008681C82800F08981C92800F08C81CD282B
:1091700000F08F81F32800F09281F42800F08F81B5
:10918000FD2800F09281FE2800F0958199E12000F1
:10919000C0B2FFF783FB050098E12000C0B2FCF7E6
:1091A00018F9050092E100212000C0B2FFF7D5FEBA
:1091B0008CE12000C0B2FCF7EFF8050086E120004A
:1091C000C0B2FFF78BFB050080E12000C0B2FFF7C3
:1091D00013FC05007AE12000C0B2FFF7FDFC05009A
:1091E00074E12000C0B202F0E1F905006EE1200058
:1091F000C0B202F06FFB050068E100212000C0B2A0
:10920000FFF7ABFE62E12000C0B203F07FFB050078
:109210005CE12000C0B203F007FC050056E120002D
:10922000C0B202F0B0FA050050E12000C0B203F075
:10923000ABFA05004AE12000C0B203F001FB0500D3
:1092400044E12000C0B204F099F905003EE100219C
:109250002000C0B2FFF781FE050037E12000C0B258
:1092600003F05EFC050031E12000C0B203F088FD90
:1092700005002BE12000C0B204F0F2F8050025E162
:109280002000C0B204F014F805001FE12000C0B2B5
:1092900003F01FFE050019E12000C0B203F02AFF11
:1092A000050013E12000C0B202F095F905000DE1C0
:1092B0002000C0B202F0A6F9050007E12000C0B20C
:1092C00002F0B5F9050001E12000C0B202F0C4F9D6
:1092D0000500FBE02000C0B202F0D3F90500F5E084
:1092E00000212000C0B2FFF738FEEFE02000C0B23E
:1092F00002F0F1F90500E9E02000C0B202F0CBFA7B
:109300000500E3E02000C0B202F0A6FA0500DDE0AF
:109310002000C0B202F0F4F90500D7E02000C0B28E
:1093200002F003FA0500D1E02000C0B204F0B8FD5D
:109330000500CBE02000C0B204F09EFE0500C5E0B1
:1093400000212000C0B2FFF708FEBFE02000C0B23D
:1093500005F0ACFA0500B9E02000C0B205F014FB3E
:109360000500B3E02000C0B205F084FC0500ADE0CC
:109370002000C0B202F09AF90500A7E02000C0B2B8
:1093800005F0D8FE0500A1E02000C0B202F03AF9D5
:1093900005009BE02000C0B202F0B2F9050095E0A4
:1093A0002000C0B202F0D6F905008FE02000C0B264
:1093B00006F029F9050089E02000C0B206F09EFA07
:1093C000050083E02000C0B205F079FC05007DE0D7
:1093D0002000C0B206F0B5FA050077E02000C0B268
:1093E00004F004FE050071E02000C0B206F037F979
:1093F00005006BE02000C0B204F0CBFE050065E084
:109400002000C0B206F042F905005FE02000C0B2C3
:1094100006F09DFB050059E02000C0B205F006FEF5
:10942000050053E02000C0B204F0CBFD05004DE084
:109430002000C0B204F0E8FE050047E00021200053
:10944000C0B2FFF78AFD050040E02000C0B205F081
:1094500058FA05003AE02000C0B206F08DFA050087
:1094600034E02000C0B204F033FF05002EE02000FD
:10947000C0B204F03BFE050028E02000C0B204F0BA
:109480002CFE050022E02000C0B204F082FE0500A0
:109490001CE02000C0B205F06FF8050016E02000C7
:1094A000C0B205F007F9050010E02000C0B205F0D9
:1094B00037F905000AE02000C0B205F03AF90500CE
:1094C00004E002212000C0B2FFF747FD280032BDB2
:1094D000F0B585B000240025002603A80021002255
:1094E00006C0083800F057FA002805D1FF20ADE08B
:1094F000EDB2012D00D1641C00F0D6F9EDB2012DC2
:1095000013D1B9480088B0F5FA6F03DC41F6A570B5
:1095100084420ADB0020B449088000F07AFA09216D
:109520000920FFF71AFDFF2090E000F034FA002830
:10953000E2D000F03AFA0700AC482754FFB2022FFD
:1095400006D0002C04D1EDB2002D01D1FF207DE02A
:10955000FFB2022F09D1002C07D1EDB2002D04D1AA
:1095600001250120A049088021E0EDB2012D1ED186
:109570000C2C0DD104229E4903A800F063FF00AA21
:109580009C4903A8FFF756FC0098801C00900EE051
:109590000D2C06DB0098012803DB0098401E00908C
:1095A00005E00D2C03DB0098002800D10126FFB256
:1095B000032F9DD1F6B2012E9AD100208A4908804E
:1095C0008A480778FFB2022F01D0FF203EE0012039
:1095D0008249087002AB01AA87498848FFF72AFC34
:1095E00001988749087002988649087001AA78494D
:1095F0008548FFF71FFC019C81480078A12807D10E
:1096000080480078A2280AD07E480078A32806D097
:1096100001212000C0B2FFF7A0FC002016E000AA44
:1096200074497348FFF706FC00997048FFF721FC66
:10963000002806D003212000C0B2FFF78EFCFF20D7
:1096400004E02000C0B2FFF7BFFC002005B0F0BD71
:10965000F0B585B000240025002603A800210022D3
:1096600006C0083800F0AEFA002805D1FF20ADE0B2
:10967000EDB2012D00D1641C00F016F9EDB2012D00
:1096800013D162480088B0F5FA6F03DC41F6A5708B
:1096900084420ADB00205D49088000F0C1FA0921FC
:1096A0000920FFF75AFCFF2090E000F08BFA002819
:1096B000E2D000F091FA07004C482754FFB2022F85
:1096C00006D0002C04D1EDB2002D01D1FF207DE0A9
:1096D000FFB2022F09D1002C07D1EDB2002D04D129
:1096E000012501204949088021E0EDB2012D1ED15C
:1096F0000C2C0DD104223E4903A800F0A3FE00AAC1
:109700003C4903A8FFF796FB0098801C00900EE0F0
:109710000D2C06DB0098012803DB0098401E00900A
:1097200005E00D2C03DB0098002800D10126FFB2D4
:10973000032F9DD1F6B2012E9AD100203349088023
:109740002A480778FFB2022F01D0FF203EE0032015
:109750002249087002AB01AA27492848FFF76AFB93
:1097600001982B49087002982A49087001AA1849E3
:109770002548FFF75FFB019C25480078A12807D109
:1097800024480078A2280AD022480078A32806D0CE
:1097900001212000C0B2FFF7E0FB002016E000AA84
:1097A00014491348FFF746FB00991048FFF761FB87
:1097B000002806D003212000C0B2FFF7CEFBFF2017
:1097C00004E02000C0B2FFF7FFFB002005B0F0BDB1
:1097D000745E01084C5A01087C5E0108EF300020DD
:1097E000845E010810200020DA30002008000020EC
:1097F000110000208C5E0108445D01080900002072
:10980000EA300020EB3000200F000020DC30002088
:10981000EC300020ED3000200300002013F0030F97
:1098200009D0521E22BF13F8010B11F801CBB0EB87
:109830000C00F3D07047121F22BF53F8040B51F8ED
:1098400004CB6045F7D0121D0AD200BA9CFA8CFCFA
:10985000B0EB0C0038BF6FF0000088BF01207047EC
:10986000521E22BF13F8010B11F801CBB0EB0C0014
:10987000F6D0521C08BF1046704710B450F8041BB5
:1098800081B102681218001D50F8043BDC0744BF88
:10989000A9F10104E31852F8044B43F8044B091FE3
:1098A000F9D1EBE710BC70474AF6AA2001490860DD
:1098B00070470000003000400CB41CB5044604A8FA
:1098C00001900A46009401AB00A90748784418307B
:1098D00006F09EF9009A0021117000285CBF0098E4
:1098E000001B16BC5DF80CFB6307000000B587B0D9
:1098F00001214FF4804007F04FF94FF40070ADF8AC
:10990000000003208DF8020018208DF8030000A944
:10991000DFF81C0300F0C2FD4FF48060ADF80000DA
:1099200004208DF8030000A9DFF8040300F0B6FD61
:109930005FF4E13003900020ADF810000020ADF896
:1099400012000020ADF814000020ADF818000C2023
:10995000ADF816000020ADF804000020ADF80600B8
:109960004FF40070ADF808000020ADF80A0003A91C
:10997000B04807F087F901A9AE4807F0D1F90122F4
:1099800040F22551AB4807F0EBF90121A94807F057
:10999000D9F907B000BDA8480078A749497888429E
:1099A00001D0012000E000207047A3480078A249C0
:1099B00040188078A0490978491C9F4A1170C9B2A3
:1099C000FA2902D300219C4A1170C0B2704710B529
:1099D00004008021974807F0EAF90028F9D0E4B2A2
:1099E000964804804021934807F0E1F90028F9D017
:1099F00010BD38B50400002505E0285DFFF7E7FF3E
:109A0000FFF752FF6D1C200001F070FB8542F4D37C
:109A100031BD002088490870002087494870704790
:109A200000B587B001215FF4003007F0C5F80420CD
:109A3000ADF8000003208DF8020018208DF8030017
:109A400000A97B4800F02AFD0820ADF800000420A2
:109A50008DF8030000A9764800F020FD4FF49640F1
:109A600003900020ADF810000020ADF81200002097
:109A7000ADF814000020ADF818000C20ADF8160069
:109A80000020ADF804000020ADF806004FF400708F
:109A9000ADF808000020ADF80A0003A9684807F0F7
:109AA000F1F801A9664807F03BF9012240F225517F
:109AB000634807F055F90121614807F043F907B001
:109AC00000BD604800785F494978884201D0012094
:109AD00000E0002070475B4800785A4940188078C1
:109AE00058490978491C574A1170C9B2FA2902D35A
:109AF0000021544A1170C0B2704710B50400802193
:109B00004F4807F054F90028F9D0E4B24E480480D9
:109B100040214B4807F04BF90028F9D010BD00B5A3
:109B200087B001215FF4802007F046F84FF4806091
:109B3000ADF8000003208DF8020018208DF8030016
:109B400000A9424800F0AAFC4FF40060ADF8000004
:109B500004208DF8030000A93C4800F09FFC5FF44E
:109B6000E13003900020ADF810000020ADF81200A5
:109B70000020ADF814000020ADF818000C20ADF85E
:109B800016000020ADF804000020ADF806004FF4E8
:109B90000070ADF808000020ADF80A0003A92C48B9
:109BA00007F070F801A92A4807F0BAF8012240F23C
:109BB0002551274807F0D4F80121254807F0C2F8BD
:109BC00007B000BD2348007822494978884201D077
:109BD000012000E0002070471E4800781D49401811
:109BE00080781C490978491C1A4A1170C9B2FA29AF
:109BF00002D30021174A1170C0B2704710B504009B
:109C00008021134807F0D3F80028F9D0E4B21248B5
:109C1000048040210E4807F0CAF80028F9D010BD92
:109C200000200C49087000200A4948707047000065
:109C30000008014000380140A828002004380140F5
:109C400000440040A429002004440040000C0140CE
:109C500000480040A02A0020044800404FF0807CCB
:109C60001CEB400F94BF1CEB410F05E040EA010CD8
:109C70005FEA4C0C01D28842704718BF814270479E
:109C80004FF0807C1CEB400F94BF1CEB410F05E0B4
:109C900040EA010C5FEA4C0C01D28142704718BFC8
:109CA000884270475FF0FF0C1CEAD05114BF614539
:109CB00006E0C110400721F0E04101F1605170471A
:109CC00079B900F0004100020AD0B0FA80FC00FA35
:109CD0000CF001F16051A1EB0C5101EBD0214005DA
:109CE000704741020CBF40F4E0016FF0000100201A
:109CF000704750F8041B61B150F8042BD30744BFE0
:109D0000A9F101039A18002342F8043B091FFAD174
:109D1000EFE77047B0B581EA030C0CF0004C40F25D
:109D2000FF7515EA11541DBF15EA1357AC42AF4237
:109D300039E0E41923EA455343F48013C90241F0A2
:109D4000004141EA505EC7021100A7FB0202002851
:109D50004FF00000EEFB01204FF00001E3FB072174
:109D600018BF42F00102401800214941E3FB0E01F7
:109D7000A4F580640F0302D252004041494154F1DE
:109D800001046CDD470872F1004250F1000051EB14
:109D90000451A1F580115CBF41EA0C01B0BD4CEA51
:109DA00005510020B0BD05EA1357AC4214BFAF42C5
:109DB00041E050EA410E1CBF52EA430E02E0614608
:109DC0000020B0BD24423C441BD15FEA070EF6D010
:109DD000090302BF01460020AEF1140EB1FA81F76B
:109DE000AEEB070401FA07FE0C37C7F1200100FAB9
:109DF00007F7C8404EEA000E23EA455343F48013A8
:109E0000A2E733F00043B3FA83F704BFB2FA82FE4D
:109E100077440B3FE41BB7F1200E2FBF02FA0EF37D
:109E2000BB40C7F1200E22FA0EFE38BF43EA0E03F4
:109E3000BA40641C82E750EA410E14BF52EA430E56
:109E40006FF000014FF4001717EB430F8ABF19465C
:109E500017EB410FB5E74CEA05510020B0BDD4F136
:109E60000104B4F120070FDAC4F12007520828BF1B
:109E700042F0010210FA07F501FA07F7E1BF2A43A1
:109E8000E0403843E1400FE0352C98DCC7F1200476
:109E900052EA400220FA07F218BF42F0010231FAFA
:109EA00007F0A1400A43002172F1004250F1000086
:109EB00051EB0C01B0BD03681AB95A1E0260084686
:109EC0007047197811B94FF0FF307047591C016085
:109ED000187870474FEAF17CBCF1E04C2CBFBCF520
:109EE000001F11E05FEA4C0C34BFBCF17F5F2EE035
:109EF0005FEA9C0C4FEA0C1C4FEA3C0CC10071F16C
:109F000000414CEB50707047C90241EA5051C00209
:109F100018BF41F0010141F000414FEA6C50C0F11F
:109F20000900212810D240EACC7CCCF1200C11FA97
:109F30000CF070F10040CCF1200C21FA0CF00CF088
:109F4000004C40EB0C0070474FEACC707047490062
:109F500011F5001F04D84FEACC10FF30C005704740
:109F6000C817704790EA010F44BF81F0004106F026
:109F70006DBF00BF431A4FF000423EBF5340C01AAE
:109F8000C91800BFD3095FEAD05C13EB400F34BFA0
:109F9000B3EB410F40E07CEBD1530CD342EA0121FB
:109FA00022D8D1EB402009D3400A28BF5FEA5001F4
:109FB00040EBCC507047401A15D04002B0FA80F206
:109FC000521C9040400A4FEA3C23B3EB026384BF2B
:109FD00000EB730007E040F400001A16DB07C2F143
:109FE0000102D04018437047182BFCDC31FA03F211
:109FF00002FA03F3591A38BF42F00102D2EB4020B3
:10A000003CBF4000ACF1010C5FEACC5CC20572F1D0
:10A0100000414CEB5020704713EB400F0FD24B0028
:10A0200009D0ACEBD153022B03DB4902172BDDDD4A
:10A0300070479143401A4300D5D10020704713EB7D
:10A04000410FD0D36FF0000070470268531C0360CB
:10A0500011707047F0B540F2FF7581EA030C0CF007
:10A06000004C15EA11541DBF15EA1357AC42AF421C
:10A07000E5E0BC41C1F31301C3F31303801A994116
:10A0800043F4801304D2641E4000494180185941B2
:10A09000C90241EA5051B1FBF3F603FB1611A2FBD2
:10A0A0000675D7EBC020A94102D2761E801859410F
:10A0B000C90241EA5051B1FBF3FE03FB1E11A2FBA2
:10A0C0000E75D7EBC020A94103D2AEF1010E801866
:10A0D0005941890241EA9051760546EA8E2EB1FB3C
:10A0E000F3F603FB1611A2FB0675D7EB8020A941FE
:10A0F00002D2761E80185941C90241EA50514EEAF7
:10A10000060EB1FBF3F603FB1611A2FB0675D7EBA7
:10A11000C020A94102D2761E80185941C90241EAE5
:10A120005051B1FBF3F703FB1711A2FB0735D3EB3B
:10A13000C020A94167F100070CBF004247F00107AA
:10A1400066F3D5274FEA1E31B80814F5806412DD96
:10A15000BD0775F1004250EB0E5051EB045111F563
:10A16000801F5CBF41EA0C01F0BD4CF07F6141F003
:10A17000E0410020F0BDBD076D0840EA0E5041F4FB
:10A180008011D4F10104B4F120060ADAC4F12006EA
:10A190000200E04001FA06F3E1401843B2401543E3
:10A1A0000EE0342C13DCC6F1200445EA40056D08AE
:10A1B00020FA06F2154321FA06F0A1400D430021D2
:10A1C00075F1004250F1000051EB0C01F0BD002090
:10A1D0005FEA0C01F0BDCFB992185B41B3FA83F787
:10A1E00004BFB2FA82F6BF190B3FB7F120062FBFAA
:10A1F00002FA06F3BB40C7F1200622FA06F638BF82
:10A200003343BA401CB1E419641E33E77F4231F096
:10A210000041B1FA81F404BFB0FA80F6A4190B3CF6
:10A22000B4F120062FBF00FA06F1A140C4F12006C8
:10A2300020FA06F638BF3143A0403C1B1AE7AC4277
:10A240001ABF05EA1357AF4212E050EA41061CBF9D
:10A2500052EA4306BFE750EA4107304661461CBF59
:10A2600041EA0551F0BD52EA430C08BFC143F0BDBD
:10A2700000204FF4001616EB410F98BF16EB430F6A
:10A2800008BF16EB410F24BFC14305E016EB430F97
:10A290000CBF61464CEA0551F0BD0000002840F1BA
:10A2A0000980F446404200F005F850F00040604755
:10A2B000002800BF0AD0B0FA80F18840D1F19D019A
:10A2C000C905020672F1004241EB10207047000000
:10A2D000F446400D40EAC120490006D200F014F8CF
:10A2E000004248BF6FF00040604700F00DF84FF0AB
:10A2F000004188428CBF084640426047400D40EA1A
:10A30000C120490080F00D8040F00040490DA1F5CA
:10A310008061491C05D4D1F11F0154BFC840C0174A
:10A3200070474FF000007047FF2212EAD05C1DBF5B
:10A3300012EAD153944593422BE09C44D30780EA20
:10A3400001021A4043EA002043EA0121A1FB003048
:10A35000410038BF40007CF17F010BDBFE294ADA67
:10A360005B0842EAC15153EA006373F1004C51EBC0
:10A3700010207047D1F1080CDCF120012FDB5B08C5
:10A3800010FA01F10B4373F1004120FA0CF0504137
:10A39000704794451CBF02EAD153934280EA010200
:10A3A00002F000421DD0400019D0490017D05BB91F
:10A3B000634514D00902B1FA81F39940BCEB030C58
:10A3C000C00140F00040C1E70002B0FA80FC10FA82
:10A3D0000CF0B3EB0C0CC90141F00041B6E71000E2
:10A3E000704740000AD0490008D010F1807F94BF28
:10A3F00011F1807F02E042F0FF407047D043704788
:10A400004100090E7F3915D4D1F11F0114D4400049
:10A4100007D2C00140F00040C84048BF6FF0004084
:10A420007047C00140F00040C8404CBF4FF00040B2
:10A43000404270470020704700424FF0004058BF34
:10A44000C043704710B5044606F03AFD204610BDE3
:10A450000022002106F014BE10B5040004E000BF85
:10A46000401C0328FBDB641E002C03D0FFF71CFA02
:10A470000020F6E710BD80B506490860FFF714FA22
:10A48000044800680028F9D101BD00200249086095
:10A49000704700006430002070300020F0B40022CB
:10A4A0000026002400250023002791F803C01CF09B
:10A4B0000F0C624691F803C05FEACC6C01D58B7833
:10A4C0001A430B781B0621D00368002406E0CD78E0
:10A4D000482D02D10125A5400561641C082C14D229
:10A4E0000125A5400E882E40AE42F6D1A5000F26CC
:10A4F00016FA05F7BB4312FA05F52B43CD78282D44
:10A50000E5D10125A5404561E7E703600B88FF2BF6
:10A5100026DD4368002420E0012514F10806B5403B
:10A520000E882E40AE4217D1A5000F2616FA05F769
:10A53000BB4312FA05F52B43CD78282D04D1012514
:10A5400014F10806B5404561CD78482D04D10125A8
:10A5500014F10806B5400561641C082CDCD3436087
:10A56000F0BC70470022806889B2084201D0012205
:10A5700000E000221000C0B27047C06880B270478F
:10A58000D2B2002A02D089B2016101E089B24161F0
:10A59000704789B2C160704710B400220F2311F0D8
:10A5A0000304E4B2A400A3401A00C9B28B100E4CFD
:10A5B00054F8233033EA0202C9B28B100A4C44F833
:10A5C0002320C9B28A10084B53F82220C0B211F0E0
:10A5D0000303DBB29B0098401043C9B28910024AC2
:10A5E00042F8210010BC70470800014003460846AD
:10A5F0000169491E0161C268521C0029C26003D46E
:10A6000001220068002118474FF0FF3070470346D1
:10A6100008461146C268521E11F1010FC26002D0F5
:10A6200000220068184770472DE9F04788B00446BB
:10A6300000914FF0FF35186801902E4600200390DE
:10A6400002920FF6A0270FF694286FF0004902E05F
:10A650000298401C0290DDF808A09AF80000A0F1D2
:10A660000903052B09D3202807D0F0B9002EB8BF65
:10A670000026304608B0BDE8F0870398401C0390E0
:10A68000012200980021A047A0F109010529F4D377
:10A690002028F2D00399491E10F1010F0391D7D061
:10A6A000014600980022A047D2E7252809D10AF1E7
:10A6B0000100029001782A2906BF401C0290002167
:10A6C00010E00398401C0390012200980021A0474D
:10A6D0009AF800108842BBD0024600A92046FFF736
:10A6E00096FFC3E700208DF81C1005900AE005993D
:10A6F000494505D001EB810302EB43013039059157
:10A70000401C029002980278A2F130010A29EED38F
:10A7100006950178404606F0B5FC00281DBF02985A
:10A7200010F8011B029000218DF81D109DF81D00EE
:10A73000682801BF02990A78682A622006D06C282E
:10A7400002BF029908786C2804D171208DF81D0091
:10A75000481C029002980178384606F093FCB0B984
:10A760000398401C0390012200980021A047A0F10B
:10A7700009010529F4D32028F2D00399491E10F1CC
:10A78000010F039103D0014600980022A04700A9C1
:10A79000204600F010F8012803DA002E3FF56AAFDA
:10A7A00067E7002E48BF00269DF81E0000283FF4F2
:10A7B0004FAF761C4CE770B505460C460020A077DD
:10A7C000A0680078253858D01C3823D0001F0228F4
:10A7D00020D913381AD0C01E66D0801F1AD0801E10
:10A7E00012D0401E12D0401E022813D9001F0DD0D7
:10A7F000401F13D0401E012808D9001F3BD0801EE7
:10A8000004D0C01E02D055E000224FE02846BDE82B
:10A8100070403BE12846BDE8704030E2207F0028D0
:10A8200035D1607F622808D0682816D06A280BD0FE
:10A830006C2819D0712807D016E06068011D61608E
:10A840000068E168017022E06268101D60601268B3
:10A85000E068C117C2E9000119E06068011D61608C
:10A860000068E168018012E06068011D61600068B5
:10A87000E16801600BE0012218E00122E068401C61
:10A88000E06000212068A8470646252E01D101205E
:10A8900070BD324621462846FFF7B9FE16F1010F7A
:10A8A00008D14FF0FF3070BD4FF0FF322846BDE8B1
:10A8B000704021E0002070BDC9B207E003789942E2
:10A8C000A4BF83788B4213DAC01CD21E032A0AD39A
:10A8D00043782D2BF2D010F8013B8B4218BF521E4B
:10A8E000F4D105E0521E2AB110F8013B8B42F9D198
:10A8F00001207047002070472DE9F04F17460024D3
:10A90000002583B082460E46002F29D5B068401C32
:10A91000B06000785E2806D1B068401CB060401E70
:10A920000078019000E00194B06801785D2908BFCB
:10A93000401C5D2106F0A6FB002800F09E80D6F8A2
:10A940000880A0EB08010091B0600098032807DBA5
:10A95000821E2D2108F1010006F0A0FB00B10124A8
:10A960007069012804DA002F14BF6FF00040012045
:10A970003061307F68B97068011D7160D0F8009057
:10A9800007E009F801BB0120B077B069401EB06153
:10A9900002253069401E3061F168491C0028F160D1
:10A9A00010D4012230680021D04783461BF1010FEB
:10A9B0004DD0012F09DBABF10900052847D3BBF1CE
:10A9C000200F1CE04FF0FF3B41E0002F38D50198ED
:10A9D000002C0CD10028009A5946404603D106F0BD
:10A9E0005DFBA0B32CE006F059FB80BB28E0009A89
:10A9F000002806D159464046FFF75EFF00281FD1C8
:10AA000025E05FFA8BF0414607E00B789842A4BF3F
:10AA10008B7883421BDAC91CD21E032A0ED34B78D3
:10AA20002D2BF2D011F8013B834218BF521EF4D1F6
:10AA30000DE011F8013B834209D0521E002AF8D1E3
:10AA4000307F0028A4D1B06900289AD101255A4648
:10AA500031465046FFF7DBFD0FB1022D09D0022D24
:10AA600010D0E80702D41BF1010F06D14FF0FF30E0
:10AA700009E0307F30B9B06908B9002003E0002058
:10AA800089F80000012003B0BDE8F08F2DE9F04304
:10AA90000C4689B0804660690128B8BF6FF000405D
:10AAA00020610DF100094046FFF7A0FD05462B2D62
:10AAB00018BF2D2D08D18DF800500DF10109214648
:10AAC0004046FFF793FD0546A068007800276428FC
:10AAD00014BF75280A260DD0692808BF002609D0A2
