:020000040800F2
:10000000A0170020B9470008D5450008D7450008CB
:10001000D9450008DB450008DD4500080000000068
:10002000000000000000000000000000E1450008A2
:10003000DF45000800000000E3450008E545000832
:10004000E7450008E9450008EB450008ED450008D4
:10005000EF450008F1450008F3450008F5450008A4
:10006000F7450008F9450008FB450008FD45000874
:10007000FF45000801460008034600080546000841
:1000800007460008094600080B4600080D46000810
:100090000F460008114600081346000815460008E0
:1000A00017460008194600081B4600081D460008B0
:1000B0001F46000821460008234600082546000880
:1000C00027460008294600082B4600082D46000850
:1000D0002F460008314600087D4600087F4600088C
:1000E00081460008834600088546000887460008C8
:1000F000894600088B4600088D4600088F46000898
:100100009146000893460008954600089746000867
:10011000994600089B4600089D4600089F46000837
:10012000A1460008A3460008A5460008A746000807
:100130002DE9F04FA1B0824602AE002017461D46C1
:10014000029170620DF144080AE017F8011B029851
:10015000D0470290002800F0DA82706A401C70627A
:10016000387808B9706AD4E22528EED10020F06012
:1001700030617061B061F061306201E040F0010017
:1001800017F8011F2029F9D023290DD02B2904D0DD
:100190002D2906D030290AD00CE040F0020080B2B0
:1001A000EEE740F00400FAE740F00800F7E740F01F
:1001B0001000F4E72A290DD129680A1D2A60096870
:1001C000F162002904D5494240F00400F16280B296
:1001D0007F1C13E00021F1620BE0F16A6FF0004335
:1001E000994205D001EB810302EB43013039F16202
:1001F0007F1C3A78A2F130010A29EED339782E29F2
:1002000003D04FF0FF31B1621EE017F8011F2A2919
:1002100006D129680A1D2A607F1C0968B16213E0B3
:100220000021B1620BE0B16A6FF00043994205D042
:1002300001EB810302EB43013039B1627F1C3A7854
:10024000A2F130010A29EED330860FF650403978FA
:1002500000F048FE08B117F8010B8DF83A009DF840
:100260003A00682802BF39786829622005D06C28D6
:1002700004BF38786C2803D171208DF83A007F1CB8
:1002800011A8B0603978B1F1250029D01C3800F0F0
:10029000C080001F022840F2BC80133800F0E480C8
:1002A000093800F0B680801E00F07781401E00F013
:1002B0002081401E022840F2AC80001F00F019810E
:1002C000401F7BD0401E00F0CF80401E22D0C01EB9
:1002D0000BD0801E00F0C880C01E00F0C58064E115
:1002E000F068411CF160252169E12868011D296041
:1002F0000068B26A7060002A02D500F00FFE07E0C5
:10030000002100F035FE00281ABF7168401AB06A5B
:10031000306156E12868011D296000210068CDE99F
:1003200000014FF03C0E11A87060DDE9000111B929
:1003300008B9B26ACAB10206120FA0EB021230323B
:10034000AEF10103D2B29E463A2AA8BF2732000975
:1003500003F8082040EA0170090908BF002804D00A
:10036000726811AB73449A42E5D311A9714471606C
:10037000CEF13C00B16A3061884207DA081AB061F8
:100380004FF6EF71308E084030861AE1002940F1B7
:10039000188196F8301001F01401102940F01181F5
:1003A000F16AF268891AB269891AA1EB000EBEF1EE
:1003B000010FC0F20681C6F818E002E19DF83A008C
:1003C000622818D0682806D06A280BD06C2819D06B
:1003D000712807D016E02868011D29600068716A3D
:1003E0000180EEE02A68101D28601268706AC1174B
:1003F000C2E90001E5E02868011D29600068716A12
:100400000170DEE02868011D29600068716A0160E2
:10041000D7E02868C01D20F00700286000F108021E
:100420002A60D0E90023CDE90023002B04D5F06831
:10043000421CF2602D220DE0308E820704D5F06858
:10044000421CF2602B2205E0C00705D5F068421C73
:10045000F260202200F80820F06811AA801870606D
:1004600000A800F0DDF9ACE09DF83A006C2808BF68
:100470002A6811D0712808BF2A6802D02A686A2821
:100480000AD1D21D22F007022A60144604F10802A4
:100490002A60D4E9002303E0131D2B6000231268B7
:1004A000CDE90023682808BF92B207D0622808BFB0
:1004B000D2B203D0742818BF7A2802D10023CDE924
:1004C000002396F8300000075FD5DDE90023002BFC
:1004D00008BF002A59D041F02000782855D1F06893
:1004E000302200F80820401C421CF26000F808107E
:1004F0004BE09DF83A0062280CD0682810D06A289A
:100500001AD06C2823D0712816D074281FD07A28CE
:100510000CD01CE02868021D2A6090F900201AE027
:100520002868021D2A60B0F9002014E02868021D26
:100530002A60002302680FE02868C01D20F0070031
:10054000286000F108022A60D0E9002304E028684E
:10055000021D2A600268D317CDE90023002B04DABC
:10056000F068421CF2602D220DE0308E820704D527
:10057000F068421CF2602B2205E0C00705D5F06848
:10058000421CF260202200F80820F06811AA8018AE
:10059000706000A800F0C0F813E0F068411CF16042
:1005A00029680A1D2A60096809E0F068421CF260A7
:1005B000252200F8082021B1F068421CF26000F802
:1005C0000810F06AF168401AB169401A3169401A9E
:1005D000F169401A7169401A316AA0EB010996F875
:1005E00030007F1C400710D420208DF840000024EC
:1005F00009E0012310AA00A9504600F038FC0028A9
:1006000040F08580641C4C45F3DBF4680DF1440B2D
:100610000AE01BF8011B0298D0470290002876D010
:10062000706A401C7062641E002CF2D130208DF87C
:1006300040004FF0000BB46909E0012310AA00A9A3
:10064000504600F014FC002861D10BF1010BA345CA
:10065000F3DB3469D6F804B00AE01BF8011B0298FA
:10066000D0470290002852D0706A401C7062641E0D
:10067000002CF2D130208DF840004FF0000BF469CF
:1006800009E0012310AA00A9504600F0F0FB002861
:100690003DD10BF1010BA345F3DB3069716874693F
:1006A00000EB010B09E01BF8011B0298D0470290F8
:1006B00068B3706A401C7062641E002CF3D1302055
:1006C0008DF840004FF0000B346A08E0012310AAB7
:1006D00000A9504600F0CBFBC8B90BF1010BA345B4
:1006E000F4DB96F8300040077FF53AAD20208DF816
:1006F0004000002400E0641C4C45BFF631AD0123EE
:1007000010AA00A9504600F0B2FB0028F3D04FF029
:10071000FF3021B0BDE8F08F2DE9FA4E05460A46BC
:100720002F696F2A08BF082405D041F020007828DF
:1007300014BF0A241024D5E900013C2681468B46CB
:10074000642A18BF692A05D1002903DAD9F1000902
:100750006BEB4B0BBBF1000F08BFB9F1000F0CD1D5
:10076000286B50B9082C36D195F83800000732D5DF
:1007700030203B2687F83B002DE0E31748465946DA
:10078000224600F021FCA4FB0023A9EB0202303238
:10079000A6F1010AD2B256463A2A03DB9DF8003090
:1007A000513B9A180AF8072081465FEA010B08BFFF
:1007B000B9F1000F03D0E868F1198842DDD3082CA5
:1007C00009D195F83800000705D5F05D302802D032
:1007D000761E3020F055C6F13C00A861F119E960A1
:1007E000296B884208DA081A28624FF6EF71288FC1
:1007F00008402887BDE8F38E00290ED595F83810FB
:1008000001F01401102908D1696B6A69891A2A6AF2
:10081000891A081A0128A8BF2862BDE8F38E0000D3
:100820002DE9F04F07468FB08B46D7E90001CDE99F
:10083000020104AE4BF0200061280BD0386B002879
:1008400048BF062005D404BF4BF02000672801D123
:10085000012038637968C1F30A5040F2FF72904278
:100860001AD1080304BF3868002808D10320B861F2
:10087000ABF161001A2835D30FF2346107E0032091
:10088000B861ABF161001A2829D30FF21C61F86836
:10089000032200F015FCB6E1012816DA384600F014
:1008A0004AFC012811DB002400204BF020016129C3
:1008B0001FD1F968302201F8012B4A1CFA60BBF104
:1008C000610F0CBF782258220FE07A6840F2FE31A7
:1008D00061F31E52441A7A604FF0FF30E5E70FF2E1
:1008E000C451D4E70FF2C451D1E70A707969891C69
:1008F000796110B9002500247DE14BF020006128CA
:1009000040F09580386B00284CBF2125451CDDE95F
:1009100002012DB26E1CD7E900890022002300F0ED
:100920002BFC3ABF89F00040CDE90280CDE9028975
:10093000241F8DF810200DF1110A01E000F2070AC2
:10094000012E32DBDDE902010022002300F02CFC45
:100950002BD21C2102A800F03FFCDDE9020100F0CF
:10096000C1FCF61F8046012E09DB00F0E7FC0246C1
:100970000B46DDE9020100F0F9FCCDE902010AF2C3
:100980000700072105E008F00F0200F8012D4FEAEB
:100990002818B8F1010F01DB491EF4D5491E5CBFD0
:1009A000002200F8012DF9D5C8E70DF11100AAEBDE
:1009B00000010DF11106A942B8BF0D462DB2280065
:1009C0002ED4884206DA04A9411849780829A8BF1C
:1009D0000F2100DA002104AA821800E06D1E12F82F
:1009E0000139401E8B42F9D00F2904D104A94118C6
:1009F0004A78521C4A70002802D504AE6D1C241D92
:100A00002DB2681E0CD48119ABF13A030A7830324A
:100A1000D2B23A2AA8BF9A1801F80129401EF5D58A
:100A2000386B002840F1E780681E3863E3E0DDE9B9
:100A300002010022002300F09FFB3CBF81F0004137
:100A4000CDE9020124B247F2975060434849DFF8EC
:100A500024A190FBF1F424B2C4F107050026012D76
:100A600019DBDDE90289E80707D5324653464046DF
:100A7000494600F03BFD804689466D1030465146A0
:100A80003246534600F032FD06468A46002DEAD132
:100A9000CDE9028921E06D429046DFF8DC9012E05A
:100AA000E80707D5324653464046494600F01EFD4A
:100AB000804689466D10304651463246534600F016
:100AC00015FD06468A46002DEAD1DDE902014246BF
:100AD0004B4600F0DDFDCDE902014BF02000662819
:100AE0000CBF04F10A000620396B4518142DA8BF6D
:100AF000132530208DF810000DF11106DFF87C90E1
:100B0000012D3DDBDDE9020100F002FC06F10801E8
:100B100004220A23B0FBF3F303EB8306A0EB4600A9
:100B2000303001F8010D0A20B3FBF0F000EB800635
:100B3000A3EB4603303301F8013D521EE9D1083DD5
:100B400001F10806012DDBDBDDE9020100F0E0FB2D
:100B500000F0FEFB02460B46DDE9020100F006FC58
:100B600000224B4600F0C2FCCDE90201CAE700BFFB
:100B7000A0860100000024400000F03F84D7974188
:100B80000DF11100301A0DF1110602E0401E641E35
:100B9000761C31783029F9D04BF02001662902D13A
:100BA00024B2611C03E065290CBF012100213A6BCE
:100BB0008D182DB2A842B8BF05462DB229001AD40F
:100BC000814204DA885D3528A8BF392000DA302058
:100BD0008A19521E00E06D1E12F80139491E834227
:100BE000F9D0392802D1885D401C8855002902D5EA
:100BF000761E6D1C641C24B200942BB232465946FA
:100C0000384600F003F80FB0BDE8F08F2DE9F0434F
:100C1000054685B01E46D5F8308089461746012E18
:100C200002DA01260FF28C2749F02000BDF930408E
:100C3000662808BF641C17D0672840F0818014F133
:100C4000040FC0F28380444580F2808095F838001C
:100C5000641C000702D44645B8BFB04624B2B8EBC6
:100C6000040848BF4FF00008E868A96924B2012CC5
:100C700025DA30234A1C0B54B8F1010F03DA95F83A
:100C80003810090702D52E211154521CAA6118EB05
:100C9000040FB8BFC8F1000424B26142A0446962E5
:100CA000B045B8BF464636B2EE613246AB6939460A
:100CB000181800F005FAA8EB0600A862C0E00818B2
:100CC000A64218DA3246394600F0FAF9A9697118D5
:100CD000A961A01B6862B8F1010F03DA95F838002A
:100CE000000705D5EA682E208854E869401CE861B1
:100CF000C5F82880A4E02246394600F0E1F9A86949
:100D00002018361BB8F1010F03DA95F838100907DF
:100D100003D5EA682E218154401C36B2A861B04543
:100D2000B8BF4646EB6836B23246E119C01800F04B
:100D3000C7F9A8693018A861A8EB060068627FE0CF
:100D4000B9F1610F16D14FF0700918E0464504DA89
:100D500095F83810090758BFB046B8F1010848BFE8
:100D60004FF00008B9F1670F14BF4FF045094FF07D
:100D7000650904E0B9F1410F08BF4FF05009A969B6
:100D8000E86817F8013B0B544A1CB8F1010F05DA6B
:100D900095F83810090758BFAA6117D52E211154AC
:100DA000531CAB61B8F1010F10DB761E36B2B045B3
:100DB000B8BF464636B232463946181800F080F9B8
:100DC000A8693018A861A8EB06006862A869E968FC
:100DD0004718200007F8019B03D42B2007F8010BCC
:100DE00003E02D2107F8011B644200260DF10808DD
:100DF00008E00A2200A800F06EFD019808F8010B37
:100E0000761C009C21B20129F3DA022E06DA49F0A1
:100E10002000652804BF302007F8010B4EB93020B0
:100E200007F8010B07E0761E02A8305C303007F8A7
:100E3000010B012EF7DAA869E9684018381AE86151
:100E400095F8380000F0140010280DD16869A969E0
:100E50000818696A0818E9690818A96A0818696B06
:100E60008842BCBF081A286205B0BDE8F083F8B517
:100E700004460D4616461F46002004E0E86A401C62
:100E8000E8627F1E002047B116F8011BA868A04742
:100E9000A8600028F2D14FF0FF30F2BD686A6C7490
:100EA0007A4C00006E616E004E414E00696E660025
:100EB000494E4600300010B450F8041B81B102685E
:100EC0001218001D50F8043BDC0744BFA9F10104CF
:100ED000E31852F8044B43F8044B091FF9D1EBE730
:100EE00010BC70470278C9B28A421AB11CBF10F810
:100EF000012FF9E718BF0020704750F8041B61B1BB
:100F000050F8042BD30744BFA9F101039A1800231A
:100F100042F8043B091FFAD1EFE7704700F10103E3
:100F2000810704D010F8011B89B18107FAD102684A
:100F3000B2F10131914311F0803F04BF50F8042F0A
:100F4000F6E710F8011B11B110F8011BFBE7C01AFE
:100F5000704703681AB95A1E02600846704719782C
:100F600011B94FF0FF307047591C01601878704775
:100F7000C9B2830706D0521E22D310F8013B994212
:100F8000F7D11FE0083A13D302F1040241EA01212C
:100F900041EA014150F8043B121F21BF4B40A3F12D
:100FA000013C2CEA030C1CF0803FF3D0C9B2001FB7
:100FB000083210F8013B521E28BF91EA030FF8D8FF
:100FC00018BF0120401E70471B4213D1094236D181
:100FD0002AB18446B0FBF2F002FB10C2704700F069
:100FE00081BCFCD30022002370470B0002000021CB
:100FF00000207047904271EB030CF6D370B5B1FA44
:1010000081F4B3FA83F52C1BA340C4F1200532FA16
:1010100005F63343A2405FF00046E64002E05B087D
:101020005FEA3202841A71EB030524BF2046294689
:101030007641F4D302000B003000002170BD012A7C
:10104000CFD970B5140C20D0B1FA81F4B2FA82F580
:10105000C4F120046419B4F12006D6D3B2405FF085
:101060000044F440002502E052085FEA3303C61A48
:1010700071EB020E24BF3046714664416D41F3D3DB
:1010800002000B002000290070BD0C46B1FBF2F1FC
:1010900002FB11452D0445EA1045B5FBF2F402FBB5
:1010A000145580B240EA0545B5FBF2F002FB105240
:1010B00040EA044070BD0268531C03601170704721
:1010C00062B38B0708D0521E11F8013B00F8013BB8
:1010D00000F024808B07F6D1830740F0208000BF0A
:1010E000103A07D330B4B1E83810103AA0E83810FD
:1010F000F9D230BC530724BFB1E80810A0E80810AB
:1011000044BF51F8043B40F8043BD20724BF31F8F8
:10111000022B20F8022B44BF0B7803707047083A6B
:1011200007D3B1E80810083A40F8043B40F804CB74
:10113000F7D25307E4E730B4436803F000420121DB
:101140001B031B0B436004BF0368002B08D10DE099
:101150000368DD0F45EA440444605B000360491EF8
:101160004468E302F4D523031B0B436043681A432E
:101170004260084630BC70474FF4001C1CEB410F26
:1011800094BF1CEB430F09E041EA030C50EA4C0CFE
:1011900052EA0C0C03D2994208BF9042704714BF28
:1011A0008B428242704700004FF4001C1CEB410F41
:1011B00094BF1CEB430F09E041EA030C50EA4C0CCE
:1011C00052EA0C0C03D28B4208BF8242704714BF14
:1011D000994290427047000070B504460D46606821
:1011E000C0F30A5040F2FF71884207D160680003E3
:1011F00004BF2068002817D0022070BD20B9204607
:10120000FFF799FF012867DA012D0FDB40F2FF712C
:10121000091A8D420AD36068002847BF00202F4971
:1012200000202F49C4E90001012070BD4142A942BC
:10123000616806DA6FF31E51401941EA00506060A0
:1012400041E0401E63680122451962F31F5305F116
:10125000350001F000416360352803D36160002050
:10126000206070BD002215F11F0F04DA2268236090
:10127000002020356060684213D0521E25689241DC
:10128000C0F12003D2439D4045EAD27225686668CA
:10129000C54006FA03F32B432360636823FA00F08A
:1012A0006060606808436060B2F1004F03D80DD100
:1012B0002078C0070AD52068401C2060206828B923
:1012C0006068401C60604FF0FF3070BD606888420D
:1012D00004BF20680028F6D1002070BD0000F0FF98
:1012E0000000F07FF446400D40EAC120490006D2DC
:1012F00000F014F8004248BF6FF00040604700F073
:101300000DF84FF0004188428CBF084640426047CC
:10131000400D40EAC120490080F00D8040F00040BF
:10132000490DA1F58061491C05D4D1F11F0154BFBD
:10133000C840C01770474FF000007047010040F1EF
:101340000980F446404200F005F851F00041604742
:10135000010000BF09D0B0FA80F18840C91CC1F576
:101360008461090501EBD0214005704770B44FF04E
:10137000004591EA030F44BF6B4000F0BFBA00BFC5
:10138000841A71EB030604D26E40001BB14112199E
:1013900073414FF4001C1CEB410F34BF7CEB430640
:1013A00084E00C0DA4EB1356362E7DDC012E43DCBD
:1013B00045EAC32343EA525312BFD20292025B08AA
:1013C000240545EAC12141EA5051D2EBC0209941A0
:1013D00025D407D1B0FA80F610FA06F164D00020C7
:1013E000203608E0B1FA81F6B140C6F1200220FAB9
:1013F00002F21143B0404FEAF474B4EB465434F0B7
:1014000001064FEA74040AD8D6F50016760D04F0EA
:101410000044F04061FA06F25040F1404840C00AF2
:1014200040EA415021F0004128BF5FEA500550F1E9
:10143000000044EBD12137E045EAC323DB0A45EA4B
:10144000C121C90AB6F120050EDD42EA0242120CA2
:10145000C5F1200603FA06F6EB4042EA06056D42A6
:10146000984161F100010DE062FA06F5F240554045
:1014700063FA06FC82EA0C02F3405A406D42904146
:1014800061EB030111F4801F05D1641E620502D0D7
:101490006D004041494121F48011430875F100433A
:1014A00050F1000041EB045170BC70471CEB410F40
:1014B00015D223F0004352EA43060BD04FEA4C0CFE
:1014C000BCEB410F04D80C0D661E342EB7DDEBE7E4
:1014D000801A994150EA410608BF0021E4E708BF9D
:1014E0001CEB430F28BF6FF00001DDE7B0B581EAC8
:1014F000030C0CF0004C40F2FF7515EA11541DBFAF
:1015000015EA1357AC42AF4239E0E41923EA4553D8
:1015100043F48013C90241F0004141EA505EC70222
:101520001100A7FB020200284FF00000EEFB012093
:101530004FF00001E3FB072118BF42F00102401801
:1015400000214941E3FB0E01A4F580640F0302D2A0
:1015500052004041494154F101046CDD470872F1E9
:10156000004250F1000051EB0451A1F580115CBF25
:1015700041EA0C01B0BD4CEA05510020B0BD05EABE
:101580001357AC4214BFAF4241E050EA410E1CBFBA
:1015900052EA430E02E061460020B0BD24423C44C2
:1015A0001BD15FEA070EF6D0090302BF01460020F7
:1015B000AEF1140EB1FA81F7AEEB070401FA07FEA3
:1015C0000C37C7F1200100FA07F7C8404EEA000EB9
:1015D00023EA455343F48013A2E733F00043B3FA00
:1015E00083F704BFB2FA82FE77440B3FE41BB7F1E6
:1015F000200E2FBF02FA0EF3BB40C7F1200E22FAD5
:101600000EFE38BF43EA0E03BA40641C82E750EA7C
:10161000410E14BF52EA430E6FF000014FF4001761
:1016200017EB430F8ABF194617EB410FB5E74CEA9A
:1016300005510020B0BDD4F10104B4F120070FDA48
:10164000C4F12007520828BF42F0010210FA07F542
:1016500001FA07F7E1BF2A43E0403843E1400FE0D9
:10166000352C98DCC7F1200452EA400220FA07F238
:1016700018BF42F0010231FA07F0A1400A430021ED
:1016800072F1004250F1000051EB0C01B0BD0000BE
:10169000F0B540F2FF7581EA030C0CF0004C15EA3E
:1016A00011541DBF15EA1357AC42AF42E5E0BC41EF
:1016B000C1F31301C3F31303801A994143F4801358
:1016C00004D2641E4000494180185941C90241EAD0
:1016D0005051B1FBF3F603FB1611A2FB0675D7EBD5
:1016E000C020A94102D2761E80185941C90241EAA0
:1016F0005051B1FBF3FE03FB1E11A2FB0E75D7EB9D
:10170000C020A94103D2AEF1010E801859418902CF
:1017100041EA9051760546EA8E2EB1FBF3F603FBC3
:101720001611A2FB0675D7EB8020A94102D2761EC6
:1017300080185941C90241EA50514EEA060EB1FBE8
:10174000F3F603FB1611A2FB0675D7EBC020A941E7
:1017500002D2761E80185941C90241EA5051B1FBAC
:10176000F3F703FB1711A2FB0735D3EBC020A94108
:1017700067F100070CBF004247F0010766F3D52769
:101780004FEA1E31B80814F5806412DDBD0775F10B
:10179000004250EB0E5051EB045111F5801F5CBF1D
:1017A00041EA0C01F0BD4CF07F6141F0E0410020C6
:1017B000F0BDBD076D0840EA0E5041F48011D4F130
:1017C0000104B4F120060ADAC4F120060200E04068
:1017D00001FA06F3E1401843B24015430EE0342C01
:1017E00013DCC6F1200445EA40056D0820FA06F234
:1017F000154321FA06F0A1400D43002175F1004286
:1018000050F1000051EB0C01F0BD00205FEA0C012B
:10181000F0BDCFB992185B41B3FA83F704BFB2FAB7
:1018200082F6BF190B3FB7F120062FBF02FA06F36D
:10183000BB40C7F1200622FA06F638BF3343BA4050
:101840001CB1E419641E33E77F4231F00041B1FA64
:1018500081F404BFB0FA80F6A4190B3CB4F1200661
:101860002FBF00FA06F1A140C4F1200620FA06F6C7
:1018700038BF3143A0403C1B1AE7AC421ABF05EA0F
:101880001357AF4212E050EA41061CBF52EA43062A
:10189000BFE750EA4107304661461CBF41EA0551A7
:1018A000F0BD52EA430C08BFC143F0BD00204FF425
:1018B000001616EB410F98BF16EB430F08BF16EB4F
:1018C000410F24BFC14305E016EB430F0CBF614637
:1018D0004CEA0551F0BD91FBF2F303FB1211C0E994
:1018E000003170477047000070B44FF0004591EA36
:1018F000030C44BF6B40FFF743BD00BF841A71EB7C
:10190000030603D2001BB141121973414FF4001CAE
:101910001CEB410F34BF7CEB430443E00C0DA4EB04
:101920001356352E50DC45EAC323DB0A45EAC121B4
:10193000C912B6F120050DDD63FA05F6EB4086EA23
:101940000305124218BF45F00105C01851F100010E
:101950000CD213E062FA06F5F2405540F3415A40CA
:10196000B340F3405A408018594107D349085FEA11
:1019700030005FEA350528BF45F0010501F580110B
:10198000420875F1004250F1000041EB045170BC77
:101990004FF4001C1CEB410F38BF70470020090DAD
:1019A000090570471CEB410F10D252EA43060BD0D9
:1019B000BCEB410F05D80C0DAB43661E342EB5DDD4
:1019C00002E0AB438018594170BC704770BC70474F
:1019D00010B40022DFF898371A60002208E0DFF820
:1019E00090371B68145CE318DFF884472360521CAF
:1019F0008A42F4DBDFF878070068C0B210BC704799
:101A000070B586B004000D002800FFF787FA0600C5
:101A100004950396E4B2029400200190A120009066
:101A2000A2230222DFF84017DFF8480700F0A4FDE8
:101A3000DFF84007FFF772FA0600711EDFF82C0787
:101A4000FFF7C6FFDFF8301708700323DFF8280719
:101A50000278DFF82817DFF81C07301800F08CFD3B
:101A600006B070BD10B50400C9B20A00DFF8101747
:101A7000DFF8100700F080FDDFF808172000C0B283
:101A8000FFF7BEFFDFF8EC0600F0BEFD10BD10B59D
:101A90000021DFF8DC2611600C3000240CE0DFF8B8
:101AA000E81661184978DFF8C8261268C9B28918A3
:101AB000DFF8BC261160641C8442F0D30020DFF8FC
:101AC000CC160860DFF8C426DFF8C416DFF8B806C5
:101AD0002018401C00F0A6FD641CDFF8AC0620189E
:101AE0008178DFF88C060068C0B2DFF8A0261268A3
:101AF000904207D1C9B2032901D1002004E05FF070
:101B0000FF3001E05FF0FF3010BD80B5DFF88416D4
:101B1000DFF8700600F030FDDFF86806FFF7FEF929
:101B2000DFF86016DFF870261160DFF87016DFF856
:101B30007026116000210EE0DFF864261268121D85
:101B4000DFF85C361A60DFF850261268121DDFF8E5
:101B500048361A60091D81420ADADFF84426126805
:101B60001268DFF834361B681B689A42E4D016E02E
:101B700000F095FDDFF82C060068DFF82C160860F1
:101B8000DFF824060068DFF824160860DFF8200676
:101B9000006880F30888DFF814060068804701BDFC
:101BA0007FB500F003FD0400E4B2002C0DD100204D
:101BB0008AE2DFF800060068012806D1DFF8F805A0
:101BC0000068401CDFF8F015086000F0EFFC00280A
:101BD00000F0D98000F0F4FC0400DFF8DC050068B8
:101BE000DFF8A4154454E4B2022C1BD1DFF8C80579
:101BF0000068DFF8C01509680843002812D10120E9
:101C0000DFF8B01508600020DFF8B015086000208C
:101C1000DFF8A4150860DFF8A0050068DFF8681594
:101C200044544AE0DFF88C050068012845D1DFF80C
:101C3000880500680C2820D1DFF84C05407ADFF8D1
:101C400044150870DFF84005807ADFF838154870D1
:101C5000DFF83405C07ADFF82C158870DFF8280526
:101C6000007BDFF82015C870DFF85425DFF8541525
:101C7000DFF8100500F0D6FC1FE0DFF83C05006837
:101C80000D280CDBDFF838050068012807DBDFF8DA
:101C900030050068401EDFF8281508600DE0DFF809
:101CA000180500680D2808DBDFF814050068002817
:101CB00003D10120DFF804150860E4B2032C7FF49F
:101CC00078AFDFF8F804006801287FF472AFDFF81E
:101CD000E8040068401CDFF8E01408600021DFF829
:101CE000A82481540020DFF8CC1408600020DFF81D
:101CF000CC1408600020DFF8C014086003AB01AA10
:101D0000DFF8C414DFF8C40400F08CFC0198DFF89D
:101D1000C01408700398DFF8BC14087001AADFF83B
:101D20007014DFF8B40400F07DFC019C00AADFF819
:101D30009414DFF8A80400F075FC0098FFF7A7FEE4
:101D40000500002D21D1E4B2F32C03D00020DFF8F0
:101D5000B8170870E4B2200020280ED0F0281CD05C
:101D6000F22800F0DD80F32800F04481FD2800F027
:101D70008A81FE2800F08D81A0E100212000C0B200
:101D8000FFF770FE9FE100209EE105212000C0B218
:101D9000FFF768FE5FF0FF3096E1DFF8700700782C
:101DA000022802D05FF0FF308EE102AADFF8601750
:101DB000DFF8600700F036FC029810F5A040B0F59F
:101DC0007E3F0BDB0020DFF8501708700921200050
:101DD000C0B2FFF747FE5FF0FF3075E102980028C0
:101DE0001BD10120DFF830170870DFF8B00300F0D6
:101DF0005FFCDFF828170870DFF820070078042858
:101E00000BD00020DFF8101708700A212000C0B2A4
:101E1000FFF728FE5FF0FF3056E1029800F1006006
:101E200010F5A040DFF878130860DFF8740300684D
:101E300000F03EFCDFF8E4160870DFF8E0060078FA
:101E4000042821D1DFF85803006810F5806000F005
:101E50002FFCDFF8C8160870DFF8C00600780428E9
:101E60000BD00020DFF8B01608700A212000C0B2A5
:101E7000FFF7F8FD5FF0FF3026E1DFF8A406DFF89A
:101E80001813086000261AE00020DFF88C1608708E
:101E90000A212000C0B2FFF7E5FD5FF0FF3013E13B
:101EA000DFF8FC020068001DDFF8F4120860DFF8BC
:101EB000E8020068001DDFF8E0120860361D009897
:101EC000401F864226DADFF8D00200680168DFF89A
:101ED000D002006800F01EFCDFF840160870DFF842
:101EE000C00200680068DFF8B0120968096888421B
:101EF00004D1DFF8280600780428D1D00020DFF8CC
:101F00001816087007212000C0B2FFF7ABFD5FF084
:101F1000FF30D9E000212000C0B2FFF7A3FDD2E0DE
:101F2000DFF8E8050078022802D05FF0FF30CBE050
:101F3000DFF8E4050078012807D007212000C0B2AF
:101F4000FFF790FD5FF0FF30BEE00220DFF8C8151C
:101F50000870DFF84012DFF82C0200F00DFBDFF80C
:101F60002402FEF7DBFF0090DFF81802DFF82812EA
:101F70000860DFF82802DFF82812086000260EE06B
:101F8000DFF81C020068001DDFF814120860DFF89B
:101F900008020068001DDFF800120860361D009876
:101FA000864221DADFF8F00100680168DFF8F0010D
:101FB000006800F0AFFBDFF864150870DFF8E0019F
:101FC00000680068DFF8D011096809688842D7D036
:101FD0000020DFF84415087007212000C0B2FFF789
:101FE00041FD5FF0FF306FE000212000C0B2FFF73D
:101FF00039FDFEE7DFF810050078401CDFF8081512
:102000000870C0B2032802DA5FF0FF305CE0DFF84E
:10201000FC040078012827D1DFF8080500780128A2
:102020001BD10020DFF8FC140870DFF8700100F00D
:102030003FFBDFF8E8140870DFF8E00400780428BC
:102040000BD00020DFF8C41408700A212000C0B2B1
:10205000FFF708FD5FF0FF3036E000F015FB0220CF
:10206000DFF8A814087008E0DFF8A0040078002862
:1020700003D10120DFF89414087000212000C0B2C1
:10208000FFF7F0FC1FE000212000C0B2FFF7EAFCE0
:10209000FEE7DFF89434DFF89424DFF89414DFF8D7
:1020A000E40000F069FADFF8DC102000C0B2FFF7AE
:1020B000A7FCDFF8C00000F0A7FA04E0042120002C
:1020C000C0B2FFF7CFFC280004B070BD80B500F0AF
:1020D000B5FBDFF860040068401CDFF858140860A6
:1020E000DFF83404007801281ED1DFF848040068C6
:1020F00080030CD54FF40051DFF83C0400F012FCD3
:102100004FF48041DFF8300400F00FFC2AE04FF478
:102110000051DFF8240400F008FC4FF48041DFF8A0
:10212000180400F0FFFB1DE0DFF80804006840031E
:102130000CD54FF40051DFF8000400F0F3FB4FF42E
:102140008041DFF8F40300F0EDFB0BE04FF40051A9
:10215000DFF8E40300F0E9FB4FF48041DFF8D80337
:1021600000F0E3FB01BD000014470008B912002095
:1021700064130020B812002094130020C447000804
:10218000CC4700080C000020A408002068130020A1
:10219000D44700082C4100087C13002000F80308F5
:1021A0000000002004500008841300208013002049
:1021B00000500008741300206C13002078130020D6
:1021C00070130020DC47000894470008A508002091
:1021D0009513002096130020AB080020AD080020C6
:1021E00080B500F0AFFB5FF4803000F0DAFB312007
:1021F00000F0B2FC0028FAD0022000F025FA0020FE
:1022000000F017FC5FF4E0115FF4803000F0F3FBA6
:10221000012000F0FBFB392000F09EFC0028FAD0E2
:10222000022000F0F7FB00F0FFFB0828FBD10020A4
:1022300000F013FC4FF4806000F005FC102000F06B
:1022400013FABE4800F014FC012000F081FC0021CC
:102250005FF0006000F010FD0520B949087006200D
:10226000B74988700020B64948700120B449C87049
:10227000B34800F0B7FC012144F2FD1000F058FC17
:102280004FF40070AF4908800320AE4988701820D1
:10229000AC49C870AB49AC4800F0E0FA4FF480603C
:1022A000A84908800420A749C870A649A64800F09C
:1022B000D5FA4FF66F10A34908800420A149C870D1
:1022C000A049A14800F0CAFA80209E490880032056
:1022D0009C49887010209B49C8709A499A4800F020
:1022E000BDFA00228021984800F022FB4FF6FF70D3
:1022F0009449088004209349C8709249934800F09B
:10230000ADFA4FF6FF708F49088004208D49C870E0
:102310008C49894800F0A2FA4FF2100089490880E0
:1023200003208849887010208649C87085498248F2
:1023300000F094FA002210217F4800F0F9FA002200
:102340004FF400417C4800F0F3FA01224FF4805131
:10235000794800F0EDFA01224FF40051764800F080
:10236000E7FA01224FF48041734800F0E1FA4FF69A
:10237000FF707449088004207249C870714974481C
:1023800000F06CFA1F206F49088003206D498870A7
:1023900010206C49C8706B496D4800F05FFA00224C
:1023A00001216B4800F0C4FA00220221684800F0C5
:1023B000BFFA00220421664800F0BAFA0022082180
:1023C000634800F0B5FA00221021614800F0B0FA2D
:1023D0004FF6FF705B49088004205A49C87059497C
:1023E0005C4800F03BFA4FF6FF7056490880042025
:1023F0005449C8705349584800F030FA4FF6FF70FE
:102400005049088004204F49C8704E49534800F095
:1024100025FA4FF4FA5000F07BFC002200215048CE
:1024200000F030FC012000F08DFC012000F073FC76
:102430005FF4E1304B49086000204A498880002061
:102440004849C880002047490881002045498881C3
:102450000C2044494881002043490880002042491B
:1024600048804FF400704049888000203E49C88071
:102470003C493E4800F07EFC012240F225513B4899
:1024800000F0D4FC0121394800F0C2FC25202C4981
:10249000087001202A4948700020294988700120CD
:1024A0002749C870264800F09DFB7D2000F054FBB2
:1024B000002807D04FF480511F4800F036FA00F092
:1024C0006DFB04E04FF480511B4800F02BFA002014
:1024D00000F0A8F9032000F0A9F940F2712000F003
:1024E000A9F900F0ABF900F0AEF92149214800F05C
:1024F00043F8204800F088F8FFF707FBFFF750FB90
:10250000FFF7E4FDFAE70000991300209A1300207A
:10251000E4470008B10800209713002008000020BD
:10252000B608002098130020AC470008A047000818
:10253000F4460008881300200010014038130020E2
:102540008C1300209013002000080140000C014073
:102550000014014000180140001C0140002001400F
:102560009AC302004C1300205C1300200038014085
:1025700074470008381200200CB41CB5044604A8A7
:1025800001900A46009401AB00A90748784418302E
:10259000FDF7CEFD009A0021117000285CBF009865
:1025A000001B16BC5DF80CFB0FEBFFFF1348007817
:1025B00012494978884201D0012000E0002070478C
:1025C0000E4800780D49401880780C490978491C5C
:1025D0000A4A1170C9B2FA2902D30021074A1170C0
:1025E000C0B2704780B5C0B2054908808021054857
:1025F00000F043FC0028F9D001BD00003C11002090
:10260000043801400038014038B50400002503E0DB
:10261000285DFFF7E7FF6D1C2000FEF77FFC854279
:10262000F6D331BD0DB400B582B004A800900A46BF
:1026300000AB03A9034878440A3000F083FC06BCD1
:102640005DF810FB0FE9FFFFDFF87011096811F06A
:102650003801DFF868211160DFF86011096808436C
:10266000DFF8581108607047DFF85011096831F041
:102670001001DFF848211160DFF8401109680843B4
:10268000DFF8381108607047DFF83401DFF83411E3
:102690000860DFF83401DFF82C1108607047DFF8BC
:1026A0002C01006850F08000DFF8201108607047AE
:1026B00038B50400042540F6FF7000F08DF80500E1
:1026C000EDB2042D23D1DFF80401006850F00200C0
:1026D000DFF8F8100860DFF8F8000460DFF8EC00BD
:1026E000006850F04000DFF8E410086040F6FF702A
:1026F00000F072F80500EDB2012D08D0DFF8CC0033
:10270000006841F6FD710840DFF8C010086028003D
:10271000C0B232BD70B505000E0004240F2000F0D9
:102720005BF80400E4B2042C2ED1DFF8A0000068AE
:1027300050F00100DFF8941008602E800F2000F0A8
:102740004BF80400E4B2042C12D1300C68800F2046
:1027500000F042F80400E4B2012C15D0DFF86C0060
:10276000006841F6FE710840DFF8601008600BE079
:10277000E4B2012C08D0DFF85400006841F6FE7185
:102780000840DFF8481008602000C0B270BD042087
:1027900010490968C90701D501200CE00D480068FF
:1027A000400701D5022006E00A480068C00601D5AE
:1027B000032000E00420C0B2704700000020024067
:1027C0002301674504200240AB89EFCD1020024071
:1027D000142002400C20024038B504000425FFF705
:1027E000D6FF050005E000F00FF8FFF7D0FF050069
:1027F000641EEDB2012D01D1002CF4D1002C00D1CA
:1028000005252800C0B232BD81B000200090FF2015
:10281000009002E00098401E009000980028F9D136
:1028200001B0704780B20A4908607047C0B20949D8
:102830000860704780B20849086070474AF6AA20CD
:102840000349086070474CF6CC4001490860704766
:10285000003000400430004008300040F0B4002256
:102860000026002400250023002791F803C01CF057
:102870000F0C624691F803C05FEACC6C01D58B78EF
:102880001A430B781B0621D00368002406E0CD789C
:10289000482D02D10125A5400561641C082C14D2E5
:1028A0000125A5400E882E40AE42F6D1A5000F2688
:1028B00016FA05F7BB4312FA05F52B43CD78282D00
:1028C000E5D10125A5404561E7E703600B88FF2BB3
:1028D00026DD4368002420E0012514F10806B540F8
:1028E0000E882E40AE4217D1A5000F2616FA05F726
:1028F000BB4312FA05F52B43CD78282D04D10125D1
:1029000014F10806B5404561CD78482D04D1012564
:1029100014F10806B5400561641C082CDCD3436043
:10292000F0BC704789B20161704789B2416170475C
:10293000D2B2002A02D089B2016101E089B24161BC
:1029400070470000DFF86402006850F00100DFF813
:102950005C120860DFF858020068DFF8581208407F
:10296000DFF84C120860DFF844020068DFF8481214
:102970000840DFF838120860DFF83002006830F4F1
:102980008020DFF828120860DFF82402006830F4A5
:10299000FE00DFF81C1208600020DFF8201208603B
:1029A0007047DFF80812096831F48031DFF8FC2144
:1029B0001160DFF8F811096831F48021DFF8EC21AB
:1029C0001160B0F5803F03D0B0F5802F09D011E041
:1029D000DFF8D801006850F48030DFF8D0110860CB
:1029E00008E0DFF8C801006850F4A020DFF8BC114F
:1029F0000860FFE7704700226D4B1B681A0032F435
:102A00007C12084302436A4802607047C0B26C49B6
:102A1000086070470021664A126811008908890021
:102A200001436348016070476148006810F00C0082
:102A3000704700215E4A1268110031F0F001014335
:102A40005B48016070470021594A1268110031F457
:102A5000E06101435648016070470021544A126802
:102A6000110031F4605151EAC001514801607047D2
:102A700030B400220021002300244D4D2D6815F0B4
:102A80000C052A00002A04D0042A05D0082A06D002
:102A900021E04D49016020E04B4901601DE04449BF
:102AA000096811F47011890C891C414A126812F4EA
:102AB0008033002B03D1454A514301600AE03C4A70
:102AC0001268920303D5414A5143016002E03E4A35
:102AD0005143016001E03C4901603549096811F04A
:102AE000F00212093A49545C0168E1404160304902
:102AF000096811F4E062120A3549545C4168E1400A
:102B000081602B49096811F46052D20A3049545C43
:102B10004168E140C1602649096811F44042920BC6
:102B20002C49545CC168B1FBF4F1016130BC7047C1
:102B3000C9B2002905D02849096808432649086018
:102B400005E02549096831EA00002349086070471B
:102B5000C0B222490860704710B40022002300214F
:102B6000C0B24409E4B22200012A02D10F490B6825
:102B700006E0022A02D113490B6801E018490B68EC
:102B8000C0B210F01F0233FA02F0C00701D50121D4
:102B900000E000210800C0B210BC70471048006877
:102BA00050F080700E49086070470000001002402D
:102BB000041002400000FFF8FFFFF6FE081002407C
:102BC000600042422010024000127A0000093D00DD
:102BD00084470008EC470008181002404C004242AD
:102BE0002410024070B400210022002300240F258D
:102BF000C678002E34D04249096811F4E061D1F55D
:102C0000E061090AD1F10404CD404178A140827805
:102C10002A4011430901027812F00302D2B2D20015
:102C2000914002789210344B53F82220FF2304780D
:102C300014F00304E4B2E400A3409A4319400A43A9
:102C4000017889102C4B43F821200121027812F0E1
:102C50001F029140007840112B4A42F8201009E0F1
:102C60000121027812F01F02914000784011214AA0
:102C700042F8201070BC7047244A114008431F4995
:102C800008607047F0B40025FF26002300241C4F85
:102C90003F6817F4E067D7F5E0673F0A3C00D4F1DE
:102CA00004073D00E640C9B211FA05F4D2B216EAB3
:102CB00002010C43240110F0C005AD09C0F3012648
:102CC0003000C0B2C0008440FF20F6B2F10088405E
:102CD00003000C4850F8250098430A4941F82500A4
:102CE000084850F825002043064941F82500F0BC6B
:102CF0007047000080E100E000E400E008ED00E043
:102D00000CED00E018ED00E000E100E080FFFF1FA7
:102D1000164908607047012806D11348006850F032
:102D20000100114908600CE010F1020F06D10E48B5
:102D30000068400840000C49086002E000200C498F
:102D400008607047C0B2002806D00748006850F0FD
:102D500002000549086005E00348006830F0020001
:102D6000014908607047000010E000E014E000E056
:102D700018E000E02DE9F04385B004000D000020CC
:102D8000002600275FF000085FF00009A146218AB5
:102D900008004CF6FF710840E98808432082A089AA
:102DA0004EF6F3110840A9882A8911436A89114314
:102DB0000843A081A08A4FF6FF410840A989084333
:102DC000A08200A8FFF754FE1048814501D1039E60
:102DD00000E0029E192000FB06F029688900B0FB84
:102DE000F1F76420B7FBF0F000010109642202FB57
:102DF00011785FEA081132316422B1FBF2F111F06F
:102E00000F010843208105B0BDE8F0830038014080
:102E1000C9B2002904D0818951F40051818104E0B4
:102E200081894DF6FF7211408181704770B4002492
:102E300000250026002303000800C0B24009C0B2EC
:102E4000040089B211F01F0005000120A84006000F
:102E5000012C01D10C3304E0022C01D1103300E02D
:102E60001433D2B2002A03D018683043186002E04D
:102E70001868B043186070BC704700220088084290
:102E800001D0012200E000221000C0B2704770B4EF
:102E90000A0000240023002500211600F6B276095E
:102EA000F6B2350092B212F01F063300012616FA70
:102EB00003F3012D02D181890B4006E0022D02D1DE
:102EC000018A0B4001E0818A0B4092B2140AA4B23D
:102ED000012111FA04F400880440002B03D0002CD7
:102EE00001D0012100E000210800C0B270BC704791
:102EF0000022002389B2090A0A00012191400B0037
:102F00009BB2D94301807047034608460169491EB8
:102F10000161C268521C0029C26003D4012200680A
:102F2000002118474FF0FF3070470346084611460E
:102F3000C268521E11F1010FC26002D00022006867
:102F4000184770472DE9F04788B0044600914FF0CC
:102F5000FF35186801902E460020039002920FF66C
:102F6000A0270FF694286FF0004902E00298401C59
:102F70000290DDF808A09AF80000A0F10903052BE3
:102F800009D3202807D0F0B9002EB8BF002630465C
:102F900008B0BDE8F0870398401C03900122009818
:102FA0000021A047A0F109010529F4D32028F2D07F
:102FB0000399491E10F1010F0391D7D001460098E3
:102FC0000022A047D2E7252809D10AF1010002908A
:102FD00001782A2906BF401C0290002110E00398C6
:102FE000401C0390012200980021A0479AF800108D
:102FF0008842BBD0024600A92046FFF796FFC3E7F0
:1030000000208DF81C1005900AE00599494505D06F
:1030100001EB810302EB430130390591401C029022
:1030200002980278A2F130010A29EED306950178C0
:103030004046FDF757FF00281DBF029810F8011BFE
:10304000029000218DF81D109DF81D00682801BF19
:1030500002990A78682A622006D06C2802BF029979
:1030600008786C2804D171208DF81D00481C02904E
:10307000029801783846FDF735FFB0B90398401C37
:103080000390012200980021A047A0F10901052921
:10309000F4D32028F2D00399491E10F1010F0391B7
:1030A00003D0014600980022A04700A9204600F066
:1030B00010F8012803DA002E3FF56AAF67E7002E0B
:1030C00048BF00269DF81E0000283FF44FAF761C35
:1030D0004CE770B505460C460020A077A068007844
:1030E000253858D01C3823D0001F022820D9133887
:1030F0001AD0C01E66D0801F1AD0801E12D0401E6B
:1031000012D0401E022813D9001F0DD0401F13D02B
:10311000401E012808D9001F3BD0801E04D0C01ECD
:1031200002D055E000224FE02846BDE870403BE168
:103130002846BDE8704030E2207F002835D1607F0E
:10314000622808D0682816D06A280BD06C2819D0BD
:10315000712807D016E06068011D61600068E168B1
:10316000017022E06268101D60601268E068C1179B
:10317000C2E9000119E06068011D61600068E16852
:10318000018012E06068011D61600068E168016013
:103190000BE0012218E00122E068401CE060002101
:1031A0002068A8470646252E01D1012070BD324671
:1031B00021462846FFF7B9FE16F1010F08D14FF05E
:1031C000FF3070BD4FF0FF322846BDE8704021E06F
:1031D000002070BDC9B207E003789942A4BF83788C
:1031E0008B4213DAC01CD21E032A0AD343782D2B3C
:1031F000F2D010F8013B8B4218BF521EF4D105E00B
:10320000521E2AB110F8013B8B42F9D101207047C0
:10321000002070472DE9F04F17460024002583B0A9
:1032200082460E46002F29D5B068401CB060007859
:103230005E2806D1B068401CB060401E0078019046
:1032400000E00194B06801785D2908BF401C5D2151
:10325000FDF748FE002800F09E80D6F80880A0EB1D
:1032600008010091B0600098032807DB821E2D2121
:1032700008F10100FDF77CFE00B10124706901280E
:1032800004DA002F14BF6FF0004001203061307F5E
:1032900068B97068011D7160D0F8009007E009F806
:1032A00001BB0120B077B069401EB06102253069D2
:1032B000401E3061F168491C0028F16010D40122E1
:1032C00030680021D04783461BF1010F4DD0012FFC
:1032D00009DBABF10900052847D3BBF1200F1CE047
:1032E0004FF0FF3B41E0002F38D50198002C0CD166
:1032F0000028009A5946404603D1FDF739FEA0B395
:103300002CE0FDF735FE80BB28E0009A002806D1AE
:1033100059464046FFF75EFF00281FD125E05FFABF
:103320008BF0414607E00B789842A4BF8B7883422C
:103330001BDAC91CD21E032A0ED34B782D2BF2D0D8
:1033400011F8013B834218BF521EF4D10DE011F871
:10335000013B834209D0521E002AF8D1307F002859
:10336000A4D1B06900289AD101255A463146504669
:10337000FFF7DBFD0FB1022D09D0022D10D0E807B9
:1033800002D41BF1010F06D14FF0FF3009E0307F6E
:1033900030B9B06908B9002003E0002089F80000C6
:1033A000012003B0BDE8F08F2DE9F0430C4689B051
:1033B000804660690128B8BF6FF0004020610DF1C0
:1033C00000094046FFF7A0FD05462B2D18BF2D2D07
:1033D00008D18DF800500DF1010921464046FFF754
:1033E00093FD0546A06800780027642814BF75285F
:1033F0000A260DD0692808BF002609D06F2808BF0B
:10340000082605D070281ABF40F020007828102622
:10341000302D19D1012721464046FFF775FD05469D
:1034200045F02000C0B278280BD1002E18BF102E16
:1034300013D1102621464046FFF766FD05460027BA
:103440000BE056B9082608E006BB0A261EE001225A
:1034500020680021C04705460127302D0BD1206987
:10346000411E2161E068401C0029E060EFD54FF06B
:10347000FF35012700E04FB1302009F8010B05E0CE
:10348000206801220021C0470546012715F1010FE0
:1034900023D0E9B26129A8BF573909DA4129A8BF69
:1034A000373905DAA1F130020A2A34BF3039FF2159
:1034B000C9B2F0B2814210D20DF11F00814538BF70
:1034C00009F8015B2069411E2161E068401C002968
:1034D000E060D5D54FF0FF3501272A46214640460A
:1034E000FFF723FD47B900A881450ABF15F1010F79
:1034F00000204FF0FF304DE0002089F80000207FD1
:10350000002846D1A0680078642818BF692807D130
:103510003246002100A800F0C6FA0122A2770AE094
:103520003246002100A800F071FB0122A277A268B8
:103530001278702A28D0627F622A0CD0682A17D0AD
:103540006A2A0ED06C2A19D0712A0AD0742A18BFA0
:103550007A2A13D018E06268131D6360116808703E
:1035600017E06268131D63601268C2E9000110E091
:103570006268131D6360116808800AE06268131DA9
:1035800063601168086004E06268131D636011687D
:103590000860012009B0BDE8F0832DE9F04F0C462A
:1035A00093B0814660690128B8BF6FF00040206188
:1035B0000DF1080A4846FFF7A7FC074600252B2F08
:1035C00018BF2D2F08D18DF808700DF1090A21467A
:1035D0004846FFF799FC074600264FF00A08302FAF
:1035E00018D121464846FFF78FFC074647F02000D8
:1035F000C0B2782840F0CF8030200AF8010B214675
:1036000078200AF8010B4846FFF77EFC07464FF08A
:103610001008C1E047F02000C0B26E285BD10AF864
:10362000010BA84621464846FFF76EFC074647F0C7
:103630002000C0B2612840F0A6810AF8010B2146A3
:103640004846FFF761FC074647F02000C0B26E28ED
:1036500040F0998121464846FFF756FC0246282A49
:1036600019D021464846FFF760FC6E200AF8010B8E
:1036700000208AF80000207F002840F0B981B8F1CE
:103680000B0F80F291812A46002102A800F08CFBEA
:10369000CDE9000193E12069401E2061E168491CE9
:1036A0000028E16004D4012220680021C84701E01D
:1036B0004FF0FF30A0F1610107461A2921BFA0F1A8
:1036C00041011A2930380A28E5D35F2FE3D0292F8A
:1036D00040F05981C9E7692870D10AF8010BA84662
:1036E00021464846FFF710FC074647F02000C0B2CD
:1036F0006E2840F048810AF8010B21464846FFF742
:1037000003FC074647F02000C0B2662840F03B812A
:1037100021464846FFF7F8FB40F02001C9B269296D
:1037200006D0024621464846FFF7FFFB66209DE78C
:1037300021464846FFF7E8FB074647F02000C0B2A5
:103740006E2840F0208121464846FFF7DDFB074602
:1037500047F02000C0B2692840F015812146484654
:10376000FFF7D2FB074647F02000C0B2742840F0B4
:103770000A8121464846FFF7C7FB074647F020006D
:10378000C0B2792840F0FF8066206FE720680122F0
:103790000021C84707460126302F0BD12069411E62
:1037A0002161E068401C0029E060EFD54FF0FF3751
:1037B000012600E016B130200AF8010BAB4605E007
:1037C000012220680021C8470746012617F1010F92
:1037D0002FD0F8B26128A8BF573809DA4128A8BF0E
:1037E000373805DAA0F130010A2934BF3038FF201C
:1037F000C0B2404513D2BBF1240FBABF0AF8017B17
:103800000BF1010B6D1C2069411E2161E068401C19
:103810000029E060D4D54FF0FF37012609E02E2FB4
:1038200007D12E200AF8010B21464846FFF76CFB12
:103830000746BBF1000F21D105E0012220680021DD
:10384000C84707460126302F0BD12069411E216150
:103850006D1EE068401C0029E060EED54FF0FF3798
:103860000126002D0AD530200AF8010B6D1C05E059
:10387000012220680021C8470746012617F1010FE1
:1038800024D0F8B26128A8BF573809DA4128A8BF68
:10389000373805DAA0F130010A2934BF3038FF206B
:1038A000C0B2404512D2BBF1240FBCBF0AF8017B65
:1038B0000BF1010B2069411E2161E068401C0029C9
:1038C000E060D5D54FF0FF37012601E0002E5AD039
:1038D000B8F10A0F02BF47F02001C9B2652907D02D
:1038E000B8F10A0F4FD047F02000C0B270284AD17B
:1038F0000AF8017B21464846FFF706FB07462B2FB7
:1039000018BF2D2F06D10AF8017B21464846FFF744
:10391000FBFA0746002605E0206801220021C8477F
:1039200007460126302F0BD12069411E2161E06836
:10393000401C0029E060EFD54FF0FF37012600E082
:1039400016B130200AF8010B4FF0000B02E04FF0E7
:10395000FF370126A7F130000A2814D2BBF1080F67
:10396000BCBF0AF8017B0BF1010B2069411E2161EC
:10397000E068401C0029E060E9D4012220680021B1
:10398000C8470746E5E73A4621464846FFF7CDFADD
:10399000002E7FF46DAE02A882450ABF17F1010F19
:1039A00000204FF0FF3024E00022002102A800F0A8
:1039B000FBF9CDE90001A90000A8FDF70DFC0120ED
:1039C000A077607F6C2818BF4C2808D16068011D63
:1039D0006160DDE900230068C0E9002308E0656854
:1039E000281D6060DDE9000100F0E0F92968086049
:1039F000012013B0BDE8F08F686A6C747A4C000047
:103A000063436E5B000000002DE9F04182B0804608
:103A10000E001D4608BF00AE474600E07F1C387808
:103A2000A0F109010529F9D32028F7D02D2816BFC8
:103A30002B2817F8014B2B243146384600F036F876
:103A40003268974208BFC6F80080326890450AD1B4
:103A5000002908BF002814D12D2C22D1404261EB4F
:103A60004101BDE8FC812B2C03D14FF0004399426A
:103A700007D22D2CF0D1B1F1004FEDD301D80128A0
:103A8000EAD300F0DBF9222101600DB101202860AA
:103A90002D2C07BF00204FF000414FF0FF306FF09A
:103AA0000041BDE8FC810023AEE700002DE9F84F9E
:103AB00086B083460F4615460BB1002018605E465F
:103AC00000E0761C3078A0F109010529F9D32028FF
:103AD000F7D02D2816BF2B2816F801AB4FF02B0A74
:103AE000002D55D4012D53D0252D51DA012D0ADB9F
:103AF000102D04BF3078302802BF707840F02000CD
:103B000078280ED10AE03078302818BF0A2508D16D
:103B1000707840F02000782802D11025B61C00E013
:103B20000825039600E0761C30783028FBD000246E
:103B3000A046CDE904480FF2D800029600948DF813
:103B400004004FEAE57913E09DF80410401AC0B272
:103B50000090CDE9044800AAA5FB040105FB08116B
:103B6000127809FB04110023841841EB0308761C2A
:103B70003178A1F141001A2838BF20312A460FF2CE
:103B80009000FDF7F5F90028DED10398B04205D189
:103B90000FB1C7F800B00020002134E00FF2980107
:103BA0000298695C301A401A23D4012814DA00A85C
:103BB00000210078201A68EB010188450CD301D858
:103BC000844209D32A46EB17FDF7FEF9DDE9042309
:103BD000994208BF90420CD000F030F922210160D8
:103BE000069810B10699012008604FF0FF34A046F6
:103BF00005E0BAF12D0F02D1644268EB480807B125
:103C00003E602046414607B0BDE8F08F00234DE7F7
:103C10003031323334353637383961626364656642
:103C20006768696A6B6C6D6E6F70717273747576AC
:103C30007778797A0000000000004129211C1917CB
:103C40001615141312121111111010100F0F0F0F5F
:103C50000E0E0E0E0E0E0E0D0D0D0D0D0D000000B4
:103C60002DE9F14D87B005460C4690469A4607A8C7
:103C700000F0EAF88346BAF1000F1CBF0021CAF831
:103C8000001020F00800012834D10220009004AB7D
:103C900007992246284600F06FF9040003D100205E
:103CA000CDE902001DE00598FDF748FBCDE90201D2
:103CB000022C16DB06AE671E384DDDE9020100223C
:103CC0002B46FDF713FCCDE9000156F8040BFDF778
:103CD00035FBDDE90023FDF707FECDE902017F1E7C
:103CE000EBD1049800EB0802DDE90201534600F035
:103CF0005CFA42E0022835D1009004AB07992246D5
:103D0000284600F029FB040003D10020CDE9020081
:103D10001DE00598FDF712FBCDE90201022C16DB30
:103D200006AE671E1E4DDDE9020100222B46FDF79F
:103D3000DDFBCDE9000156F8040BFDF7FFFADDE9E4
:103D40000023FDF7D1FDCDE902017F1EEBD10499DF
:103D500002A8FDF741FADDE902015346424600F0B0
:103D600024FA0AE0032802D100200E4905E00428C5
:103D700006D14FF0FF306FF00041CDE9020102E0C3
:103D80000020CDE902005FEA0B70DDE9020148BFC7
:103D900081F0004108B0BDE8F08D000065CDCD4157
:103DA0000000B0410000F07F002359E74FEAF17CAA
:103DB000BCF1E04C2CBFBCF5001F11E05FEA4C0CDD
:103DC00034BFBCF17F5F2EE05FEA9C0C4FEA0C1C15
:103DD0004FEA3C0CC10071F100414CEB5070704750
:103DE000C90241EA5051C00218BF41F0010141F03F
:103DF00000414FEA6C50C0F10900212810D240EA7E
:103E0000CC7CCCF1200C11FA0CF070F10040CCF11C
:103E1000200C21FA0CF00CF0004C40EB0C00704729
:103E20004FEACC707047490011F5001F04D84FEAE3
:103E3000CC10FF30C0057047C8177047014800F02C
:103E40008BBB00000400002070B4026813460024FD
:103E500000E05B1C1D78A5F10906052EF9D3202D85
:103E6000F7D02D2D0CBF08242B2D00D15B1C1D7805
:103E700045F020066E2E28D15B1C13F8014B44F050
:103E80002004612C02BF13F8014B44F020046E2C77
:103E900002D0134600224BE01C4604222578282D30
:103EA00046D114F8015FA5F161061A2EF9D3A5F1E8
:103EB00041061A2E24BF303D0A2DF2D325785F2DFE
:103EC000EFD0292D34D1631C32E0692E33D15B1C35
:103ED00013F8015B45F020056E2D02BF13F8015B5E
:103EE00045F02005662D02D01346002220E01D4635
:103EF00044F003022C7844F02004692C02BF15F82A
:103F0000014F44F020046E2C12D115F8014F44F0FB
:103F10002004692C02BF15F8014F44F02004742CD2
:103F200006D115F8014F44F02004792C08BF6B1C12
:103F3000F1B10B601CE0302D02BF597841F0200137
:103F4000782913D1991C0A782E2A08BF491C0978B0
:103F5000A1F16102062A21BFA1F14102062A3039EE
:103F60000A2903D29B1C44F0020201E044F0010242
:103F70000360104670BC70472DE9F0478CB00D46C9
:103F800014998046002001EBC1012E29A8BF2D21E4
:103F900000261E605E6001E06D1C01262F78302F28
:103FA000FAD000270DF1000C04E01E68761C1E609C
:103FB0006D1C012695F800E0AEF130040A2C05D303
:103FC000BEF12E0F08BF6D1C87B90CE0B942ECDBC7
:103FD000AEF1300607F80C607F1CE9E71E68761E1C
:103FE0001E606D1C01262C78302CF7D02C78A4F1A3
:103FF000300EBEF10A0F11D3B94225DA00AFCF5D02
:10400000052F06DB00AFCF1917F8014C641C07F829
:10401000014C0F461968491C196015E0B94207DBCD
:10402000A4F1300600AC3E557F1C1E68761E1E6053
:104030006D1C0126DAE700A9791811F8011C49B9AD
:104040001968491C19607F1E012FF4DA17B98DF821
:1040500000000127002E5ED04FF0090E97FBFEFEF8
:10406000C7F1090C0EEBCE0EE6444FF0090C9EFB97
:10407000FCFC00210CEBCC04BEEB04040ED00120B0
:104080000CE053F8204011F80CC004EB84040CEB56
:10409000440443F820400EF1010E491CB9420DDAE8
:1040A00009249EFBF4F404EBC4040DF1000CBEEBF8
:1040B0000404E6D111F80C40401CEAE7297841F0ED
:1040C0002001652927D1294615F8017F2B2F16BF1E
:1040D0002D2F15F8017B2B270024A646DFF848C0BA
:1040E00009E0E64505DA0EEB8E0409EB4404A4F181
:1040F000300E6D1C012495F80090A9F1300ABAF138
:104100000A0FEED32D2F08BFCEF1000E1F687744A3
:104110001F6004B90D461AB106B1A846C2F8008066
:104120000CB0BDE8F08700BF00E1F505436F6E6697
:1041300069726D204170706C69636174696F6E2083
:10414000446F776E4C6F616420436F6D706C657463
:10415000652E2E2E00000000F8B5064640F2FF71D5
:104160007068C0F30A5014461D46884206D00128E4
:1041700006DA3046FCF7DFFF012801DB002706E006
:10418000726840F2FE3161F31E527260471AD6E93E
:10419000000122462B46FDF7A9F9C6E9000139B214
:1041A0003046BDE8F440FDF717B82DE9FB4582B075
:1041B00016009A4600F09A80DDE9022300200021D3
:1041C00000F0CCF900F0928000244B4D002E43D536
:1041D00076420FF23C174FF008080DE0F00707D5C4
:1041E000D7E9002320462946FDF780F904460D460D
:1041F00076080837A8F10108002E18BFB8F1000FA3
:10420000ECD102A900A800F0B9F9DDE902012246CB
:104210002B46FDF73DFACDE90201BDF9001002A8D9
:10422000FCF7DAFF070050D5002E50D002A900A8F5
:1042300000F0A4F9DDE90201304A314BFDF756F9EF
:10424000CDE90201BDF9001002A8FCF7C5FF070087
:104250003BD5761EEAD13AE0012E36DB0FF2B007ED
:104260004FF00808F00707D5D7E900232046294674
:10427000FDF73CF904460D4676100837A8F1010811
:10428000012E02DBB8F1000FECD122462B4602A82A
:10429000FFF762FF070018D5012E18DB02A900A85E
:1042A00000F06CF9DDE90201164A174BFDF71EF923
:1042B000CDE90201BDF9001002A8FCF78DFF07004F
:1042C00003D5761E012EE9DA01E03FB20FB1012FCE
:1042D0000CD1FFF7B3FD22210160BAF1000F05D028
:1042E000DAF8000040F00100CAF80000DDE9020140
:1042F00005B0BDE8F08500000000F03F436FAC64FE
:104300002806C80A3CBF737FDD4F1575000000000A
:1043100000000000000024400000000000005940A0
:10432000000000000088C3400000000084D79741CF
:104330000080E03779C34143176E05B5B5B89346A1
:10434000F5F93FE9034F384D321D30F94877825A6D
:104350003CBF737FDD4F15752DE9F54F8BB0002500
:104360001698C0EBC0080E461C46B8F1240FA8BF33
:104370004FF0230825606560002701E0761C0127C7
:1043800030783028FAD00FF2A01AA946CDF800A054
:104390000DF1040B04E02068401C2060761C01270E
:1043A000317816225046FCF7E3FD58B1C845F2DBE0
:1043B0000099401A0FF28811405C09F80B0009F1CE
:1043C0000109EBE730782E2808BF761CB9F1000F01
:1043D00008D104E02068401E2060761C0127307858
:1043E0003028F7D0317816225046FCF7C1FD88B14D
:1043F000C8450CDBA0EB0A000FF24411405C01A998
:1044000009F8010009F101092068401E2060761CAE
:104410000127E7E7C8451ADA01A818F800000828BC
:1044200006DB01A8404410F8011C491C00F8011CDF
:10443000C1462068401C206009E001A8484410F8EB
:10444000010C70B92068401C2060A9F10109B9F184
:10445000010FF2DAB9F1000F04BF8DF804504FF0EC
:104460000109206880002060002F52D0072299FBAC
:10447000F2F2C9F10701C2EBC2025118072291FB07
:10448000F2F20020C2EBC2028A1A05D0012503E035
:1044900044F82520491C401C48450EDA072391FBAF
:1044A000F3F310F80B20C3EBC303CB1A0EBF6D1C44
:1044B00054F8253002EB0312EAE7307840F0200090
:1044C000702826D1304616F8011F2B2916BF2D293A
:1044D00016F8011B2B2100220023DFF848C009E059
:1044E000634505DA03EB83020EEB4202A2F13003CF
:1044F000761C012296F800E0AEF13008B8F10A0F00
:10450000EED32D2908BF5B4221685918216002B9FA
:1045100006460C9810B107B90B9E066028460DB0F0
:10452000BDE8F08F00E1F5053031323334353637F0
:104530003839616263646566414243444546000020
:10454000000102030405060708090A0B0C0D0E0FF3
:104550000A0B0C0D0E0F00007047000090420CD1AA
:1045600041EA030C50EA4C0C07D0994205D14FF4B4
:10457000001C1CEB410F38BF8942704738B50C4610
:1045800005466068C0F30A5040F2FF7188420BD1C3
:10459000002028806068000304BF2068002801D044
:1045A000022032BD012032BD012804DA2046FCF78A
:1045B000C2FD01280ADA626840F2FE3161F31E5240
:1045C0006260401A28804FF0FF3032BD0020288002
:1045D00032BD00007047FEE7FEE7FEE7FEE77047EA
:1045E0007047704770477047704770477047704713
:1045F0007047704770477047704770477047704703
:1046000070477047704770477047704770477047F2
:1046100070477047704770477047704770477047E2
:1046200070477047704770477047704770477047D2
:1046300080B540F225510E48FEF729FC002816D01F
:104640000C4800880C4949780B4A891888700A4838
:104650004078401C08494870C0B2FA2802D30020B4
:104660000549487040F225510148FEF741FC01BD63
:1046700000380140043801403C1100207047704769
:104680007047704770477047704770477047704772
:104690007047704770477047704770477047704762
:1046A000704770477047704710B507497944183113
:1046B000064C7C44163404E00A68081D51188847EB
:1046C0000146A142F8D110BD0800000028000000FA
:1046D0002BC8FFFF901300000C000020000000001A
:1046E000D7C7FFFF0C0000000801000000000020F9
:1046F00000000000302E25732E25732E53544D33A9
:10470000322042276428426F6F74205365637469B6
:104710006F6E2900256325303258253032582530F8
:1047200032582530325825303458257300000000A7
:1047300000F00BF8002801D0FFF7B6FF0020C046BC
:10474000C046FDF74DFD00F002F80120704700F073
:1047500001B800000746384600F002F8FBE7000009
:1047600080B5C046C046024A11001820ABBEFBE728
:1047700026000200626F6F74207265737461727438
:1047800021212100000000000102030401020304B2
:1047900006070809253032782530327800000000FD
:1047A0004D617220203820323031390031373A31B2
:1047B000323A303500000000C046C046C046C04610
:1047C000FFF7B6FF253032582563000025303158F9
:1047D00000000000253032780000000025303478D9
:1047E00000000000253035780000000002040608B3
:0C47F00000500008000000000400000061
:04000005080047B9EF
:00000001FF
