:020000040800F2
:1050000020440020356F0108895A01088B5A010895
:105010008D5A01088F5A0108915A010800000000BA
:10502000000000000000000000000000955A010888
:10503000935A010800000000975A0108995A010884
:105040005B5C01085D5C01085F5C0108615C010854
:10505000635C0108655C0108615D0108675C01082B
:10506000695C01086B5C01086D5C01086F5C0108FC
:10507000715C0108735C0108755C0108775C0108CC
:10508000795C01087B5C01087D5C01087F5C01089C
:10509000815C0108835C0108855C0108875C01086C
:1050A000895C01088B5C01088D5C01088F5C01083C
:1050B000214A0108915C0108935C0108955C010894
:1050C000975C0108995C01089B5C01089D5C0108E4
:1050D0009F5C0108A15C0108E15C0108215D0108F9
:1050E000635D0108A35D0108A55D0108A75D0108D6
:1050F000A95D0108AB5D0108AD5D0108AF5D010868
:10510000B15D0108B35D0108B55D0108B75D010837
:10511000B95D0108995E01089B5E01089D5E01086A
:105120009F5E0108A15E0108A35E0108A55E01085B
:1051300038B50020DFF8A81C087000214FF4A0400B
:1051400003F01EFE00214FF4A04003F019FE0021E1
:10515000012010F5A04003F013FE0021012010F5FE
:10516000A04003F00DFE00214FF4864003F008FE3E
:1051700000250EE00021E4B2EDB2A80000F5C04029
:105180004030201803F0FCFD641CE4B2032CF1DB7A
:105190006D1CEDB2102D01DA0024F6E7002507E0C2
:1051A0000021EDB2A80010F5C04003F0E9FD6D1C30
:1051B000EDB20C2DF4DB002507E00021EDB2A800D4
:1051C00010F5C14003F0DCFD6D1CEDB2082DF4DBE1
:1051D000002508E00021EDB2A80000F5C040C03075
:1051E00003F0CEFD6D1CEDB2042DF3DB002507E0CE
:1051F0000021EDB2A80010F5C44003F0C1FD6D1C04
:10520000EDB2142DF4DB002407E00021E4B204F534
:10521000C040E03003F0B4FD641CE4B2042CF4DBC5
:10522000002518E00021E4B2EDB2A80000F5C0406E
:10523000D030201803F0A4FD0021E4B2EDB2A800A4
:1052400000F5C040E430201803F09AFD641CE4B27D
:10525000042CE7DB6D1CEDB2042D01DA0024F6E727
:10526000002144F2653003F08BFD002144F204304C
:1052700003F086FD00214FF4884003F081FD0020FB
:10528000DFF8701C08700020DFF86C1C087000202C
:10529000DFF8681C08700020DFF8641C087000202C
:1052A000DFF8601C08700020DFF85C1C087000202C
:1052B000DFF8581C08700020DFF8541C087000202C
:1052C000DFF8501C08600020DFF84C1C087000203C
:1052D000DFF8801D0860002032BD38B504000025CD
:1052E0000020C9B2002904D145F4804555F040059D
:1052F00002E04BF6BF700540290089B244F2060077
:1053000003F03EFDE4B22000000210F47F40E4B25E
:105310002018010089B244F2050003F031FD45F484
:10532000004555F08005290089B244F2060003F0DB
:1053300027FD31BD70B50C001D000026002100289E
:1053400003D14BF6FF70064001E056F48046002A78
:1053500003D14FF6BF70064001E056F04006310021
:1053600089B244F2060003F00BFDE4B22100090209
:1053700011F47F41EDB2691889B244F2050003F0DF
:10538000FFFC46F4004656F08006310089B244F234
:10539000060003F0F5FC70BD10B586B0040002A84D
:1053A000019004A8009003AB05AADFF8AC1CDFF85D
:1053B000AC0C03F029FD029B049A03990598FFF7B2
:1053C000B9FF00212000C0B203F0B1FD002006B0FB
:1053D00010BD1CB5040000AB01AADFF8841CDFF887
:1053E0007C0C03F011FD0199C9B20098C0B2FFF71F
:1053F00074FF00212000C0B203F099FD002016BD0B
:105400002DE9F84F04000D0016005FF00009370089
:1054100036B2B000D0F10500042190FBF1F85FF046
:10542000000A14E000210FFA8AFA5FEA4A0010F538
:105430000050401C03F0A4FC00210FFA8AFA5FEA36
:105440004A0010F5005003F09BFC1AF1010A0FFA14
:105450008AFA24B236B2A01B8245E3DB301910F180
:10546000010A14E000210FFA8AFA5FEA4A0010F5F7
:105470000050401C03F084FC00210FFA8AFA5FEA16
:105480004A0010F5005003F07BFC1AF1010A0FFAF4
:105490008AFABAF5006FE5DB484606E00FFA89F9AB
:1054A0005FEA4901491C11EB08080FFA89F93FB27C
:1054B000B94580F2B28019F101090FFA88F8B8F104
:1054C000000FEBD4B9EB0000ADF80000B5EB090A12
:1054D00024B23FB2E01B002815D4BDF8001089B2F9
:1054E00024B23FB2E01B400010F50050401C03F016
:1054F00047FC514689B224B23FB2E01B400010F590
:10550000005003F03DFC24B23FB23819B0F5006FF3
:1055100015DABDF8001089B224B23FB23819400044
:1055200010F50050401C03F02BFC514689B224B208
:105530003FB23819400010F5005003F021FC5FF035
:10554000000B5AE0B5EB070A24B20FFA89F9B4EB65
:1055500009000FFA8BFB1BEB000000281FD4012170
:1055600024B20FFA89F9B4EB09000FFA8BFB1BEB9D
:105570000000400010F50050401C03F001FC5146B3
:1055800089B224B20FFA89F9B4EB09000FFA8BFB48
:105590001BEB0000400010F5005003F0F1FB24B2BB
:1055A0000FFA89F919EB04000FFA8BFBB0EB0B0033
:1055B000B0F5006F1FDA012124B20FFA89F919EB57
:1055C00004000FFA8BFBB0EB0B00400010F500500D
:1055D000401C03F0D5FB514689B224B20FFA89F979
:1055E00019EB04000FFA8BFBB0EB0B00400010F539
:1055F000005003F0C5FB1BF1010BBDF900000FFAD1
:105600008BFB83459EDB48467F1EB9EB070109B241
:105610004900491C11EB080847E7B5EB060A0121D0
:1056200024B2600010F50050401C03F0A9FB514665
:1056300089B224B2600010F5005003F0A1FB24B23F
:1056400036B23019B0F5006F01DB200001E04FF4F5
:10565000006000B2BDE8F28F2DE9F047DFF8D01D01
:105660000968082904D0DFF8C81D0968102906D187
:10567000DFF8C00D0578DFF8BC0D007808E0DFF832
:10568000B41D0D78EDB2DFF8A81D0968B5FBF1F582
:10569000DFF8A41D0978890701D5002600E001265E
:1056A000DFF8E81D097800295DD1002744E05FFAA2
:1056B00088F8BFB2DFF8280E10EB071018F800408A
:1056C00018F10108E4B2E4B254EA042189B21FFAE5
:1056D00089F9BFB2B6B2802000FB06F010F5E040B9
:1056E00010EB471019EB000003F04AFB19F1010918
:1056F000E4B2200950EA041A5FFA8AFA5046C0B2AE
:1057000050EA0A2189B21FFA89F9BFB2B6B28020E5
:1057100000FB06F010F5E04010EB471019EB00001D
:1057200003F02EFB19F101092800C0B280B21FFA64
:1057300089F94845BBD27F1CBFB2042F80F24D834C
:10574000EDB2290089B2BFB2B6B2802000FB06F0EC
:1057500010F5E04010EB471003F012FB5FF000087B
:105760005FF00109E0E7DFF8241D0978012943D142
:1057700000272AE05FFA88F8BFB2DFF8640D10EB6B
:10578000071018F8004018F10108A2465FFA8AFADB
:10579000E4B254EA0A2189B21FFA89F9BFB2B6B25B
:1057A000802000FB06F010F5E04010EB471019EBED
:1057B000000003F0E5FA19F101092800C0B280B237
:1057C0001FFA89F94845D5D27F1CBFB2042F80F259
:1057D0000483EDB2290089B2BFB2B6B2802000FBCB
:1057E00006F010F5E04010EB471003F0C9FA5FF047
:1057F00000085FF00109E0E7DFF8901C0978022952
:105800004DD1002734E05FFA88F8BFB2DFF8D00C42
:1058100010EB071018F8004018F101085FFA88F83B
:10582000BFB2DFF8BC0C10EB071018F800A018F19D
:105830000108E4B25FFA8AFA5AEA042189B21FFA2F
:1058400089F9BFB2B6B2802000FB06F010F5E04047
:1058500010EB471019EB000003F092FA19F101095F
:105860002800C0B280B21FFA89F94845CBD27F1C0C
:10587000BFB2042F80F2B182EDB2290089B2BFB26B
:10588000B6B2802000FB06F010F5E04010EB4710A8
:1058900003F076FA5FF000085FF00109E0E7DFF857
:1058A000EC1B0978032940F0E980C0B2042190FB89
:1058B000F1F500275DE0EDB2022D59D15FF001094D
:1058C0005FFA88F8BFB2DFF8180C10EB071018F871
:1058D000004018F101085FFA88F8BFB2DFF8000C49
:1058E00010EB071018F800A018F10108E4B25FFAF5
:1058F0008AFA5AEA042189B21FFA89F9BFB2B6B20C
:10590000802000FB06F010F5E04010EB471019EB8B
:10591000000003F035FA5FFA88F8BFB2DFF8C00B79
:1059200010EB071018F8004018F101085FFA88F82A
:10593000BFB2DFF8AC0B10EB071018F800A018F19D
:105940000108E4B25FFA8AFA5AEA042189B21FFA1E
:1059500089F9BFB2B6B2802000FB06F010F5E04036
:1059600010EB471019EB000010F5807003F008FAF7
:105970007F1CBFB2042F80F230820121BFB2B6B2C9
:10598000802000FB06F010F5E04010EB471003F01C
:10599000F7F90121BFB2B6B2802000FB06F010F586
:1059A000E04010EB471010F5807003F0E9F900219A
:1059B000BFB2B6B2802000FB06F010F5E04010EB5D
:1059C000471010F5007003F0DBF90021BFB2B6B24A
:1059D000802000FB06F010F5E04010EB471010F5BA
:1059E000407003F0CDF95FF00008EDB2012D7FF4B7
:1059F00062AF5FF001095FFA88F8BFB2DFF8E00A32
:105A000010EB071018F8004018F101085FFA88F849
:105A1000BFB2DFF8CC0A10EB071018F800A018F19D
:105A20000108E4B25FFA8AFA5AEA042189B21FFA3D
:105A300089F9BFB2B6B2802000FB06F010F5E04055
:105A400010EB471019EB000003F09AF9E4B25FFA8B
:105A50008AFA5AEA042189B21FFA89F9BFB2B6B2AA
:105A6000802000FB06F010F5E04010EB471019EB2A
:105A7000000010F5807003F083F979E7DFF80C1A65
:105A80000978042940F04681C0B2042190FBF1F569
:105A900000278CE0EDB2022D40F088805FF0010914
:105AA0005FFA88F8BFB2DFF8380A10EB071018F871
:105AB000004018F101085FFA88F8BFB2DFF8200A49
:105AC00010EB071018F800A018F10108E4B25FFA13
:105AD0008AFA5AEA042189B21FFA89F9BFB2B6B22A
:105AE000802000FB06F010F5E04010EB471019EBAA
:105AF000000003F045F9E4B25FFA8AFA5AEA042199
:105B000089B21FFA89F9BFB2B6B2802000FB06F055
:105B100010F5E04010EB471019EB000010F5007095
:105B200003F02EF95FFA88F8BFB2DFF8B40910EB82
:105B3000071018F8004018F101085FFA88F8BFB2A2
:105B4000DFF89C0910EB071018F800A018F1010805
:105B5000E4B25FFA8AFA5AEA042189B21FFA89F993
:105B6000BFB2B6B2802000FB06F010F5E04010EBAB
:105B7000471019EB000010F5807003F001F9E4B252
:105B80005FFA8AFA5AEA042189B21FFA89F9BFB288
:105B9000B6B2802000FB06F010F5E04010EB471095
:105BA00019EB000010F5407003F0EAF87F1CBFB25B
:105BB000042F80F212810121BFB2B6B2802000FB17
:105BC00006F010F5E04010EB471003F0D9F8012182
:105BD000BFB2B6B2802000FB06F010F5E04010EB3B
:105BE000471010F5807003F0CBF80121BFB2B6B2B8
:105BF000802000FB06F010F5E04010EB471010F598
:105C0000007003F0BDF80121BFB2B6B2802000FBE6
:105C100006F010F5E04010EB471010F5407003F06F
:105C2000AFF85FF00008EDB2012D7FF433AF5FF005
:105C300001095FFA88F8BFB2DFF8A40810EB07107B
:105C400018F8004018F101085FFA88F8BFB2DFF8D1
:105C5000900810EB071018F800A018F10108E4B242
:105C60005FFA8AFA5AEA042189B21FFA89F9BFB2A7
:105C7000B6B2802000FB06F010F5E04010EB4710B4
:105C800019EB000003F07CF8E4B25FFA8AFA5AEAF2
:105C9000042189B21FFA89F9BFB2B6B2802000FB95
:105CA00006F010F5E04010EB471019EB000010F57E
:105CB000807003F065F8E4B25FFA8AFA5AEA0421C8
:105CC00089B21FFA89F9BFB2B6B2802000FB06F094
:105CD00010F5E04010EB471019EB000010F50070D4
:105CE00003F04EF8E4B25FFA8AFA5AEA042189B264
:105CF0001FFA89F9BFB2B6B2802000FB06F010F59A
:105D0000E04010EB471019EB000010F5407003F075
:105D100037F84BE700274AE05FFA88F8BFB2DFF8B0
:105D2000C00710EB071018F8004018F1010814F034
:105D3000F000E4B250EA141A5FFA8AFA5046C0B290
:105D400050EA0A2189B21FFA89F9BFB2B6B280209F
:105D500000FB06F010F5E04010EB471019EB0000D7
:105D600003F00EF819F1010914F00F0050EA0414C1
:105D7000E4B22000C0B250EA042189B21FFA89F9C6
:105D8000BFB2B6B2802000FB06F010F5E04010EB89
:105D9000471019EB000002F0F3FF19F10109280088
:105DA000C0B280B21FFA89F94845B5D27F1CBFB294
:105DB000042F12DAEDB2290089B2BFB2B6B2802048
:105DC00000FB06F010F5E04010EB471002F0D8FFA2
:105DD0005FF000085FF00109E1E7BDE8F08700002F
:105DE000063400202DE9F04387B003A8019004A8F1
:105DF000009002AB05AADFF8F417DFF8F40700689B
:105E0000DFF8F0470019401C02F0FEFF0498000381
:105E10000490039800030390DFF8DC0700680599FD
:105E2000B0FBF1F4DFF8D00700680599B0FBF1F2A0
:105E300001FB1200002800D0641CDFF8C0070068D6
:105E40000299B0FBF1F5DFF8B40700680299B0FBE6
:105E5000F1F201FB1200002800D06D1C0027002683
:105E600000E0761C0598864241D2E719390089B2D4
:105E7000700110F5A04002F083FF5FF000085FF0B2
:105E8000010921E0039810EB080189B2700110F5B7
:105E9000A04019EB000002F073FF4FF6FF71700194
:105EA00010F5A04019EB000010F5007002F068FF3B
:105EB0000021700110F5A04019EB000010F5806082
:105EC00002F05EFF19F1010902984845C9D3029812
:105ED000814502D15FF0000801E015EB080819EBDD
:105EE0000600C007CED5049810EB0801CDE707B037
:105EF000BDE8F083093400200A3400200B34002070
:105F00000C3400200F3400200D3400200734002012
:105F100004340020D0330020033400202DE9F04762
:105F200088B003A8019004A8009002AB05AADFF88E
:105F3000BC16DFF8BC060068DFF8B8460019401C44
:105F400002F062FF0498000304900398000303909A
:105F5000DFF8A40600680599B0FBF1F4DFF89806B5
:105F600000680599B0FBF1F201FB1200002800D097
:105F7000641CDFF8880600680299B0FBF1F5DFF8D1
:105F80007C0600680299B0FBF1F201FB12000028C8
:105F900000D06D1C0026DFF85806006810F10708D5
:105FA000002702E07F1C18F10408059887424ED2B2
:105FB000A619310089B2780110F5A04002F0E0FE88
:105FC0005FF0000906AADFF83816DFF8280618EB9C
:105FD000000002F019FF5FF0010A21E0049810EBC5
:105FE000090189B2780110F5A0401AEB000002F017
:105FF000C7FE4FF6FF71780110F5A0401AEB0000C4
:1060000010F5007002F0BCFE0021780110F5A040F0
:106010001AEB000010F5806002F0B2FE1AF1010ADE
:1060200002985045BED30298824502D15FF0000924
:1060300001E015EB090906984FF400415246521E43
:1060400011410842CAD0039810EB0901C9E708B012
:10605000BDE8F087C8330020606C010815000020FF
:10606000D46E0108F0B58BB004A8019005A800908B
:1060700002AB07AADFF87415DFF874050068DFF8D3
:1060800074450019401C02F0BFFE08A8019006A844
:10609000009009AB03AADFF86C15DFF8540500681F
:1060A000DFF850450019C01D02F0AEFE0398E0492C
:1060B0000968B0FBF1F0039005980003059004987F
:1060C000000304900698000306900025002400E0D9
:1060D000641C0798844280F0928009984519290031
:1060E00089B2600110F5A04002F04AFE00260127A7
:1060F0001CE00498811989B2600110F5A04038189D
:1061000002F03EFE4FF6FF71600110F5A040381816
:1061100010F5007002F034FE0021600110F5A0407F
:10612000381810F5806002F02BFE7F1C0298B842F0
:1061300007D3039886193819C007DAD5059881194D
:10614000D9E7DFF8B804006880190399029A51432F
:10615000B0EB41063005000D0699091889B26001BF
:1061600010F5A040381802F00BFE089989B26001C2
:1061700010F5A040381810F5007002F001FE002163
:10618000600110F5A040381810F5806002F0F8FDAD
:106190007F1C1CE00498811989B2600110F5A040B1
:1061A000381802F0EDFD4FF6FF71600110F5A040C8
:1061B000381810F5007002F0E3FD0021600110F5C1
:1061C000A040381810F5806002F0DAFD7F1C0298BC
:1061D0004000401CB842FFF47BAF02984000401CD6
:1061E000874201D1002601E00398861938190299E7
:1061F000401A401CC007CDD505988119CCE7DFF8BF
:10620000F803006840190999079A5143B0EB41051A
:10621000290089B2600110F5A04002F0B1FD069995
:1062200089B2600110F5A040401C02F0A9FD089958
:1062300089B2600110F5A04000F2012002F0A0FD3B
:106240000021600110F5A04000F2014002F098FD2D
:10625000641C00E0641C07984000A042C0F09780D6
:1062600009984519290089B2600110F5A04002F093
:1062700087FD002601271CE00498811989B260017E
:1062800010F5A040381802F07BFD4FF6FF71600159
:1062900010F5A040381810F5007002F071FD0021D3
:1062A000600110F5A040381810F5806002F068FD1C
:1062B0007F1C0298B8420AD3039886190798201ABF
:1062C000401C3818C007D7D505988119D6E7CB48A8
:1062D000006880190399029A5143B0EB41063005DA
:1062E000000D0699091889B2600110F5A040381810
:1062F00002F046FD089989B2600110F5A0403818F7
:1063000010F5007002F03CFD0021600110F5A04086
:10631000381810F5806002F033FD7F1C1CE00498F3
:10632000811989B2600110F5A040381802F028FDEB
:106330004FF6FF71600110F5A040381810F500709D
:1063400002F01EFD0021600110F5A040381810F584
:10635000806002F015FD7F1C02984000401CB8428E
:10636000FFF478AF02984000401C874201D100261C
:1063700001E0039886190798201A401C38180299E2
:10638000401A401EC007CAD505988119C9E70BB04D
:10639000F0BD1FB501A8009002AB03AADFF8841C72
:1063A00093480068934C0019C01C02F02DFD03991E
:1063B00089B244F20A0002F0E3FC029989B244F285
:1063C000090002F0DDFC019989B244F2080002F0F4
:1063D000D7FC874800680F30DFF8201E08601FBD1B
:1063E0001FB501A8009002AB03AADFF8381C804853
:1063F0000068804C0019C01C02F006FD039989B2A8
:1064000044F20E0002F0BCFC029989B244F20D0085
:1064100002F0B6FC019989B244F20C0002F0B0FC23
:10642000734800680F30DFF8D41D08601FBD0000FE
:10643000B833002012340020113400201FB501A809
:10644000009002AB03AADFF8DC1B69480068694CC6
:106450000019C01C02F0D8FC039989B244F2220052
:1064600002F08EFC029989B244F2210002F088FC0D
:10647000019989B244F2200002F082FC5C48006875
:106480000F30DFF8781D08601FBD000008340020C1
:106490001FB501A8009002AB03AADFF8881B54487F
:1064A0000068544C0019C01C02F0AEFC039989B27C
:1064B00044F2120002F064FC029989B244F2110025
:1064C00002F05EFC019989B244F2100002F058FC1F
:1064D000474800680F30DFF8241D08601FBD00002A
:1064E000AC3000201FB501A8009002AB03AADFF872
:1064F000341B3F4800683F4C0019801C02F084FCAC
:10650000039989B244F20A0002F03AFC029989B276
:1065100044F2090002F034FC019989B244F2080007
:1065200002F02EFC01A8009002AB03AADFF8F41AD7
:106530002F4800682F4C00190E3002F065FC0399BB
:1065400089B244F20E0002F01BFC029989B244F2B7
:106550000D0002F015FC019989B244F20C0002F022
:106560000FFC01A8009002AB03AADFF8B81A20487C
:106570000068204C00191A3002F046FC039989B2D9
:1065800044F2220002F0FCFB029989B244F221009D
:1065900002F0F6FB019989B244F2200002F0F0FB10
:1065A00001A8009002AB03AADFF8781A104800682F
:1065B000104C0019263002F027FC039989B244F2EE
:1065C000120002F0DDFB029989B244F2110002F0E0
:1065D000D7FB019989B244F2100002F0D1FB0448C4
:1065E00000683230DFF8901E08601FBD746C01082F
:1065F000B433002008000020C4330020C033002042
:1066000028700108886C01082DE9F04383B001204F
:10661000DFF8EC1B087090E00098DFF8E81B0968D1
:10662000461A0098DFF8DC1B0860009989B2E4B2D2
:10663000600110F5A04002F0A3FB0027DFF8C80BB3
:106640000068001DDFF8C01B08606D1C01AB00AACC
:10665000DFF8B81BDFF8B00B0068DFF8B4CB10EB45
:106660000C00C01C02F0D0FB00980005000D0028B3
:1066700008D0DFF8A01B0968DFF89C2B1268514393
:10668000884215D3009810F470400090DFF8840B16
:106690000068DFF8841B09684843B0EB0708DFF89F
:1066A000740B0068DFF8701B096801FB00F702E05B
:1066B000B0EB0708070000980005000DDFF8581B35
:1066C0000968B0FBF1F0009911F4704108180090CE
:1066D000009989B2EDB2E4B2600110F5A04028182B
:1066E00002F04EFB019989B2EDB2E4B2600110F5FF
:1066F000A040281810F5007002F042FB02229AA177
:10670000DFF8040B0068DFF8083BC0180B3003F01B
:106710006DF8002856D10021EDB2E4B2600110F509
:10672000A040281810F5806002F02AFBDFF8D80A94
:1067300000680E30DFF8D01A0860DFF8CC0A006875
:10674000DFF8B81A0968884280F0AA8303F096F847
:1067500001AB00AADFF8241DDFF8AC0A0068DFF8FF
:10676000B04A001902F050FB009810F00F04019D90
:10677000EDB2002D7FF469AF00AADFF8041DDFF849
:10678000880A0068DFF8883AC018C01C02F03CFB99
:106790000098002806D00098DFF8401D096888425C
:1067A000FFF43AAF00200090DFF8300D0068DFF80A
:1067B000541A0968461ADFF8240D0068DFF8441AF5
:1067C000086032E7022269A1DFF83C0A0068DFF8BE
:1067D000403AC0180B3003F009F8002827D15FF0C9
:1067E0008070B0FBF8F0DFF8081E0968B0FBF1F02C
:1067F00010F101095FEA1940C0B250F4805189B22A
:10680000EDB2E4B2600110F5A040281810F58060E8
:1068100002F0B6FA494689B2EDB2E4B2600110F571
:10682000A040281810F5C06002F0AAFA7EE7022204
:106830004FA1DFF8D4090068DFF8D439C0180B3055
:1068400002F0D4FF002827D15FF08070B0FBF8F091
:10685000DFF89C1D0968B0FBF1F97FEA09095FEADE
:106860001940C0B250F4805189B2EDB2E4B2600177
:1068700010F5A040281810F5806002F081FA494612
:1068800089B2EDB2E4B2600110F5A040281810F50D
:10689000C06002F075FA49E7022236A1DFF8680904
:1068A0000068DFF86C39C0180B3002F09FFF002839
:1068B00025D15FF08070B0FBF6F94FF47041EDB276
:1068C000E4B2600110F5A040281810F5806002F0D5
:1068D00057FA5FEA1940C1B2E4B2600110F5A04076
:1068E00010F5806002F04CFA494689B2E4B26001CA
:1068F00010F5A04010F5C06002F042FA16E702223F
:106900001DA1DFF804090068DFF80439C0180B3056
:1069100002F06CFF002831D15FF08070B0FBF6F020
:1069200010F101094FF45041EDB2E4B2600110F5ED
:10693000A040281810F5806002F022FA5FEA1940A2
:10694000C1B2E4B2600110F5A04010F5806002F021
:1069500017FA494689B2E4B2600110F5A04010F57B
:10696000C06002F00DFAE1E64E4F0000482B000037
:10697000482D0000562B0000562D00000222CBA10E
:10698000DFF884080068DFF88838C0180B3002F0A0
:106990002DFF002843D15FF08070B0FBF6F010F1BE
:1069A00001095FEA1941C9B289B2E4B2600110F588
:1069B000A04010F5806002F0E3F9494689B2E4B2E4
:1069C000600110F5A04010F5C06002F0D9F95FF049
:1069D0008070B0FBF8F0DFF8181C0968B0FBF1F02C
:1069E00010F101095FEA1940C0B250F4304189B298
:1069F000EDB2E4B2600110F5A040281810F58060F7
:106A000002F0BEF9494689B2EDB2E4B2600110F578
:106A1000A040281810F5C06002F0B2F986E6022204
:106A2000CCA1DFF8E4070068DFF8E437C0180B30CA
:106A300002F0DCFE002843D15FF08070B0FBF6F07E
:106A400010F101095FEA1941C9B289B2E4B26001EB
:106A500010F5A04010F5806002F092F9494689B225
:106A6000E4B2600110F5A04010F5C06002F088F9B2
:106A70005FF08070B0FBF8F0DFF8741B0968B0FBC2
:106A8000F1F97FEA09095FEA1940C0B250F43041D8
:106A900089B2EDB2E4B2600110F5A040281810F5FB
:106AA000806002F06DF9494689B2EDB2E4B260014E
:106AB00010F5A040281810F5C06002F061F935E625
:106AC0000222D1A1DFF840070068DFF84437C01880
:106AD0000B3002F08BFE002843D15FF08070B0FBDA
:106AE000F6F010F101095FEA1941C9B289B2E4B2C6
:106AF000600110F5A04010F5806002F041F94946B0
:106B000089B2E4B2600110F5A04010F5C06002F057
:106B100037F95FF08070B0FBF8F0DFF8D41A09683D
:106B2000B0FBF1F010F101095FEA1940C0B250F476
:106B3000104189B2EDB2E4B2600110F5A04028180E
:106B400010F5806002F01CF9494689B2EDB2E4B25A
:106B5000600110F5A040281810F5C06002F010F98F
:106B6000E4E50222CFA1DFF8A0060068DFF8A03636
:106B7000C0180B3002F03AFE002843D15FF080705D
:106B8000B0FBF6F010F101095FEA1941C9B289B210
:106B9000E4B2600110F5A04010F5806002F0F0F85A
:106BA000494689B2E4B2600110F5A04010F5C0601A
:106BB00002F0E6F85FF08070B0FBF8F0DFF8301A12
:106BC0000968B0FBF1F97FEA09095FEA1940C0B230
:106BD00050F4104189B2EDB2E4B2600110F5A0406A
:106BE000281810F5806002F0CBF8494689B2EDB262
:106BF000E4B2600110F5A040281810F5C06002F062
:106C0000BFF893E50222BBA1DFF8FC050068DFF8BE
:106C10000036C0180B3002F0E9FD002843D15FF0C8
:106C20008070B0FBF6F010F101095FEA1941C9B2BA
:106C300089B2E4B2600110F5A04010F5806002F066
:106C40009FF8494689B2E4B2600110F5A04010F502
:106C5000C06002F095F85FF08070B0FBF8F0DFF8EC
:106C600090190968B0FBF1F97FEA09095FEA194058
:106C7000C0B250F4A04189B2EDB2E4B2600110F5A7
:106C8000A040281810F5806002F07AF8494689B2D1
:106C9000EDB2E4B2600110F5A040281810F5C06014
:106CA00002F06EF842E5022293A101E044310000B7
:106CB000DFF854050068DFF85835C0180B3002F0D3
:106CC00095FD002843D15FF08070B0FBF6F010F125
:106CD00001095FEA1941C9B289B2E4B2600110F555
:106CE000A04010F5806002F04BF8494689B2E4B24A
:106CF000600110F5A04010F5C06002F041F85FF0AF
:106D00008070B0FBF8F0DFF8E8180968B0FBF1F02C
:106D100010F101095FEA1940C0B250F4A04189B2F4
:106D2000EDB2E4B2600110F5A040281810F58060C3
:106D300002F026F8494689B2EDB2E4B2600110F5DE
:106D4000A040281810F5C06002F01AF8EEE4022204
:106D5000B2A101E044320000DFF8AC040068DFF8C3
:106D6000B034C0180B3002F041FD002843D15FF071
:106D70008070B0FBF6F010F101095FEA1941C9B269
:106D800089B2E4B2600110F5A04010F5806001F016
:106D9000F7FF494689B2E4B2600110F5A04010F552
:106DA000C06001F0EDFF5FF08070B0FBF8F0DFF83D
:106DB00040180968B0FBF1F97FEA09095FEA194058
:106DC000C0B250F4E04189B2EDB2E4B2600110F516
:106DD000A040281810F5806001F0D2FF494689B222
:106DE000EDB2E4B2600110F5A040281810F5C060C3
:106DF00001F0C6FF9AE4022289A1DFF80C040068C2
:106E0000DFF80C3402E000BF44330000C0180B3040
:106E100002F0ECFC002843D15FF08070B0FBF6F08C
:106E200010F101095FEA1941C9B289B2E4B2600107
:106E300010F5A04010F5806001F0A2FF494689B22C
:106E4000E4B2600110F5A04010F5C06001F098FFB9
:106E50005FF08070B0FBF8F0DFF894170968B0FBC2
:106E6000F1F010F101095FEA1940C0B250F4E041BD
:106E700089B2EDB2E4B2600110F5A040281810F517
:106E8000806001F07DFF494689B2EDB2E4B2600155
:106E900010F5A040281810F5C06001F071FF45E41E
:106EA000BDE8F7834434000010B582B00400E4B2BA
:106EB00020000028022807D8E4B2210089B244F259
:106EC000600001F05DFF04E0002144F2600001F089
:106ED00057FFE4B20094E4B2230044F26002DFF80A
:106EE000A01BDFF8B80D02F0D1FCDFF8B00D02F006
:106EF00078FD13BD443500004436000010B588B05D
:106F00000120BF49087000214FF4A04001F038FF74
:106F10000021012010F5A04001F032FF002140F2D5
:106F2000012010F5A04001F02BFF002140F20140AC
:106F300010F5A04001F024FF0120DFF8481B087085
:106F400002AADFF8441BB0480068B14BC01801F03A
:106F50005BFF0020FFF7A8FF0298FF2802D1FEF791
:106F60007BFB0CE00298FE2803D10120FFF79CFF79
:106F700005E00298FD2802D10220FFF795FF03A843
:106F8000019004A8009005AB06AADFF8001B9E48FC
:106F900000689F4C0019801C01F036FF069989B2E9
:106FA00044F2094001F0ECFE059989B244F20A402E
:106FB00001F0E6FE049989B244F20B4001F0E0FED4
:106FC000039989B244F20C4001F0DAFE8E48006861
:106FD0008F494018807C312801D1042400E000242E
:106FE000DFF8BC0C0078002801D0012000E0002070
:106FF000C0B24FF6FB71084090F00200E4B22043AB
:1070000050F0010189B244F2084001F0B9FE54F099
:107010000100DFF88C1C087008B010BD4437000078
:1070200044380000C06D010810B586B001207449D5
:10703000087002AB03AADFF86C1C73480068744C3C
:107040000019103001F0E0FE00214FF4A04001F0E3
:1070500097FE03980001C0B2010289B2012010F529
:10706000A04001F08DFE029989B240F2012010F596
:10707000A04001F085FE002140F2014010F5A04043
:1070800001F07EFE05A8019004A8009002AB03AABF
:10709000DFF8F8195C4800685D4C001901F0B4FE97
:1070A000DFF8040C007803283BDA039989B2DFF893
:1070B000F80B0078800000F5C040C030401C01F0A3
:1070C0005FFE059989B2DFF8E00B0078800000F5DB
:1070D000C040C030801C01F053FE049989B2DFF833
:1070E000C80B0078800000F5C040C030C01C01F023
:1070F00047FE0298000AC0B20299C9B251EA0021C3
:1071000089B2DFF8A40B0078800000F5C040C030E1
:1071100001F036FEDFF8900B0078401CDFF8881B8A
:10712000087004A8009002AB03AADFF8801B364861
:107130000068374C0019153001F066FE0398DFF83F
:10714000701B08800298DFF8681B48800498DFF8FD
:10715000601B8880039989B244F20A0001F010FE96
:10716000029989B244F2090001F00AFE049989B239
:1071700044F2080001F004FE05A8019004A8009064
:1071800002AB03AADFF8601C1F480068204C0019FE
:10719000213001F039FE0398DFF8501C0880029876
:1071A000DFF8481C48800498DFF8401C8880059868
:1071B00064214843DFF8641D086006B010BD80B547
:1071C000114800681249405C312802D1FEF70AFEDE
:1071D00010E00D4800680E49405C322802D1FEF7ED
:1071E0009DFE07E0084800680949405C332801D14A
:1071F000FEF738FF01200249087001BDB0330020BE
:1072000005340020C8330020B4330020E06E0108AC
:1072100008000020C0330020B8330020F0B587B04C
:1072200003A8019002A8009005AB04AADFF85C183F
:10723000DFF8BC0B0068DFF8BC4B001901F0E4FD7F
:10724000049989B244F2064001F09AFD059989B289
:1072500044F2074001F094FD0498DFF8C41C09686B
:10726000B0FBF1F201FB1200C0B2800010F180040B
:10727000DFF8B00C0068082827D204980830049082
:107280000598103005900298C008C000029003983D
:107290000009000103900298C0080821B0FBF1F238
:1072A00002FB1102002A08D00298C0080821B0FB96
:1072B000F1F202FB1102042A03D102981038029065
:1072C0002AE002980838029026E0049840300490A2
:1072D0000598103005900298C008C00002900398ED
:1072E0000009000103900298C0080821B0FBF1F2E8
:1072F00002FB1102002A08D00298C0080821B0FB46
:10730000F1F202FB1102042A03D1029850380290D4
:1073100002E0029820380290039800090821B0FB8F
:10732000F1F202FB1102002A08D00398000908219B
:10733000B0FBF1F202FB1102042A03D103982038BA
:10734000039002E0039810380390049989B244F244
:10735000014001F015FD059989B244F2024001F0A7
:107360000FFD029989B244F2034001F009FD03992F
:1073700089B244F2044001F003FDDFF8AC0B006871
:10738000DFF8A01B09684843C508DFF89C0B0068BC
:10739000DFF8901B096848430821B0FBF1F202FBBB
:1073A0001102002A00D06D1C00270EE00021FFB260
:1073B0004FF4007000FB07F010F50040301801F0AA
:1073C000DFFC761CB542F1D27F1CFFB2082F01DA38
:1073D0000026F7E7002645E0E4B2210089B216F561
:1073E000004001F0CDFCE4B2611C89B216F500400A
:1073F000C01D01F0C5FCE4B2A11C89B216F5004025
:1074000000F2036001F0BCFCE4B2E11C89B216F5A5
:10741000004000F2046001F0B3FCE4B2611C89B2E8
:1074200016F5004000F6030001F0AAFCE4B22100CA
:1074300089B216F5004000F6040001F0A1FCE4B2A8
:10744000E11C89B216F5004010F5606001F098FC6F
:10745000E4B2A11C89B216F5004000F6076001F005
:107460008FFC0836B542B7D201214FF4884001F0B5
:1074700087FC07B0F0BD0000B03300203070010879
:107480003870010838B5DFF8900C02F0AAFA002431
:1074900019E002F0F3F9E4B2EDB2DFF8800C10EB82
:1074A0000510215C89B2EDB2E4B24FF4807000FBAC
:1074B00004F010F51040281801F062FC6D1CEDB2CC
:1074C000902DE6DB641CE4B2102C01DA0025F6E70F
:1074D000DFF8340D02F085FA31BD0000C43300201E
:1074E0007CB501AADFF87C1CDFF804090068DFF82E
:1074F0000439C01801F088FC0198DFF8101D0870ED
:10750000DFF8EC080068861C002418E000AADFF809
:107510007815DFF8E008301801F076FC0098DFF805
:10752000681C11EB041168546D1CB61CDFF8DC0CF0
:107530000078022190FBF1F08542E7D3641C042C13
:1075400001D20025F2E773BD70B5040015001E00DE
:10755000DFF8BC0C0078082849DAADB2A4B2A54225
:1075600005D220002C00050008003100060089B279
:10757000DFF89C0C0078800010F5C140401C01F041
:10758000FFFB290089B2DFF8880C0078800010F535
:10759000C140801C01F0F4FB310089B2DFF8700CAF
:1075A0000078800010F5C140C01C01F0E9FB049890
:1075B00080B2012802D154F4404407E080B202288E
:1075C00002D154F4204401E054F40044210089B273
:1075D000DFF83C0C0078800010F5C14001F0D0FBD2
:1075E000DFF82C0C0078401CDFF8241C087070BDFC
:1075F000BC33002038B504001500DFF8180C007803
:107600000F2838DAADB289B28D4202D208002900C3
:10761000050089B2DFF8FC0B0078800010F5C0404F
:10762000401C01F0ADFB290089B2DFF8E80B0078BF
:10763000800010F5C040801C01F0A2FB0021DFF8A3
:10764000D40B0078800010F5C040C01C01F098FBFE
:1076500054F40044210089B2DFF8B80B00788000B0
:1076600010F5C04001F08CFBDFF8A80B0078401C3F
:10767000DFF8A01B087031BD70B506000C001100CA
:107680001D00DFF8940B00780F2848DA89B2B6B2F3
:10769000B14202D230000E00010089B2DFF8780B4F
:1076A0000078800000F5C0404030401C01F068FBCD
:1076B000210089B2DFF8600B0078800000F5C0403F
:1076C0004030801C01F05CFB0021DFF84C0B00789F
:1076D000800000F5C0404030C01C01F051FBADB24D
:1076E000012D02D156F4404607E0ADB2022D02D181
:1076F00056F4204601E056F40046310089B2DFF826
:10770000180B0078800000F5C040403001F038FBD5
:10771000DFF8040B0078401CDFF8FC1A087070BD1D
:1077200010B588B005A8029003A8019006A80090A3
:1077300004AB07AADFF8E41ADFF8B4060068DFF844
:10774000B446001901F060FB049840F6FF718842CE
:1077500003D340F6FE70049007E0039840F6FF71F3
:10776000884202D340F6FE700390059880B20090E4
:10777000039B9BB2069A92B2049989B2079880B291
:10778000FFF7E2FE08B010BD1FB501A8009002ABE4
:1077900003AADFF88C1ADFF858060068DFF85446B1
:1077A000001901F031FB019A92B2029989B2039853
:1077B00080B2FFF71FFF1FBD10B586B002A8019071
:1077C00003A8009004AB05AADFF8581ADFF82006DA
:1077D0000068DFF82046001901F016FB029B9BB2FF
:1077E000039A92B2049989B2059880B2FFF744FFD8
:1077F00006B010BD1FB502A8009001AB03AADFF8C8
:10780000201ADFF8EC050068DFF8E845001901F000
:10781000FBFA029A12B2019909B2039800B2FDF77D
:10782000EFFD0400019989B244F2053001F0A8FA95
:10783000210089B244F2063001F0A2FA1FBD80B5E2
:1078400000AA8EA1DFF8A8050068DFF8A835C018E7
:1078500001F0DAFA0098012801D1032105E000982F
:10786000022801D1052100E0012189B244F204304F
:1078700001F086FA01BD30B587B006AADFF8701CAA
:10788000DFF86C050068DFF86C35C01801F0BCFA51
:10789000DFF8600C0068DFF85C15401810F8014C48
:1078A000DFF84C050068001DDFF84415086012E0A1
:1078B00002200090059B9BB2049A92B2029989B271
:1078C000039880B2FFF740FEDFF824050068083017
:1078D000DFF81C150860DFF81C0C00681138DFF8B1
:1078E00010150968884269D305A8019004A8009082
:1078F00002AB03AA6549DFF8F8040068DFF8F45426
:10790000401901F081FA03980499884208D1059A38
:1079100092B2029989B2039880B2FFF76BFED3E767
:1079200002980599884224D1E4B2322C09D0002370
:10793000049A92B2029989B2039880B2FFF79CFE32
:10794000C2E706980299884209D30123049A92B2A9
:10795000029989B2039880B2FFF78EFEB4E7022342
:10796000049A92B2029989B2039880B2FFF784FE1A
:10797000AAE7E4B2322C0CD000200090059B9BB209
:10798000049A92B2029989B2039880B2FFF7DCFDA3
:107990009AE70698029988428AD306980599884200
:1079A00086D301200090059B9BB2049A92B2029963
:1079B00089B2039880B2FFF7C7FD85E707B030BDF5
:1079C00010B588B004A8029005A8019006A8009000
:1079D00007AB03AADFF84418DFF814040068DFF8E7
:1079E0001444001901F010FAAF480078042843DA73
:1079F000079989B2AC480078800000F5C040C030DB
:107A0000401C01F0BDF9069989B2A74800788000B2
:107A100000F5C040C030801C01F0B2F9059989B270
:107A2000A1480078800000F5C040C030C01C01F0C3
:107A3000A7F90498012804D1039850F4404003901A
:107A40000BE00498022804D1039850F420400390DE
:107A500003E0039850F400400390039989B29248E0
:107A60000078800000F5C040C03001F089F98E48F0
:107A70000078401C8C49087008B010BD25316400A6
:107A8000D866010804340020407001089C6C01088D
:107A900010B590B008A8069009A805900AA804900F
:107AA0000BA803900CA802900DA801900EA80090BE
:107AB0000FAB07AADFF8401ACD480068CD4C00197B
:107AC00001F0A2F90798002805D0022829D015D383
:107AD000032839D04AE00A9989B244F2260001F01D
:107AE0004FF9099989B244F2250001F049F9089942
:107AF00089B244F2240001F043F937E00A9989B2CF
:107B000044F22A0001F03CF9099989B244F22900B3
:107B100001F036F9089989B244F2280001F030F9F1
:107B200024E00A9989B244F22E0001F029F909995A
:107B300089B244F22D0001F023F9089989B244F288
:107B40002C0001F01DF911E00A9989B244F23200CB
:107B500001F016F9099989B244F2310001F010F9E7
:107B6000089989B244F2300001F00AF9002107981F
:107B7000800000F5C040E430401C01F001F9002114
:107B80000798800000F5C040E430801C01F0F8F850
:107B90000C9810F47F400B99C1F30721014389B27F
:107BA0000798800000F5C040E430C01C01F0E8F800
:107BB00000210798800000F5C040E43001F0E0F8B3
:107BC0000E9989B20798800000F5C040D030401C63
:107BD00001F0D6F80D9989B20798800000F5C040F1
:107BE000D030801C01F0CCF80C980B99C9B251EA46
:107BF000002189B20798800000F5C040D030C01C39
:107C000001F0BEF80F9850F4004189B20798800047
:107C100000F5C040D03001F0B3F80120DFF8841D3A
:107C2000087010B010BD10B586B002A8019003A86E
:107C3000009004AB05AADFF8C4186D4800686D4CCD
:107C4000001901F0E1F8B848016889B244F20D303A
:107C500001F096F8039989B246F240003D3001F0F8
:107C60008FF8049989B246F240003E3001F088F85E
:107C7000029989B246F240003F3001F081F8059840
:107C800050F4004189B246F240003C3001F078F8EF
:107C90000120DFF8101D087006B010BD982E0020DE
:107CA00011340020EC6E01080C340020C06D010876
:107CB0004033002070B586B004A8019005A800905C
:107CC00002AB03AADFF8E41BDFF8DC0C0068494CC8
:107CD000001901F099F8039989B244F2064001F0C5
:107CE0004FF8029989B244F2074001F049F803992C
:107CF00089B244F2014001F043F8029989B244F29A
:107D0000024001F03DF8059989B244F2034001F0C8
:107D100037F8049989B244F2044001F031F88248FE
:107D20000068804909684843C4087F4800687D4965
:107D3000096848430821B0FBF1F202FB1102002A56
:107D400000D0641C00250EE00021EDB24FF400705D
:107D500000FB05F010F50040301801F011F8761C1A
:107D6000A642F1D36D1CEDB2082D01DA0026F7E72B
:107D7000DFF8340C006810F11004002527E01D48DE
:107D8000215C89B2EDB24FF4007000FB05F010F5F4
:107D90000040301800F0F4FF641C761C1548205C8D
:107DA0000A2804D0DFF84C0700688442E7D3114862
:107DB000205C0A2800D1641CDFF838070068844280
:107DC00004D3DFF8E40B006810F110046D1CEDB271
:107DD000082D01DA0026E1E701214FF4884000F088
:107DE000CFFF06B070BD0000B06C01084833002022
:107DF000B43300200800002010B58EB008A805900C
:107E000009A804900AA8039007A802900BA8019063
:107E10000CA800900DAB06AADFF8901BDFF8880BCA
:107E20000068DFF88C4B001900F0EEFFDFF8700DF2
:107E30000078142870DA0D9989B2DFF8640D0078A3
:107E4000800010F5C440401C00F09AFF0C9989B2E4
:107E5000DFF84C0D0078800010F5C440801C00F065
:107E60008FFF0B9989B2DFF8380D0078800010F58C
:107E7000C440C01C00F084FF0798012804D1069874
:107E800050F4404006900BE00798022804D1069871
:107E900050F42040069003E0069850F4004006900D
:107EA000069989B2DFF8F80C0078800010F5C4401C
:107EB00000F066FF0A9989B2DFF8E40C007803222B
:107EC00044F2293302FB003000F05AFF099989B2CD
:107ED000DFF8CC0C0078032244F2293302FB003097
:107EE000401C00F04DFF089989B2DFF8B40C00780F
:107EF000032244F2293302FB0030801C00F040FFD3
:107F0000012144F2653000F03BFFDFF8940C00786B
:107F1000401CDFF88C1C08700EB010BDD033002060
:107F2000CC330020B8330020C03300202DE9F84FB7
:107F300004002000DFF87C1A01F02CFF05D320009C
:107F4000DFF8741A01F038FF00D8BEE02000DFF837
:107F50006C1A01F01FFF0DD25FF02209200001F022
:107F60003DFF0022DFF8583A01F070FF02F04EF8B2
:107F7000040001E05FF02109DFF8488A03260EE0E3
:107F80001000210002F08AF8414601F003FF05D2FB
:107F90008046B7F10805B01EADF80000761CB6B2F9
:107FA000492E44DA200001F019FFDFF8F82BDFF842
:107FB000F83B02F0EBF882468B46B6B2300002F096
:107FC00013FA01F00BFF52465B4601F03FFF02F04F
:107FD0001BFA0700BFB2B7F10C00B0F5FE7FDDD28F
:107FE000BFB2380002F000FA01F0F8FEDFF8B42B5F
:107FF000DFF8B43B01F02AFF82468B46B6B2300070
:1080000002F0F2F901F0EAFE02000B005046594678
:1080100002F0BCF801F0FAFF02001000210001F0AC
:10802000B9FEADD22000110002F038F8ACE7ADB2D5
:1080300015F1080002F0CEF901F0D0FEDFF8642B54
:10804000DFF8683B01F002FF06000F00BDF80000FA
:10805000801C02F0BFF901F0C1FE02000B003000ED
:10806000390002F093F801F0D1FF02005FFA89F9BC
:10807000B9F1210F0BD1100001F0B0FE00225FF02A
:10808000804302F083F801F0C1FF02000AE0100013
:1080900001F0A4FE0022DFF8543C02F077F801F072
:1080A000B5FF0200ED01BDF800000543290089B2CB
:1080B00044F2020000F064FE5FFA89F959F40041CD
:1080C00089B244F2030000F05BFEBDE8F18F70B5A9
:1080D000002400250026DFF8D81A02F0C1F902F0CA
:1080E0002BFAB0F516700600DFF8040C50F82600E5
:1080F0000400DFF8FC0B50F82600000C05002100FE
:1081000089B244F2020000F03BFE290089B244F239
:10811000030000F035FE70BD186A0108885101089F
:10812000E0B5062280B2DFF88818411800A802F0F6
:1081300025FA00208DF8060000A802F025FA01F0CB
:1081400065FFDFF8B01B01F037FE07D8DFF8A81B8A
:1081500001F020FE02D2FFF7BAFF01E0FFF7E6FED2
:1081600007BD00004870010880B5DFF83C080068D2
:10817000001D80B2FFF7D4FFDFF82C0800680A303A
:10818000DFF8781B086001BDAC30002070B582B00C
:10819000040000A8DFF8681B0A680260E4B2042C3F
:1081A00000DB0024E4B2210089B244F2400000F078
:1081B000E7FD002607E00021F6B206F580404130D9
:1081C00000F0DEFD761CF6B2072EF4DBDFF8340B90
:1081D0000068E4B200A9615CB0FBF1F501260BE098
:1081E000F6B206FB05F189B2F6B206F580404130E1
:1081F000401E00F0C5FD761CE4B200A8205CF6B27B
:108200008642EDD373BD0000E06B010812340020FC
:108210000B340020093400200A340020C46C01080B
:10822000D06D0108E06D010830B587B002AADFF813
:10823000D81ADFF874070068DFF87437C018001D1B
:1082400000F0E2FD029810F00F0F04D10120DFF8DA
:10825000BC1A086026E0029810F00F00012804D133
:108260000220DFF8A81A08601CE0029810F00F0046
:10827000022804D10420DFF8941A086012E0029862
:1082800010F00F00032804D10820DFF8801A0860DE
:1082900008E0029810F00F00042803D11020DFF846
:1082A0006C1A08600298DFF8681A0870DFF8600A34
:1082B0000078010289B24FF4804000F061FD02981D
:1082C00010F00F00DFF84C1A0870DFF8480A007849
:1082D000002808D10120DFF8401A08600120DFF8EB
:1082E000D015086036E0DFF82C0A0078012808D1A4
:1082F0000120DFF8241A08600220DFF8B4150860B6
:1083000028E0DFF8100A0078022808D10120DFF801
:10831000081A08600420DFF8981508601AE0DFF8F2
:10832000F4090078032808D10120DFF8EC1908606F
:108330000820DFF87C1508600CE0DFF8D809007829
:10834000042807D10120DFF8D01908601020DFF8D9
:108350006015086002AADFF8C419DFF84C0600684F
:10836000DFF84C36C018801D00F04EFD0298440026
:10837000E4B2210089B24FF4824000F001FD03AB6A
:1083800002AADFF89C19DFF820060068DFF8205603
:108390004019C01D00F038FD0298DFF81415096877
:1083A000B0FBF1F002900298DFF8581908600398CA
:1083B000DFF870190860029989B244F2031000F0E6
:1083C000DFFC039989B244F2061000F0D9FCDFF813
:1083D000D80500680F3080B2FFF7A2FE04A8009015
:1083E00003AB02AADFF84019DFF8BC050068DFF82C
:1083F000C0554019153000F007FD0298DFF8B014A1
:108400000968B0FBF1F002900398DFF8A414096842
:10841000B0FBF1F003900498DFF894140968B0FB06
:10842000F1F0049002980399081804990818DFF8ED
:10843000D4180968091889B244F2021000F0A0FCAF
:10844000049989B244F2041000F09AFC06A8019045
:1084500005A8009004AB03AADFF8D018DFF84805A0
:108460000068DFF84C554019203000F0CDFC03982F
:108470000299C9B251EA002189B244F2011000F018
:108480007FFC03980499081805990818DFF89418D8
:108490000968091889B244F2051000F071FC0599C9
:1084A00089B244F2071000F06BFC0698C0B2FFF7E7
:1084B0006DFE012002F07BF8E4B254F0010189B2B4
:1084C0004FF4824000F05CFCDFF8440801780902B8
:1084D00051F0EA0189B24FF4804000F051FCDFF81E
:1084E000C80400682930DFF81418086007B030BDF0
:1084F00038700108B033002050680108D86C0108BA
:1085000080B5DFF82C1808600120DFF82818087003
:108510000020DFF8241808700420DFF88C140860AD
:1085200007E0FFF781FEDFF8D4070068DFF8781472
:108530000860DFF874040068DFF8F41709688842FF
:1085400080F0488101F09AF90422DFF8F017DFF893
:1085500058040068DFF85834C01801F047F90028C3
:10856000DFD00422DFF8D817DFF83C040068DFF81A
:108570004034C01801F03AF9002802D1FFF7F4FDA9
:10858000D1E70222B6A1DFF820040068DFF820342A
:10859000C01801F02BF9002802D1FDF7A3FFC2E7B4
:1085A0000322B0A1DFF800040068DFF80434C0182B
:1085B00001F01CF9002802D1FDF7EBFEB3E703221E
:1085C000A9A1DFF8E4030068DFF8E433C01801F084
:1085D0000DF9002802D1FDF703FFA4E70322A3A1B0
:1085E000DFF8C4030068DFF8C833C01801F0FEF8F4
:1085F000002802D1FDF722FF95E703229CA1DFF8B6
:10860000A8030068DFF8A833C01801F0EFF80028CD
:1086100002D1FDF73DFF86E700AADFF82817DFF853
:1086200088030068DFF88833C018801C00F0ECFB7A
:108630000098002800F0CE80DFF86C0300680099F5
:108640000818DFF8B8160860DFF85C030068401D02
:10865000DFF854130860DFF8DC060078002801D04A
:10866000FCF766FDDFF840030068DFF844134018AC
:1086700010F8050C54281BD1CB480068CC49401891
:1086800010F8040C412806D011D3432809D005D393
:10869000442809D00BE0FDF7B7FF44E7FEF72EFCB6
:1086A00041E7FEF7C1FC3EE7FEF789FD3BE73AE70D
:1086B000BD480068BE49401810F8050C4C2825D16B
:1086C000B9480068BA49401810F8040C43280AD089
:1086D00048280BD050280CD052280DD054280ED04A
:1086E00056280FD011E0FFF7AAF81CE7FFF74CF867
:1086F00019E7FFF7C0F816E7FFF762F913E7FFF78E
:108700000FF810E7FFF758F80DE70CE7A6480068E8
:10871000A749401810F8050C522811D1A24800684A
:10872000A349401810F8040C482802D0562803D05A
:1087300005E0FFF7ADF9F6E6FFF775FAF3E6F2E6C6
:10874000994800689A49401810F8050C422813D13E
:10875000FEF798FE944800689549401810F8040CFC
:108760004D2802D0532803D005E0FEF757FDDAE686
:10877000FFF7A0FAD7E6D6E68B4800688C49401888
:1087800010F8050C442811D1874800688849401822
:1087900010F8040C422802D0432803D005E0FEF76D
:1087A0009FFEC0E6FFF726F8BDE6BCE67E480068FF
:1087B0007F49401810F8050C45280BD17A4800680D
:1087C0007B49401810F8040C522802D1FFF714FB23
:1087D000A9E6A8E6DFF860050078002816D0DFF8E3
:1087E0006805007890F0020050F0010080B200901F
:1087F000009989B24FF4844000F0C2FADFF84805CE
:10880000007890F00200DFF840150870DFF83C05B2
:108810000078DFF83C1509780843DFF83815097847
:108820000843DFF8341509780843DFF87413097832
:1088300008435C4909780843002804D001214FF41B
:10884000864000F09DFADFF814050078002804D176
:10885000002144F2084000F093FA002002BD00001D
:1088600043440000434C4E004342540043464700FB
:108870004342470010B582B0040000AADFF8E014BC
:10888000DFF8E00400F0C0FA4FF48052DFF8D414AF
:10889000474801F073FE0098FFF732FE00212000E8
:1088A000C0B200F044FB002016BD00009C6C010823
:1088B000B833002070B586B0040002A8019003A868
:1088C000009004AB05AADFF8A014DFF8A00400F0C4
:1088D0009BFA0020DFF898140880DFF894040188E0
:1088E00044F2103000F04CFA00250DE00021F6B201
:1088F000EDB2E80010F5C240301800F041FA761CE5
:10890000F6B2082EF2DB6D1CEDB2082D01DA00265E
:10891000F6E7002510E04FF6FF71F6B2EDB2032046
:1089200044F2113200FB0520301800F029FA761CC1
:10893000F6B2032EEFDB6D1CEDB2082D01DA002636
:10894000F6E7039803214843042190FBF1F000254A
:108950001CE001005A39EDB2DFF8182422F8351076
:1089600001003C39EDB2DFF80C2412EBC502518056
:10897000EDB2DFF8001411EBC50188800299EDB269
:10898000DFF8F02312EBC502D1806D1CEDB2082D8B
:10899000DFDB00212000C0B200F0C9FA002006B0E1
:1089A00070BD000007340020B4330020C069010806
:1089B000080000200000E040010048430000DC41C6
:1089C0000000104020BCBE4C7CB5040001AB00AAE6
:1089D000DFF8A413DFF8940300F016FA002510E086
:1089E0004FF6FF71F6B2EDB2032044F2113200FBF4
:1089F0000520301800F0C4F9761CF6B2032EEFDB28
:108A00006D1CEDB2082D01DA0026F6E70021019871
:108A1000032244F2113302FB003000F0B1F94FF6AB
:108A2000FF710198032244F2113302FB0030401C15
:108A300000F0A6F900210198032244F2113302FB51
:108A40000030801C00F09CF9019800280CD002280E
:108A50002ED01BD304284FD03CD3062870D05DD332
:108A6000072800F07F808EE00098012806D1C048DA
:108A7000008850F00100BE49088006E0BC4800882C
:108A80004FF6FE710840BA4908807CE00098012842
:108A900006D1B748008850F00200B549088006E0CA
:108AA000B34800884FF6FD710840B14908806AE07C
:108AB0000098012806D1AE48008850F00400AC4967
:108AC000088006E0AA4800884FF6FB710840A849D4
:108AD000088058E00098012806D1A548008850F089
:108AE0000800A349088006E0A14800884FF6F77106
:108AF00008409F49088046E00098012806D19C481C
:108B0000008850F010009A49088006E098480088D4
:108B10004FF6EF7108409649088034E0009801282C
:108B200006D19348008850F020009149088006E063
:108B30008F4800884FF6DF7108408D49088022E099
:108B40000098012806D18A48008850F040008849E2
:108B5000088006E0864800884FF6BF7108408449C7
:108B6000088010E00098012806D18148008850F064
:108B700080007F49088006E07D4800884FF67F71BD
:108B800008407B4908807A48018844F2103000F0A0
:108B9000F7F800212000C0B200F0C9F9002076BD2E
:108BA0000F340020897B2C7DE8A22C40E8A23C40B9
:108BB0000000204170B588B0040004A8029005A808
:108BC000019006A8009007AB03AA6C49674800F023
:108BD0001BF900250DE04FF6FF71032044F211321E
:108BE00000FB0520301800F0CBF8761C032EF2DBDA
:108BF0006D1C082D01DA0026F8E7002103980322F6
:108C000044F2113302FB003000F0BAF84FF6FF7166
:108C10000398032244F2113302FB0030401C00F0A1
:108C2000AFF800210398032244F2113302FB003015
:108C3000801C00F0A5F8069989B20398C00010F5D1
:108C4000C240401C00F09CF803984A4931F83010AB
:108C50000398C00010F5C240801C00F091F8039802
:108C6000444911EBC00041880398C00010F5C24090
:108C7000C01C00F085F8059989B20398C00010F572
:108C8000C240001D00F07CF8049989B20398C0002E
:108C900010F5C240401D00F073F80398354911EB00
:108CA000C00081880398C00010F5C240801D00F00C
:108CB00067F803982F4911EBC000C1880398C000E2
:108CC00010F5C240C01D00F05BF8079989B2039807
:108CD000C00010F5C24000F053F800212000C0B2DF
:108CE00000F025F9002008B070BD00000000204011
:108CF000A85E0108000070420100B442B0330020B9
:108D0000A4700108C033002040700108CC3300205B
:108D10000E34002008340020BC33002050700108BD
:108D2000F86E0108C4330020F06D0108EC6C0108F6
:108D3000AC330020063400200534002058700108B0
:108D400060700108687001081034002009340020A8
:108D50000A3400200B3400200C340020043400209E
:108D60007070010811000020006D0108150000203E
:108D7000F0330020EC300020046F0108F86B01088C
:108D800038B504000D004FF6FF70ADF8000010205C
:108D90008DF8030003208DF8020000A9164801F0A9
:108DA00019FC00224FF48071144801F085FC210069
:108DB00089B2134801F089FC290089B20E4801F0FC
:108DC00084FC012001F0E4FB002240210D4801F069
:108DD00073FC012001F0DCFB01224021094801F075
:108DE0006BFC012001F0D4FB01224FF48071034899
:108DF00001F062FC31BD0000001801400008014094
:108E0000001C0140001001400DB400B582B004A860
:108E100000900A4600AB03A9034878440A3001F0E9
:108E20009FFC06BC5DF810FBC711000010B40022C7
:108E3000002302E01C5CA2185B1C8B42FADB1000D2
:108E4000C0B210BC704770B582B0050000240C3170
:108E5000002604E070194078C0B20419761C8E42D6
:108E6000F8D300AADFF83C197019401CFFF7CCFFBB
:108E7000761C70198078E4B200998C4206D1C0B299
:108E8000032801D1002002E0FF2000E0FF2076BD92
:108E90002DE9FF411C0000275FF000080A9D0B9E92
:108EA0000396C0B2029000200190D2B20092C9B2E3
:108EB0000B000222DFF8F018280000F0E7FC280081
:108EC00002F0B0F9070032002100781901F056FBDA
:108ED000F719791E681CFFF7A9FF804603235FFA84
:108EE00088F84246DFF8C418781900F0CFFCFF1C60
:108EF000380004B0BDE8F08170B504000D00002614
:108F000008E0DFF8AC080078032802D1305D00F0FB
:108F100078FE761CAE4208DADFF894080078012863
:108F2000EFD1305D00F048FDF3E7002070BD3EB5A5
:108F3000040002A800220260C9B20A00DFF8741817
:108F400002A800F0A3FC02A802F06CF90190DFF87F
:108F50006808009002ABA122A2212000C0B2FFF756
:108F600097FF040000250AE0DFF844080078032892
:108F700004D1DFF84408285C00F043FE6D1CA542D4
:108F80000ADADFF82C0800780128EDD1DFF828088C
:108F9000285C00F011FDF1E700203EBD38B504006B
:108FA000002501F00EFBE4B22000102800F0D9806B
:108FB000112800F0DC80122800F0DF80132800F078
:108FC000E280152800F0E580162800F0E8801728D8
:108FD00000F0EB80212800F0EE80242800F0F180E2
:108FE000252800F0F480292800F0F7802A2800F0D6
:108FF000FA802B2800F0FD802C2800F000812D281D
:1090000000F00381342800F00681352800F0098142
:10901000372800F00D813A2800F010813B2800F03D
:10902000F4803D2800F010813E2800F01381412893
:1090300000F01681422800F01981502800F01C81B0
:10904000512800F01F81522800F02281532800F09F
:109050002581542800F02881552800F02B815628BE
:1090600000F02E81572800F03181582800F034811B
:10907000592800F037815A2800F03A81A02800F0E2
:109080003D81A42800F03A81A52800F03781A62868
:1090900000F03481A82800F03781A92800F03A8137
:1090A000AA2800F03D81AB2800F04081AC2800F0F8
:1090B0004381AD2800F04681AE2800F04981AF28F9
:1090C00000F04C81B02800F04F81B12800F05281AF
:1090D000B22800F05581B32800F05881B52800F07F
:1090E0005B81B62800F05E81B72800F06181B82866
:1090F00000F06481BA2800F06781BB2800F06A8123
:10910000BC2800F06D81BD2800F07081BE2800F001
:109110007381BF2800F07681C02800F07981C128D2
:1091200000F07D81C32800F08081C52800F0838194
:10913000C72800F08681C82800F08981C92800F07E
:109140008C81CD2800F08F81F32800F09281F428E3
:1091500000F08F81FD2800F09281FE2800F09581BB
:1091600099E12000C0B2FFF785FB050098E12000DF
:10917000C0B2FCF72EF9050092E100212000C0B238
:10918000FFF7D5FE8CE12000C0B2FCF705F9050021
:1091900086E12000C0B2FFF78DFB050080E12000D2
:1091A000C0B2FFF711FC05007AE12000C0B2FFF762
:1091B00001FD050074E12000C0B202F095FA05003F
:1091C0006EE12000C0B202F023FC050068E100213E
:1091D0002000C0B2FFF7ABFE62E12000C0B203F096
:1091E00043FC05005CE12000C0B203F0C1FC0500B7
:1091F00056E12000C0B202F064FB050050E12000FF
:10920000C0B203F06FFB05004AE12000C0B203F0DA
:10921000C9FB050044E12000C0B204F04FFA05008C
:109220003EE100212000C0B2FFF781FE050037E1DA
:109230002000C0B203F018FD050031E12000C0B2EB
:1092400003F03CFE05002BE12000C0B204F0A8F9B9
:10925000050025E12000C0B204F0C8F805001FE1B8
:109260002000C0B203F0D3FE050019E12000C0B217
:1092700003F0DEFF050013E12000C0B202F049FA5E
:1092800005000DE12000C0B202F05AFA050007E126
:109290002000C0B202F069FA050001E12000C0B26E
:1092A00002F078FA0500FBE02000C0B202F087FA75
:1092B0000500F5E000212000C0B2FFF738FEEFE026
:1092C0002000C0B202F0A5FA0500E9E02000C0B21B
:1092D00002F07FFB0500E3E02000C0B202F05AFB81
:1092E0000500DDE02000C0B202F0A8FA0500D7E0DA
:1092F0002000C0B202F0B7FA0500D1E02000C0B2F1
:1093000004F00FFF0500CBE02000C0B204F0DEFF48
:109310000500C5E000212000C0B2FFF708FEBFE055
:109320002000C0B205F0E6FB0500B9E02000C0B2A5
:1093300005F04EFC0500B3E02000C0B205F0D2FD00
:109340000500ADE02000C0B202F04EFA0500A7E033
:109350002000C0B206F0A4F90500A1E02000C0B2D0
:1093600002F0EEF905009BE02000C0B202F066FAC0
:10937000050095E02000C0B202F08AFA05008FE0F7
:109380002000C0B206F051FC050089E02000C0B208
:1093900006F0C5FD050083E02000C0B205F0C7FD62
:1093A00005007DE02000C0B206F0DCFD050077E09E
:1093B0002000C0B204F036FF050071E02000C0B20A
:1093C00006F05FFC05006BE02000C0B205F01BF862
:1093D000050065E02000C0B206F06AFC05005FE011
:1093E0002000C0B206F0C3FE050059E02000C0B264
:1093F00006F0BDF8050053E02000C0B204F0F4FE12
:1094000005004DE02000C0B205F038F8050047E047
:1094100000212000C0B2FFF78AFD050040E02000D7
:10942000C0B205F092FB05003AE02000C0B206F0A1
:10943000B4FD050034E02000C0B205F087F8050057
:109440002EE02000C0B204F087FF050028E02000D5
:10945000C0B204F079FF050022E02000C0B204F0A1
:10946000D2FF05001CE02000C0B205F0C3F90500E2
:1094700016E02000C0B205F043FA050010E020001D
:10948000C0B205F065FA05000AE02000C0B205F0A0
:1094900068FA050004E002212000C0B2FFF747FD92
:1094A000280032BDF0B585B000240025002603A8B1
:1094B0000021002206C0083800F05BFA002805D120
:1094C000FF20ADE0EDB2012D00D1641C00F0D6F913
:1094D000EDB2012D13D1B9480088B0F5FA6F03DC65
:1094E00041F6A57084420ADB0020B449088000F0F0
:1094F00088FA09210920FFF71AFDFF2090E000F00B
:1095000038FA0028E2D000F040FA0700AC482754AF
:10951000FFB2022F06D0002C04D1EDB2002D01D1F4
:10952000FF207DE0FFB2022F09D1002C07D1EDB260
:10953000002D04D101250120A049088021E0EDB2D1
:10954000012D1ED10C2C0DD104229E4903A801F03F
:1095500015F800AA9C4903A8FFF756FC0098801C48
:1095600000900EE00D2C06DB0098012803DB00982C
:10957000401E009005E00D2C03DB0098002800D170
:109580000126FFB2032F9DD1F6B2012E9AD1002001
:109590008A4908808A480778FFB2022F01D0FF204D
:1095A0003EE001208249087002AB01AA8749884841
:1095B000FFF72AFC019887490870029886490870CD
:1095C00001AA78498548FFF71FFC019C8148007873
:1095D000A12807D180480078A2280AD07E480078C8
:1095E000A32806D001212000C0B2FFF7A0FC002074
:1095F00016E000AA74497348FFF706FC009970480A
:10960000FFF721FC002806D003212000C0B2FFF79D
:109610008EFCFF2004E02000C0B2FFF7BFFC00205A
:1096200005B0F0BDF0B585B000240025002603A8E4
:109630000021002206C0083800F0C7FA002805D132
:10964000FF20ADE0EDB2012D00D1641C00F016F951
:10965000EDB2012D13D162480088B0F5FA6F03DC3A
:1096600041F6A57084420ADB00205D49088000F0C5
:10967000DAFA09210920FFF75AFCFF2090E000F0F8
:10968000A4FA0028E2D000F0AAFA07004C482754B8
:10969000FFB2022F06D0002C04D1EDB2002D01D173
:1096A000FF207DE0FFB2022F09D1002C07D1EDB2DF
:1096B000002D04D1012501204949088021E0EDB2A7
:1096C000012D1ED10C2C0DD104223E4903A800F01F
:1096D00055FF00AA3C4903A8FFF796FB0098801CA1
:1096E00000900EE00D2C06DB0098012803DB0098AB
:1096F000401E009005E00D2C03DB0098002800D1EF
:109700000126FFB2032F9DD1F6B2012E9AD100207F
:10971000334908802A480778FFB2022F01D0FF2082
:109720003EE003202249087002AB01AA27492848DD
:10973000FFF76AFB01982B49087002982A490870C4
:1097400001AA18492548FFF75FFB019C25480078CE
:10975000A12807D124480078A2280AD022480078FE
:10976000A32806D001212000C0B2FFF7E0FB0020B3
:1097700016E000AA14491348FFF746FB0099104869
:10978000FFF761FB002806D003212000C0B2FFF7DD
:10979000CEFBFF2004E02000C0B2FFF7FFFB00205B
:1097A00005B0F0BDA06F0108386B0108A86F010873
:1097B000FF330020B06F010810200020EA330020A2
:1097C0000800002011000020B86F01082C6E01086D
:1097D00009000020FA330020FB3300200F00002096
:1097E000EC330020FC330020FD3300200300002078
:1097F00013F0030F09D0521E22BF13F8010B11F80A
:1098000001CBB0EB0C00F3D07047121F22BF53F80E
:10981000040B51F804CB6045F7D0121D0AD200BAF0
:109820009CFA8CFCB0EB0C0038BF6FF0000088BFD6
:1098300001207047521E22BF13F8010B11F801CB13
:10984000B0EB0C00F6D0521C08BF1046704710B4A5
:1098500050F8041B81B102681218001D50F8043B37
:10986000DC0744BFA9F10104E31852F8044B43F8A4
:10987000044B091FF9D1EBE710BC70474AF6AA2048
:109880000149086070470000003000400CB41CB56E
:10989000044604A801900A46009401AB00A90748B9
:1098A0007844183006F0C4FC009A0021117000289A
:1098B0005CBF0098001B16BC5DF80CFBC7080000DD
:1098C00000B587B001214FF4804007F075FC4FF4DC
:1098D0000070ADF8000003208DF8020018208DF80C
:1098E000030000A9DFF8700400F074FE4FF48060FC
:1098F000ADF8000004208DF8030000A9DFF858043B
:1099000000F068FE5FF4E13003900020ADF8100035
:109910000020ADF812000020ADF814000020ADF8D2
:1099200018000C20ADF816000020ADF8040000204F
:10993000ADF806004FF40070ADF808000020ADF857
:109940000A0003A9DFF8140407F0ACFC01A9DFF852
:109950000C0407F0F5FC012240F22551DFF8FC036E
:1099600007F00EFD0121DFF8F40307F0FBFC07B060
:1099700000BDDFF8EC030078DFF8E4134978884293
:1099800001D0012000E000207047DFF8D403007808
:10999000DFF8CC1340188078DFF8C4130978491C2D
:1099A000DFF8BC231170C9B2FA2903D30021DFF814
:1099B000B0231170C0B2704710B504008021DFF8E9
:1099C0009C0307F004FD0028F8D0E4B2DFF894030C
:1099D00004804021DFF8840307F0F9FC0028F8D068
:1099E00010BD38B50400002505E0285DFFF7E4FF51
:1099F000FFF744FF6D1C200001F014FC8542F4D3F6
:109A000031BD0020DFF8581308700020DFF8501334
:109A10004870704700B587B001215FF4003007F04F
:109A2000DBFB0420ADF8000003208DF802001820B5
:109A30008DF8030000A9DFF8200300F0CBFD08201B
:109A4000ADF8000004208DF8030000A9DFF808033A
:109A500000F0C0FD5FF4E13003900020ADF810008D
:109A60000020ADF812000020ADF814000020ADF881
:109A700018000C20ADF816000020ADF804000020FE
:109A8000ADF806004FF40070ADF808000020ADF806
:109A90000A0003A9B44807F005FC01A9B24807F081
:109AA0004FFC012240F22551AF4807F069FC01212B
:109AB000AD4807F057FC07B000BDAC480078AB4993
:109AC0004978884201D0012000E000207047A74873
:109AD0000078A64940188078A4490978491CA34A0F
:109AE0001170C9B2FA2902D30021A04A1170C0B284
:109AF000704710B5040080219B4807F068FC0028DF
:109B0000F9D0E4B29A4804804021974807F05FFCFE
:109B10000028F9D010BD0020944908700020934916
:109B20004870704700B587B001215FF4802007F0CE
:109B300053FB4FF48060ADF8000003208DF8020065
:109B400018208DF8030000A98A4800F043FD4FF467
:109B50000060ADF8000004208DF8030000A98548DE
:109B600000F038FD5FF4E13003900020ADF8100004
:109B70000020ADF812000020ADF814000020ADF870
:109B800018000C20ADF816000020ADF804000020ED
:109B9000ADF806004FF40070ADF808000020ADF8F5
:109BA0000A0003A9744807F07DFB01A9724807F079
:109BB000C7FB012240F225516F4807F0E1FB01216C
:109BC0006D4807F0CFFB07B000BD6C4800786B49CB
:109BD0004978884201D0012000E0002070476748A2
:109BE000007866494018807864490978491C634ABE
:109BF0001170C9B2FA2902D30021604A1170C0B2B3
:109C0000704710B5040080215B4807F0E0FB002896
:109C1000F9D0E4B25A4804804021574807F0D7FBF6
:109C20000028F9D010BD0020544908700020534985
:109C30004870704700B587B001215FF4002007F03D
:109C4000CBFA4FF48060ADF8000003208DF80200DD
:109C500018208DF8030000A94A4800F0BBFC4FF41F
:109C60000060ADF8000004208DF8030000A945480D
:109C700000F0B0FC5FF4E13003900020ADF810007C
:109C80000020ADF812000020ADF814000020ADF85F
:109C900018000C20ADF816000020ADF804000020DC
:109CA000ADF806004FF40070ADF808000020ADF8E4
:109CB0000A0003A9344807F0F5FA01A9324807F071
:109CC0003FFB012240F225512F4807F059FB0121AB
:109CD0002D4807F047FB07B000BD2C4800782B4902
:109CE0004978884201D0012000E0002070472748D1
:109CF000007826494018807824490978491C234A6D
:109D00001170C9B2FA2902D30021204A1170C0B2E1
:109D1000704710B5040080211B4807F058FB00284D
:109D2000F9D0E4B21A4804804021174807F04FFBED
:109D30000028F9D010BD38B50400002505E0285DE5
:109D4000FFF7E7FFFFF79AFD6D1C200001F06AFAAC
:109D50008542F4D331BD00000008014000380140C5
:109D6000A82800200438014000440040A429002015
:109D700004440040000C014000480040A02A00209C
:109D80000448004000100140004C00409C2B002083
:109D9000044C00404FF0807C1CEB400F94BF1CEB48
:109DA000410F05E040EA010C5FEA4C0C01D2884209
:109DB000704718BF814270474FF0807C1CEB400F0A
:109DC00094BF1CEB410F05E040EA010C5FEA4C0C2C
:109DD00001D28142704718BF884270475FF0FF0C84
:109DE0001CEAD05114BF614506E0C110400721F0C4
:109DF000E04101F16051704779B900F00041000283
:109E00000AD0B0FA80FC00FA0CF001F16051A1EB2D
:109E10000C5101EBD0214005704741020CBF40F4CA
:109E2000E0016FF000010020704750F8041B61B1A1
:109E300050F8042BD30744BFA9F101039A1800235B
:109E400042F8043B091FFAD1EFE77047B0B581EA49
:109E5000030C0CF0004C40F2FF7515EA11541DBFC5
:109E600015EA1357AC42AF4239E0E41923EA4553EF
:109E700043F48013C90241F0004141EA505EC70239
:109E80001100A7FB020200284FF00000EEFB0120AA
:109E90004FF00001E3FB072118BF42F00102401818
:109EA00000214941E3FB0E01A4F580640F0302D2B7
:109EB00052004041494154F101046CDD470872F100
:109EC000004250F1000051EB0451A1F580115CBF3C
:109ED00041EA0C01B0BD4CEA05510020B0BD05EAD5
:109EE0001357AC4214BFAF4241E050EA410E1CBFD1
:109EF00052EA430E02E061460020B0BD24423C44D9
:109F00001BD15FEA070EF6D0090302BF014600200D
:109F1000AEF1140EB1FA81F7AEEB070401FA07FEB9
:109F20000C37C7F1200100FA07F7C8404EEA000ECF
:109F300023EA455343F48013A2E733F00043B3FA16
:109F400083F704BFB2FA82FE77440B3FE41BB7F1FC
:109F5000200E2FBF02FA0EF3BB40C7F1200E22FAEB
:109F60000EFE38BF43EA0E03BA40641C82E750EA93
:109F7000410E14BF52EA430E6FF000014FF4001778
:109F800017EB430F8ABF194617EB410FB5E74CEAB1
:109F900005510020B0BDD4F10104B4F120070FDA5F
:109FA000C4F12007520828BF42F0010210FA07F559
:109FB00001FA07F7E1BF2A43E0403843E1400FE0F0
:109FC000352C98DCC7F1200452EA400220FA07F24F
:109FD00018BF42F0010231FA07F0A1400A43002104
:109FE00072F1004250F1000051EB0C01B0BD03686A
:109FF0001AB95A1E026008467047197811B94FF015
:10A00000FF307047591C0160187870474FEAF17CA7
:10A01000BCF1E04C2CBFBCF5001F11E05FEA4C0C1A
:10A0200034BFBCF17F5F2EE05FEA9C0C4FEA0C1C52
:10A030004FEA3C0CC10071F100414CEB507070478D
:10A04000C90241EA5051C00218BF41F0010141F07C
:10A0500000414FEA6C50C0F10900212810D240EABB
:10A06000CC7CCCF1200C11FA0CF070F10040CCF15A
:10A07000200C21FA0CF00CF0004C40EB0C00704767
:10A080004FEACC707047490011F5001F04D84FEA21
:10A09000CC10FF30C0057047C817704790EA010F19
:10A0A00044BF81F0004107F0D9B900BF431A4FF017
:10A0B00000423EBF5340C01AC91800BFD3095FEA2F
:10A0C000D05C13EB400F34BFB3EB410F40E07CEBAF
:10A0D000D1530CD342EA012122D8D1EB402009D33D
:10A0E000400A28BF5FEA500140EBCC507047401A4D
:10A0F00015D04002B0FA80F2521C9040400A4FEA5C
:10A100003C23B3EB026384BF00EB730007E040F431
:10A1100000001A16DB07C2F10102D0401843704755
:10A12000182BFCDC31FA03F202FA03F3591A38BF98
:10A1300042F00102D2EB40203CBF4000ACF1010CE8
:10A140005FEACC5CC20572F100414CEB50207047D5
:10A1500013EB400F0FD24B0009D0ACEBD153022BC5
:10A1600003DB4902172BDDDD70479143401A4300A2
:10A17000D5D10020704713EB410FD0D36FF0000012
:10A1800070470268531C036011707047F0B540F2CD
:10A19000FF7581EA030C0CF0004C15EA11541DBF49
:10A1A00015EA1357AC42AF42E5E0BC41C1F31301DD
:10A1B000C3F31303801A994143F4801304D2641E3D
:10A1C0004000494180185941C90241EA5051B1FB50
:10A1D000F3F603FB1611A2FB0675D7EBC020A941CD
:10A1E00002D2761E80185941C90241EA5051B1FB92
:10A1F000F3FE03FB1E11A2FB0E75D7EBC020A94195
:10A2000003D2AEF1010E80185941890241EA905102
:10A21000760546EA8E2EB1FBF3F603FB1611A2FB80
:10A220000675D7EB8020A94102D2761E80185941CD
:10A23000C90241EA50514EEA060EB1FBF3F603FBA8
:10A240001611A2FB0675D7EBC020A94102D2761EDB
:10A2500080185941C90241EA5051B1FBF3F703FBA1
:10A260001711A2FB0735D3EBC020A94167F1000706
:10A270000CBF004247F0010766F3D5274FEA1E31B5
:10A28000B80814F5806412DDBD0775F1004250EB8B
:10A290000E5051EB045111F5801F5CBF41EA0C01D7
:10A2A000F0BD4CF07F6141F0E0410020F0BDBD0702
:10A2B0006D0840EA0E5041F48011D4F10104B4F16C
:10A2C00020060ADAC4F120060200E04001FA06F393
:10A2D000E1401843B24015430EE0342C13DCC6F1C4
:10A2E000200445EA40056D0820FA06F2154321FADC
:10A2F00006F0A1400D43002175F1004250F100002D
:10A3000051EB0C01F0BD00205FEA0C01F0BDCFB9AC
:10A3100092185B41B3FA83F704BFB2FA82F6BF1911
:10A320000B3FB7F120062FBF02FA06F3BB40C7F17F
:10A33000200622FA06F638BF3343BA401CB1E419AE
:10A34000641E33E77F4231F00041B1FA81F404BF6B
:10A35000B0FA80F6A4190B3CB4F120062FBF00FA26
:10A3600006F1A140C4F1200620FA06F638BF3143B9
:10A37000A0403C1B1AE7AC421ABF05EA1357AF4294
:10A3800012E050EA41061CBF52EA4306BFE750EA1A
:10A390004107304661461CBF41EA0551F0BD52EA13
:10A3A000430C08BFC143F0BD00204FF4001616EB6C
:10A3B000410F98BF16EB430F08BF16EB410F24BFA8
:10A3C000C14305E016EB430F0CBF61464CEA055153
:10A3D000F0BD0000002840F10980F446404200F042
:10A3E00005F850F000406047002800BF0AD0B0FADE
:10A3F00080F18840D1F19D01C905020672F1004249
:10A4000041EB102070470000F446400D40EAC120A7
:10A41000490006D200F014F8004248BF6FF0004037
:10A42000604700F00DF84FF0004188428CBF0846AD
:10A4300040426047400D40EAC120490080F00D8055
:10A4400040F00040490DA1F58061491C05D4D1F1CF
:10A450001F0154BFC840C01770474FF0000070473D
:10A46000FF2212EAD05C1DBF12EAD15394459342F9
:10A470002BE09C44D30780EA01021A4043EA002003
:10A4800043EA0121A1FB0030410038BF40007CF1CC
:10A490007F010BDBFE294ADA5B0842EAC15153EA2D
:10A4A000006373F1004C51EB10207047D1F1080CA0
:10A4B000DCF120012FDB5B0810FA01F10B4373F193
:10A4C000004120FA0CF05041704794451CBF02EA4D
:10A4D000D153934280EA010202F000421DD04000B5
:10A4E00019D0490017D05BB9634514D00902B1FAFD
:10A4F00081F39940BCEB030CC00140F00040C1E780
:10A500000002B0FA80FC10FA0CF0B3EB0C0CC9019D
:10A5100041F00041B6E71000704740000AD0490002
:10A5200008D010F1807F94BF11F1807F02E042F0EB
:10A53000FF407047D04370474100090E7F3915D462
:10A54000D1F11F0114D4400007D2C00140F00040F7
:10A55000C84048BF6FF000407047C00140F0004065
:10A56000C8404CBF4FF00040404270470020704749
:10A5700000424FF0004058BFC043704710B504463A
:10A5800006F0A6FF204610BD0022002107F080B88B
:10A5900010B5040004E000BF401C0328FBDB641E70
:10A5A000002C03D0FFF76AF90020F6E710BD80B554
:10A5B00006490860FFF762F9044800680028F9D1ED
:10A5C00001BD002002490860704700006833002088
:10A5D00074330020F0B4002200260024002500235C
:10A5E000002791F803C01CF00F0C624691F803C0DD
:10A5F0005FEACC6C01D58B781A430B781B0621D00F
:10A600000368002406E0CD78482D02D10125A5403D
:10A610000561641C082C14D20125A5400E882E402B
:10A62000AE42F6D1A5000F2616FA05F7BB4312FA83
:10A6300005F52B43CD78282DE5D10125A5404561B1
:10A64000E7E703600B88FF2B26DD4368002420E04A
:10A65000012514F10806B5400E882E40AE4217D1F0
:10A66000A5000F2616FA05F7BB4312FA05F52B4392
:10A67000CD78282D04D1012514F10806B540456197
:10A68000CD78482D04D1012514F10806B5400561A7
:10A69000641C082CDCD34360F0BC70470022806847
:10A6A00089B2084201D0012200E000221000C0B2AD
:10A6B0007047C06880B27047D2B2002A02D089B217
:10A6C000016101E089B24161704789B2C1607047A0
:10A6D00010B400220F2311F00304E4B2A400A3403D
:10A6E0001A00C9B28B100E4C54F8233033EA020220
:10A6F000C9B28B100A4C44F82320C9B28A10084B07
:10A7000053F82220C0B211F00303DBB29B00984043
:10A710001043C9B28910024A42F8210010BC7047A8
:10A7200008000140034608460169491E0161C268EC
:10A73000521C0029C26003D401220068002118477E
:10A740004FF0FF307047034608461146C268521E5C
:10A7500011F1010FC26002D0002200681847704753
:10A760002DE9F04788B0044600914FF0FF35186896
:10A7700001902E460020039002920FF6A0270FF6BC
:10A7800094286FF0004902E00298401C0290DDF826
:10A7900008A09AF80000A0F10903052B09D320288E
:10A7A00007D0F0B9002EB8BF0026304608B0BDE88B
:10A7B000F0870398401C0390012200980021A047D5
:10A7C000A0F109010529F4D32028F2D00399491EEC
:10A7D00010F1010F0391D7D0014600980022A04745
:10A7E000D2E7252809D10AF10100029001782A292F
:10A7F00006BF401C0290002110E00398401C03900B
:10A80000012200980021A0479AF800108842BBD08E
:10A81000024600A92046FFF796FFC3E700208DF807
:10A820001C1005900AE00599494505D001EB81030C
:10A8300002EB430130390591401C029002980278E6
:10A84000A2F130010A29EED306950178404606F0C0
:10A8500021FF00281DBF029810F8011B0290002163
:10A860008DF81D109DF81D00682801BF02990A7817
:10A87000682A622006D06C2802BF029908786C28EA
:10A8800004D171208DF81D00481C029002980178B7
:10A89000384606F0FFFEB0B90398401C0390012231
:10A8A00000980021A047A0F109010529F4D3202830
:10A8B000F2D00399491E10F1010F039103D0014614
:10A8C00000980022A04700A9204600F010F80128B7
:10A8D00003DA002E3FF56AAF67E7002E48BF002677
:10A8E0009DF81E0000283FF44FAF761C4CE770B572
:10A8F00005460C460020A077A0680078253858D07F
:10A900001C3823D0001F022820D913381AD0C01EAB
:10A9100066D0801F1AD0801E12D0401E12D0401E5A
:10A92000022813D9001F0DD0401F13D0401E01284C
:10A9300008D9001F3BD0801E04D0C01E02D055E0B5
:10A9400000224FE02846BDE870403BE12846BDE8C4
:10A95000704030E2207F002835D1607F622808D027
:10A96000682816D06A280BD06C2819D0712807D017
:10A9700016E06068011D61600068E168017022E016
:10A980006268101D60601268E068C117C2E90001CA
:10A9900019E06068011D61600068E168018012E0F3
:10A9A0006068011D61600068E16801600BE00122E0
:10A9B00018E00122E068401CE06000212068A84700
:10A9C0000646252E01D1012070BD3246214628467B
:10A9D000FFF7B9FE16F1010F08D14FF0FF3070BD3F
:10A9E0004FF0FF322846BDE8704021E0002070BDE6
:10A9F000C9B207E003789942A4BF83788B4213DA87
:10AA0000C01CD21E032A0AD343782D2BF2D010F893
:10AA1000013B8B4218BF521EF4D105E0521E2AB1F1
:10AA200010F8013B8B42F9D101207047002070479C
:10AA30002DE9F04F17460024002583B082460E46CC
:10AA4000002F29D5B068401CB06000785E2806D180
:10AA5000B068401CB060401E0078019000E0019496
:10AA6000B06801785D2908BF401C5D2106F012FE28
:10AA7000002800F09E80D6F80880A0EB0801009125
:10AA8000B0600098032807DB821E2D2108F1010029
:10AA900006F00CFE00B101247069012804DA002FD1
:10AAA00014BF6FF0004001203061307F68B97068DA
:10AAB000011D7160D0F8009007E009F801BB01208A
:10AAC000B077B069401EB06102253069401E306128
:10AAD000F168491C0028F16010D40122306800217F
